{
  "_format": "hh-sol-artifact-1",
  "contractName": "MockStableRatioSwap",
  "sourceName": "contracts/MockStableRatioSwap.sol",
  "abi": [
    {
      "inputs": [],
      "stateMutability": "nonpayable",
      "type": "constructor"
    },
    {
      "anonymous": false,
      "inputs": [
        {
          "indexed": false,
          "internalType": "bool",
          "name": "_bool",
          "type": "bool"
        }
      ],
      "name": "Bool",
      "type": "event"
    },
    {
      "anonymous": false,
      "inputs": [
        {
          "indexed": false,
          "internalType": "uint256",
          "name": "tusd",
          "type": "uint256"
        },
        {
          "indexed": false,
          "internalType": "uint256",
          "name": "decimalsTusd",
          "type": "uint256"
        },
        {
          "indexed": false,
          "internalType": "uint256",
          "name": "usdc",
          "type": "uint256"
        },
        {
          "indexed": false,
          "internalType": "uint256",
          "name": "decimalsUsdc",
          "type": "uint256"
        },
        {
          "indexed": false,
          "internalType": "uint256",
          "name": "usdt",
          "type": "uint256"
        },
        {
          "indexed": false,
          "internalType": "uint256",
          "name": "decimalsUsdt",
          "type": "uint256"
        },
        {
          "indexed": false,
          "internalType": "uint256",
          "name": "dai",
          "type": "uint256"
        },
        {
          "indexed": false,
          "internalType": "uint256",
          "name": "decimalsDai",
          "type": "uint256"
        },
        {
          "indexed": false,
          "internalType": "uint256",
          "name": "busd",
          "type": "uint256"
        },
        {
          "indexed": false,
          "internalType": "uint256",
          "name": "decimalsBusd",
          "type": "uint256"
        }
      ],
      "name": "Deposit",
      "type": "event"
    },
    {
      "inputs": [],
      "name": "createUser",
      "outputs": [
        {
          "internalType": "bool",
          "name": "",
          "type": "bool"
        }
      ],
      "stateMutability": "nonpayable",
      "type": "function"
    },
    {
      "inputs": [],
      "name": "getAllStablecoinDeposits",
      "outputs": [
        {
          "internalType": "bool",
          "name": "",
          "type": "bool"
        }
      ],
      "stateMutability": "nonpayable",
      "type": "function"
    },
    {
      "inputs": [],
      "name": "optInToggle",
      "outputs": [
        {
          "internalType": "bool",
          "name": "",
          "type": "bool"
        }
      ],
      "stateMutability": "nonpayable",
      "type": "function"
    },
    {
      "inputs": [],
      "name": "swapStablecoinDeposit",
      "outputs": [
        {
          "internalType": "bool",
          "name": "",
          "type": "bool"
        }
      ],
      "stateMutability": "nonpayable",
      "type": "function"
    }
  ],
  "bytecode": "0x608060405234801561001057600080fd5b506001600460405180807f54555344000000000000000000000000000000000000000000000000000000008152506004019050908152602001604051809103902060006101000a81548160ff0219169083151502179055506001600460405180807f55534443000000000000000000000000000000000000000000000000000000008152506004019050908152602001604051809103902060006101000a81548160ff0219169083151502179055506001600460405180807f55534454000000000000000000000000000000000000000000000000000000008152506004019050908152602001604051809103902060006101000a81548160ff0219169083151502179055506001600460405180807f44414900000000000000000000000000000000000000000000000000000000008152506003019050908152602001604051809103902060006101000a81548160ff0219169083151502179055506001600460405180807f42555344000000000000000000000000000000000000000000000000000000008152506004019050908152602001604051809103902060006101000a81548160ff021916908315150217905550610830806101d36000396000f3fe608060405234801561001057600080fd5b506004361061004c5760003560e01c806325ad91ce146100515780632783879f1461007157806332eefcf514610091578063db8fd057146100b1575b600080fd5b6100596100d1565b60405180821515815260200191505060405180910390f35b6100796102ed565b60405180821515815260200191505060405180910390f35b6100996104dd565b60405180821515815260200191505060405180910390f35b6100b9610666565b60405180821515815260200191505060405180910390f35b60008073ffffffffffffffffffffffffffffffffffffffff16600360003373ffffffffffffffffffffffffffffffffffffffff1673ffffffffffffffffffffffffffffffffffffffff16815260200190815260200160002060000160009054906101000a900473ffffffffffffffffffffffffffffffffffffffff1673ffffffffffffffffffffffffffffffffffffffff161461016d57600080fd5b33600360003373ffffffffffffffffffffffffffffffffffffffff1673ffffffffffffffffffffffffffffffffffffffff16815260200190815260200160002060000160006101000a81548173ffffffffffffffffffffffffffffffffffffffff021916908373ffffffffffffffffffffffffffffffffffffffff1602179055506000600360003373ffffffffffffffffffffffffffffffffffffffff1673ffffffffffffffffffffffffffffffffffffffff16815260200190815260200160002060000160146101000a81548160ff0219169083151502179055506002339080600181540180825580915050600190039060005260206000200160009091909190916101000a81548173ffffffffffffffffffffffffffffffffffffffff021916908373ffffffffffffffffffffffffffffffffffffffff1602179055507f74aec394922f1e1a4f69076a402d938ff381675095bfa243b4ca0ddb157f3354600160405180821515815260200191505060405180910390a16001905090565b6000806000610331336040518060400160405280600481526020017f545553440000000000000000000000000000000000000000000000000000000081525061070d565b91509150600080610377336040518060400160405280600481526020017f555344430000000000000000000000000000000000000000000000000000000081525061070d565b915091506000806103bd336040518060400160405280600481526020017f555344540000000000000000000000000000000000000000000000000000000081525061070d565b91509150600080610403336040518060400160405280600381526020017f444149000000000000000000000000000000000000000000000000000000000081525061070d565b91509150600080610449336040518060400160405280600481526020017f425553440000000000000000000000000000000000000000000000000000000081525061070d565b915091507fcba97513dec0228148df1128e10872c5d5955a8002536c209bd915fdc7abe9888a8a8a8a8a8a8a8a8a8a604051808b81526020018a81526020018981526020018881526020018781526020018681526020018581526020018481526020018381526020018281526020019a505050505050505050505060405180910390a160019a505050505050505050505090565b6000600360003373ffffffffffffffffffffffffffffffffffffffff1673ffffffffffffffffffffffffffffffffffffffff16815260200190815260200160002060000160149054906101000a900460ff1615600360003373ffffffffffffffffffffffffffffffffffffffff1673ffffffffffffffffffffffffffffffffffffffff16815260200190815260200160002060000160146101000a81548160ff0219169083151502179055507f74aec394922f1e1a4f69076a402d938ff381675095bfa243b4ca0ddb157f3354600360003373ffffffffffffffffffffffffffffffffffffffff1673ffffffffffffffffffffffffffffffffffffffff16815260200190815260200160002060000160149054906101000a900460ff1660405180821515815260200191505060405180910390a1600360003373ffffffffffffffffffffffffffffffffffffffff1673ffffffffffffffffffffffffffffffffffffffff16815260200190815260200160002060000160149054906101000a900460ff16905090565b6000610670610725565b612710600054116106cc576040517f08c379a00000000000000000000000000000000000000000000000000000000081526004018080602001828103825260468152602001806107b56046913960600191505060405180910390fd5b7f74aec394922f1e1a4f69076a402d938ff381675095bfa243b4ca0ddb157f3354600160405180821515815260200191505060405180910390a16001905090565b600080610718610730565b6002915091509250929050565b6104ba600081905550565b6000806103844233600154604051602001808481526020018373ffffffffffffffffffffffffffffffffffffffff1660601b815260140182815260200193505050506040516020818303038152906040528051906020012060001c8161079257fe5b069050606581019050600160008154809291906001019190505550809150509056fe546865207472616e73616374696f6e207465726d696e61746564206265636175736520746865205455534420726174696f206973206e6f7420626967676572207468616e2031a26469706673582212208b2c9787e08c3218cc4efcc8cc0d9adb5254b6cd231693f2fe8a38ed38811d6564736f6c634300060c0033",
  "linkReferences": {},
  "deployedLinkReferences": {}
}