{
  "_format": "hh-sol-artifact-1",
  "contractName": "MockStableRatioSwap",
  "sourceName": "contracts/MockStableRatioSwap.sol",
  "abi": [
    {
      "inputs": [],
      "stateMutability": "nonpayable",
      "type": "constructor"
    },
    {
      "anonymous": false,
      "inputs": [
        {
          "indexed": false,
          "internalType": "uint256",
          "name": "tusd",
          "type": "uint256"
        },
        {
          "indexed": false,
          "internalType": "uint256",
          "name": "decimalsTusd",
          "type": "uint256"
        },
        {
          "indexed": false,
          "internalType": "uint256",
          "name": "usdc",
          "type": "uint256"
        },
        {
          "indexed": false,
          "internalType": "uint256",
          "name": "decimalsUsdc",
          "type": "uint256"
        },
        {
          "indexed": false,
          "internalType": "uint256",
          "name": "usdt",
          "type": "uint256"
        },
        {
          "indexed": false,
          "internalType": "uint256",
          "name": "decimalsUsdt",
          "type": "uint256"
        },
        {
          "indexed": false,
          "internalType": "uint256",
          "name": "dai",
          "type": "uint256"
        },
        {
          "indexed": false,
          "internalType": "uint256",
          "name": "decimalsDai",
          "type": "uint256"
        },
        {
          "indexed": false,
          "internalType": "uint256",
          "name": "busd",
          "type": "uint256"
        },
        {
          "indexed": false,
          "internalType": "uint256",
          "name": "decimalsBusd",
          "type": "uint256"
        }
      ],
      "name": "AllDeposits",
      "type": "event"
    },
    {
      "anonymous": false,
      "inputs": [
        {
          "indexed": false,
          "internalType": "bool",
          "name": "createUserStatus",
          "type": "bool"
        }
      ],
      "name": "CreateUser",
      "type": "event"
    },
    {
      "anonymous": false,
      "inputs": [
        {
          "indexed": false,
          "internalType": "bool",
          "name": "depositStatus",
          "type": "bool"
        }
      ],
      "name": "Deposit",
      "type": "event"
    },
    {
      "anonymous": false,
      "inputs": [
        {
          "indexed": false,
          "internalType": "bool",
          "name": "optInStatus",
          "type": "bool"
        }
      ],
      "name": "OptInToggle",
      "type": "event"
    },
    {
      "anonymous": false,
      "inputs": [
        {
          "indexed": false,
          "internalType": "bool",
          "name": "swapStatus",
          "type": "bool"
        }
      ],
      "name": "SwapStablecoinDeposit",
      "type": "event"
    },
    {
      "inputs": [],
      "name": "createUser",
      "outputs": [],
      "stateMutability": "nonpayable",
      "type": "function"
    },
    {
      "inputs": [
        {
          "internalType": "uint256",
          "name": "amount",
          "type": "uint256"
        },
        {
          "internalType": "string",
          "name": "tokenType",
          "type": "string"
        },
        {
          "internalType": "address",
          "name": "sender",
          "type": "address"
        }
      ],
      "name": "deposit",
      "outputs": [],
      "stateMutability": "nonpayable",
      "type": "function"
    },
    {
      "inputs": [],
      "name": "getAllStablecoinDeposits",
      "outputs": [],
      "stateMutability": "nonpayable",
      "type": "function"
    },
    {
      "inputs": [],
      "name": "optInToggle",
      "outputs": [],
      "stateMutability": "nonpayable",
      "type": "function"
    },
    {
      "inputs": [],
      "name": "swapStablecoinDeposit",
      "outputs": [],
      "stateMutability": "nonpayable",
      "type": "function"
    }
  ],
  "bytecode": "0x608060405234801561001057600080fd5b506001600460405180807f54555344000000000000000000000000000000000000000000000000000000008152506004019050908152602001604051809103902060006101000a81548160ff0219169083151502179055506001600460405180807f55534443000000000000000000000000000000000000000000000000000000008152506004019050908152602001604051809103902060006101000a81548160ff0219169083151502179055506001600460405180807f55534454000000000000000000000000000000000000000000000000000000008152506004019050908152602001604051809103902060006101000a81548160ff0219169083151502179055506001600460405180807f44414900000000000000000000000000000000000000000000000000000000008152506003019050908152602001604051809103902060006101000a81548160ff0219169083151502179055506001600460405180807f42555344000000000000000000000000000000000000000000000000000000008152506004019050908152602001604051809103902060006101000a81548160ff0219169083151502179055506109f5806101d36000396000f3fe608060405234801561001057600080fd5b50600436106100565760003560e01c8062393f2b1461005b57806325ad91ce146101405780632783879f1461014a57806332eefcf514610154578063db8fd0571461015e575b600080fd5b61013e6004803603606081101561007157600080fd5b81019080803590602001909291908035906020019064010000000081111561009857600080fd5b8201836020820111156100aa57600080fd5b803590602001918460018302840111640100000000831117156100cc57600080fd5b91908080601f016020809104026020016040519081016040528093929190818152602001838380828437600081840152601f19601f820116905080830192505050505050509192919290803573ffffffffffffffffffffffffffffffffffffffff169060200190929190505050610168565b005b610148610227565b005b610152610479565b005b61015c6106fe565b005b610166610832565b005b6004826040518082805190602001908083835b6020831061019e578051825260208201915060208101905060208303925061017b565b6001836020036101000a038019825116818451168082178552505050505050905001915050908152602001604051809103902060009054906101000a900460ff166101e857600080fd5b7f2d354a80b1f65295b913faea41925951cec9e35ea68a770d299ae65605767b49600160405180821515815260200191505060405180910390a1505050565b600073ffffffffffffffffffffffffffffffffffffffff16600360003373ffffffffffffffffffffffffffffffffffffffff1673ffffffffffffffffffffffffffffffffffffffff16815260200190815260200160002060000160009054906101000a900473ffffffffffffffffffffffffffffffffffffffff1673ffffffffffffffffffffffffffffffffffffffff16141561043c5733600360003373ffffffffffffffffffffffffffffffffffffffff1673ffffffffffffffffffffffffffffffffffffffff16815260200190815260200160002060000160006101000a81548173ffffffffffffffffffffffffffffffffffffffff021916908373ffffffffffffffffffffffffffffffffffffffff1602179055506000600360003373ffffffffffffffffffffffffffffffffffffffff1673ffffffffffffffffffffffffffffffffffffffff16815260200190815260200160002060000160146101000a81548160ff0219169083151502179055506002339080600181540180825580915050600190039060005260206000200160009091909190916101000a81548173ffffffffffffffffffffffffffffffffffffffff021916908373ffffffffffffffffffffffffffffffffffffffff1602179055507f2b865278e72421ded897b30277b72c654fe5b824c08eb97de6fabdeff85d55cc600160405180821515815260200191505060405180910390a1610477565b7f2b865278e72421ded897b30277b72c654fe5b824c08eb97de6fabdeff85d55cc600060405180821515815260200191505060405180910390a15b565b600073ffffffffffffffffffffffffffffffffffffffff16600360003373ffffffffffffffffffffffffffffffffffffffff1673ffffffffffffffffffffffffffffffffffffffff16815260200190815260200160002060000160009054906101000a900473ffffffffffffffffffffffffffffffffffffffff1673ffffffffffffffffffffffffffffffffffffffff16141561051557600080fd5b600080610557336040518060400160405280600481526020017f54555344000000000000000000000000000000000000000000000000000000008152506108d2565b9150915060008061059d336040518060400160405280600481526020017f55534443000000000000000000000000000000000000000000000000000000008152506108d2565b915091506000806105e3336040518060400160405280600481526020017f55534454000000000000000000000000000000000000000000000000000000008152506108d2565b91509150600080610629336040518060400160405280600381526020017f44414900000000000000000000000000000000000000000000000000000000008152506108d2565b9150915060008061066f336040518060400160405280600481526020017f42555344000000000000000000000000000000000000000000000000000000008152506108d2565b915091507f155b00305b2e5bdc0d6a3e34cf7ffbccdb1c25ab69c2059181928f6f61f2b4758a8a8a8a8a8a8a8a8a8a604051808b81526020018a81526020018981526020018881526020018781526020018681526020018581526020018481526020018381526020018281526020019a505050505050505050505060405180910390a150505050505050505050565b600360003373ffffffffffffffffffffffffffffffffffffffff1673ffffffffffffffffffffffffffffffffffffffff16815260200190815260200160002060000160149054906101000a900460ff1615600360003373ffffffffffffffffffffffffffffffffffffffff1673ffffffffffffffffffffffffffffffffffffffff16815260200190815260200160002060000160146101000a81548160ff0219169083151502179055507f7ebb6fb163dd741d0bc3e9634b5c5bef95a5519bc08ca96b0ec823b771b6481f600360003373ffffffffffffffffffffffffffffffffffffffff1673ffffffffffffffffffffffffffffffffffffffff16815260200190815260200160002060000160149054906101000a900460ff1660405180821515815260200191505060405180910390a1565b61083a6108ea565b61271060005411610896576040517f08c379a000000000000000000000000000000000000000000000000000000000815260040180806020018281038252604681526020018061097a6046913960600191505060405180910390fd5b7f1922d8bba2bcfcecd96e544352026b38e05680c5ca01efe52042fac8c549a56c600160405180821515815260200191505060405180910390a1565b6000806108dd6108f5565b6002915091509250929050565b613039600081905550565b6000806103844233600154604051602001808481526020018373ffffffffffffffffffffffffffffffffffffffff1660601b815260140182815260200193505050506040516020818303038152906040528051906020012060001c8161095757fe5b069050606581019050600160008154809291906001019190505550809150509056fe546865207472616e73616374696f6e207465726d696e61746564206265636175736520746865205455534420726174696f206973206e6f7420626967676572207468616e2031a26469706673582212208ba505058b058c98a20dc3464f833c1bf89f970af5154f2530a68121b7aba99564736f6c634300060c0033",
  "linkReferences": {},
  "deployedLinkReferences": {}
}