{
  "_format": "hh-sol-artifact-1",
  "contractName": "MockStableRatioSwap",
  "sourceName": "contracts/MockStableRatioSwap.sol",
  "abi": [
    {
      "inputs": [],
      "stateMutability": "nonpayable",
      "type": "constructor"
    },
    {
      "anonymous": false,
      "inputs": [
        {
          "indexed": false,
          "internalType": "bool",
          "name": "_bool",
          "type": "bool"
        }
      ],
      "name": "Bool",
      "type": "event"
    },
    {
      "anonymous": false,
      "inputs": [
        {
          "indexed": false,
          "internalType": "uint256",
          "name": "tusd",
          "type": "uint256"
        },
        {
          "indexed": false,
          "internalType": "uint256",
          "name": "decimalsTusd",
          "type": "uint256"
        },
        {
          "indexed": false,
          "internalType": "uint256",
          "name": "usdc",
          "type": "uint256"
        },
        {
          "indexed": false,
          "internalType": "uint256",
          "name": "decimalsUsdc",
          "type": "uint256"
        },
        {
          "indexed": false,
          "internalType": "uint256",
          "name": "usdt",
          "type": "uint256"
        },
        {
          "indexed": false,
          "internalType": "uint256",
          "name": "decimalsUsdt",
          "type": "uint256"
        },
        {
          "indexed": false,
          "internalType": "uint256",
          "name": "dai",
          "type": "uint256"
        },
        {
          "indexed": false,
          "internalType": "uint256",
          "name": "decimalsDai",
          "type": "uint256"
        },
        {
          "indexed": false,
          "internalType": "uint256",
          "name": "busd",
          "type": "uint256"
        },
        {
          "indexed": false,
          "internalType": "uint256",
          "name": "decimalsBusd",
          "type": "uint256"
        }
      ],
      "name": "Deposit",
      "type": "event"
    },
    {
      "inputs": [
        {
          "internalType": "address",
          "name": "_userAddress",
          "type": "address"
        }
      ],
      "name": "createUser",
      "outputs": [
        {
          "internalType": "bool",
          "name": "",
          "type": "bool"
        }
      ],
      "stateMutability": "nonpayable",
      "type": "function"
    },
    {
      "inputs": [],
      "name": "getAllStablecoinDeposits",
      "outputs": [
        {
          "internalType": "bool",
          "name": "",
          "type": "bool"
        }
      ],
      "stateMutability": "nonpayable",
      "type": "function"
    },
    {
      "inputs": [],
      "name": "optInToggle",
      "outputs": [
        {
          "internalType": "bool",
          "name": "",
          "type": "bool"
        }
      ],
      "stateMutability": "nonpayable",
      "type": "function"
    },
    {
      "inputs": [],
      "name": "swapStablecoinDeposit",
      "outputs": [
        {
          "internalType": "bool",
          "name": "",
          "type": "bool"
        }
      ],
      "stateMutability": "nonpayable",
      "type": "function"
    }
  ],
  "bytecode": "0x608060405234801561001057600080fd5b506001600360405180807f54555344000000000000000000000000000000000000000000000000000000008152506004019050908152602001604051809103902060006101000a81548160ff0219169083151502179055506001600360405180807f55534443000000000000000000000000000000000000000000000000000000008152506004019050908152602001604051809103902060006101000a81548160ff0219169083151502179055506001600360405180807f55534454000000000000000000000000000000000000000000000000000000008152506004019050908152602001604051809103902060006101000a81548160ff0219169083151502179055506001600360405180807f44414900000000000000000000000000000000000000000000000000000000008152506003019050908152602001604051809103902060006101000a81548160ff0219169083151502179055506001600360405180807f42555344000000000000000000000000000000000000000000000000000000008152506004019050908152602001604051809103902060006101000a81548160ff0219169083151502179055506107e1806101d36000396000f3fe608060405234801561001057600080fd5b506004361061004c5760003560e01c80632783879f1461005157806332eefcf514610071578063cdd8761814610091578063db8fd057146100eb575b600080fd5b61005961010b565b60405180821515815260200191505060405180910390f35b6100796102fb565b60405180821515815260200191505060405180910390f35b6100d3600480360360208110156100a757600080fd5b81019080803573ffffffffffffffffffffffffffffffffffffffff169060200190929190505050610484565b60405180821515815260200191505060405180910390f35b6100f36106a2565b60405180821515815260200191505060405180910390f35b600080600061014f336040518060400160405280600481526020017f5455534400000000000000000000000000000000000000000000000000000000815250610748565b91509150600080610195336040518060400160405280600481526020017f5553444300000000000000000000000000000000000000000000000000000000815250610748565b915091506000806101db336040518060400160405280600481526020017f5553445400000000000000000000000000000000000000000000000000000000815250610748565b91509150600080610221336040518060400160405280600381526020017f4441490000000000000000000000000000000000000000000000000000000000815250610748565b91509150600080610267336040518060400160405280600481526020017f4255534400000000000000000000000000000000000000000000000000000000815250610748565b915091507fcba97513dec0228148df1128e10872c5d5955a8002536c209bd915fdc7abe9888a8a8a8a8a8a8a8a8a8a604051808b81526020018a81526020018981526020018881526020018781526020018681526020018581526020018481526020018381526020018281526020019a505050505050505050505060405180910390a160019a505050505050505050505090565b6000600260003373ffffffffffffffffffffffffffffffffffffffff1673ffffffffffffffffffffffffffffffffffffffff16815260200190815260200160002060000160149054906101000a900460ff1615600260003373ffffffffffffffffffffffffffffffffffffffff1673ffffffffffffffffffffffffffffffffffffffff16815260200190815260200160002060000160146101000a81548160ff0219169083151502179055507f74aec394922f1e1a4f69076a402d938ff381675095bfa243b4ca0ddb157f3354600260003373ffffffffffffffffffffffffffffffffffffffff1673ffffffffffffffffffffffffffffffffffffffff16815260200190815260200160002060000160149054906101000a900460ff1660405180821515815260200191505060405180910390a1600260003373ffffffffffffffffffffffffffffffffffffffff1673ffffffffffffffffffffffffffffffffffffffff16815260200190815260200160002060000160149054906101000a900460ff16905090565b60008073ffffffffffffffffffffffffffffffffffffffff16600260003373ffffffffffffffffffffffffffffffffffffffff1673ffffffffffffffffffffffffffffffffffffffff16815260200190815260200160002060000160009054906101000a900473ffffffffffffffffffffffffffffffffffffffff1673ffffffffffffffffffffffffffffffffffffffff161461052057600080fd5b81600260003373ffffffffffffffffffffffffffffffffffffffff1673ffffffffffffffffffffffffffffffffffffffff16815260200190815260200160002060000160006101000a81548173ffffffffffffffffffffffffffffffffffffffff021916908373ffffffffffffffffffffffffffffffffffffffff1602179055506000600260003373ffffffffffffffffffffffffffffffffffffffff1673ffffffffffffffffffffffffffffffffffffffff16815260200190815260200160002060000160146101000a81548160ff0219169083151502179055506001339080600181540180825580915050600190039060005260206000200160009091909190916101000a81548173ffffffffffffffffffffffffffffffffffffffff021916908373ffffffffffffffffffffffffffffffffffffffff1602179055507f74aec394922f1e1a4f69076a402d938ff381675095bfa243b4ca0ddb157f3354600160405180821515815260200191505060405180910390a160019050919050565b60006106ac61075a565b600160005411610707576040517f08c379a00000000000000000000000000000000000000000000000000000000081526004018080602001828103825260468152602001806107666046913960600191505060405180910390fd5b7f74aec394922f1e1a4f69076a402d938ff381675095bfa243b4ca0ddb157f3354600160405180821515815260200191505060405180910390a16001905090565b60008060646002915091509250929050565b6104ba60008190555056fe546865207472616e73616374696f6e207465726d696e61746564206265636175736520746865205455534420726174696f206973206e6f7420626967676572207468616e2031a2646970667358221220f00549b665a4b46c89098d3a34640aabbc64cf42171101f59bed1adc59ea86a164736f6c634300060c0033",
  "linkReferences": {},
  "deployedLinkReferences": {}
}