{
  "_format": "hh-sol-artifact-1",
  "contractName": "StableRatioSwap",
  "sourceName": "contracts/StableRatioSwap.sol",
  "abi": [
    {
      "inputs": [],
      "stateMutability": "nonpayable",
      "type": "constructor"
    },
    {
      "inputs": [
        {
          "internalType": "address",
          "name": "pool",
          "type": "address"
        },
        {
          "internalType": "address",
          "name": "token",
          "type": "address"
        },
        {
          "internalType": "address",
          "name": "_owner",
          "type": "address"
        },
        {
          "internalType": "uint256",
          "name": "amount",
          "type": "uint256"
        }
      ],
      "name": "createUser",
      "outputs": [],
      "stateMutability": "nonpayable",
      "type": "function"
    },
    {
      "inputs": [
        {
          "internalType": "address",
          "name": "pool",
          "type": "address"
        },
        {
          "internalType": "address",
          "name": "token",
          "type": "address"
        },
        {
          "internalType": "address",
          "name": "user",
          "type": "address"
        },
        {
          "internalType": "uint256",
          "name": "amount",
          "type": "uint256"
        }
      ],
      "name": "deposit",
      "outputs": [],
      "stateMutability": "nonpayable",
      "type": "function"
    },
    {
      "inputs": [],
      "name": "getAllStablecoinDeposits",
      "outputs": [],
      "stateMutability": "nonpayable",
      "type": "function"
    },
    {
      "inputs": [],
      "name": "getAllUsers",
      "outputs": [
        {
          "internalType": "address[]",
          "name": "",
          "type": "address[]"
        }
      ],
      "stateMutability": "view",
      "type": "function"
    },
    {
      "inputs": [],
      "name": "optToggle",
      "outputs": [],
      "stateMutability": "nonpayable",
      "type": "function"
    },
    {
      "inputs": [],
      "name": "owner",
      "outputs": [
        {
          "internalType": "address",
          "name": "",
          "type": "address"
        }
      ],
      "stateMutability": "view",
      "type": "function"
    },
    {
      "inputs": [
        {
          "internalType": "uint256",
          "name": "",
          "type": "uint256"
        }
      ],
      "name": "userAddresses",
      "outputs": [
        {
          "internalType": "address",
          "name": "",
          "type": "address"
        }
      ],
      "stateMutability": "view",
      "type": "function"
    }
  ],
  "bytecode": "0x608060405234801561001057600080fd5b50336000806101000a81548173ffffffffffffffffffffffffffffffffffffffff021916908373ffffffffffffffffffffffffffffffffffffffff1602179055506107c9806100606000396000f3fe608060405234801561001057600080fd5b506004361061007d5760003560e01c80635e6bb0ae1161005b5780635e6bb0ae146100d85780638da5cb5b146100e2578063948b3a5f14610100578063e2842d791461011c5761007d565b80630284c3f5146100825780632783879f1461009e578063502c9bd5146100a8575b600080fd5b61009c60048036038101906100979190610510565b61013a565b005b6100a66101b2565b005b6100c260048036038101906100bd9190610573565b6101b4565b6040516100cf919061064e565b60405180910390f35b6100e06101f0565b005b6100ea61029c565b6040516100f7919061064e565b60405180910390f35b61011a60048036038101906101159190610510565b6102c0565b005b610124610458565b60405161013191906106ae565b60405180910390f35b8373ffffffffffffffffffffffffffffffffffffffff1663e8eda9df84838560006040518563ffffffff1660e01b815260040161017a9493929190610669565b600060405180830381600087803b15801561019457600080fd5b505af11580156101a8573d6000803e3d6000fd5b5050505050505050565b565b600181815481106101c157fe5b906000526020600020016000915054906101000a900473ffffffffffffffffffffffffffffffffffffffff1681565b600260003373ffffffffffffffffffffffffffffffffffffffff1673ffffffffffffffffffffffffffffffffffffffff16815260200190815260200160002060020160009054906101000a900460ff1615600260003373ffffffffffffffffffffffffffffffffffffffff1673ffffffffffffffffffffffffffffffffffffffff16815260200190815260200160002060020160006101000a81548160ff021916908315150217905550565b60008054906101000a900473ffffffffffffffffffffffffffffffffffffffff1681565b81600260003373ffffffffffffffffffffffffffffffffffffffff1673ffffffffffffffffffffffffffffffffffffffff16815260200190815260200160002060000160006101000a81548173ffffffffffffffffffffffffffffffffffffffff021916908373ffffffffffffffffffffffffffffffffffffffff16021790555080600260003373ffffffffffffffffffffffffffffffffffffffff1673ffffffffffffffffffffffffffffffffffffffff168152602001908152602001600020600101819055506000600260003373ffffffffffffffffffffffffffffffffffffffff1673ffffffffffffffffffffffffffffffffffffffff16815260200190815260200160002060020160006101000a81548160ff0219169083151502179055506001339080600181540180825580915050600190039060005260206000200160009091909190916101000a81548173ffffffffffffffffffffffffffffffffffffffff021916908373ffffffffffffffffffffffffffffffffffffffff1602179055506104528484848461013a565b50505050565b606060018054806020026020016040519081016040528092919081815260200182805480156104dc57602002820191906000526020600020905b8160009054906101000a900473ffffffffffffffffffffffffffffffffffffffff1673ffffffffffffffffffffffffffffffffffffffff1681526020019060010190808311610492575b5050505050905090565b6000813590506104f581610765565b92915050565b60008135905061050a8161077c565b92915050565b6000806000806080858703121561052657600080fd5b6000610534878288016104e6565b9450506020610545878288016104e6565b9350506040610556878288016104e6565b9250506060610567878288016104fb565b91505092959194509250565b60006020828403121561058557600080fd5b6000610593848285016104fb565b91505092915050565b60006105a883836105b4565b60208301905092915050565b6105bd81610709565b82525050565b6105cc81610709565b82525050565b60006105dd826106e0565b6105e781856106f8565b93506105f2836106d0565b8060005b8381101561062357815161060a888261059c565b9750610615836106eb565b9250506001810190506105f6565b5085935050505092915050565b61063981610753565b82525050565b61064881610749565b82525050565b600060208201905061066360008301846105c3565b92915050565b600060808201905061067e60008301876105c3565b61068b602083018661063f565b61069860408301856105c3565b6106a56060830184610630565b95945050505050565b600060208201905081810360008301526106c881846105d2565b905092915050565b6000819050602082019050919050565b600081519050919050565b6000602082019050919050565b600082825260208201905092915050565b600061071482610729565b9050919050565b600061ffff82169050919050565b600073ffffffffffffffffffffffffffffffffffffffff82169050919050565b6000819050919050565b600061075e8261071b565b9050919050565b61076e81610709565b811461077957600080fd5b50565b61078581610749565b811461079057600080fd5b5056fea2646970667358221220a75eb9215c49a11a3e79f905e64ee0d5da2c7fde24f3f497cf08c7607360f2a564736f6c634300060c0033",
  "linkReferences": {},
  "deployedLinkReferences": {}
}