{
  "_format": "hh-sol-artifact-1",
  "contractName": "StableRatioSwap",
  "sourceName": "contracts/StableRatioSwap.sol",
  "abi": [
    {
      "inputs": [],
      "stateMutability": "nonpayable",
      "type": "constructor"
    },
    {
      "anonymous": false,
      "inputs": [
        {
          "indexed": false,
          "internalType": "uint256",
          "name": "tusd",
          "type": "uint256"
        },
        {
          "indexed": false,
          "internalType": "uint256",
          "name": "usdc",
          "type": "uint256"
        },
        {
          "indexed": false,
          "internalType": "uint256",
          "name": "usdt",
          "type": "uint256"
        },
        {
          "indexed": false,
          "internalType": "uint256",
          "name": "dai",
          "type": "uint256"
        },
        {
          "indexed": false,
          "internalType": "uint256",
          "name": "busd",
          "type": "uint256"
        }
      ],
      "name": "Deposit",
      "type": "event"
    },
    {
      "inputs": [
        {
          "internalType": "address",
          "name": "_userAddress",
          "type": "address"
        },
        {
          "internalType": "uint256",
          "name": "amount",
          "type": "uint256"
        }
      ],
      "name": "createUser",
      "outputs": [],
      "stateMutability": "nonpayable",
      "type": "function"
    },
    {
      "inputs": [
        {
          "internalType": "address",
          "name": "userAddress",
          "type": "address"
        },
        {
          "internalType": "uint256",
          "name": "amount",
          "type": "uint256"
        }
      ],
      "name": "deposit",
      "outputs": [],
      "stateMutability": "nonpayable",
      "type": "function"
    },
    {
      "inputs": [],
      "name": "getAllStablecoinDeposits",
      "outputs": [],
      "stateMutability": "nonpayable",
      "type": "function"
    },
    {
      "inputs": [],
      "name": "getAllUsers",
      "outputs": [
        {
          "internalType": "address[]",
          "name": "",
          "type": "address[]"
        }
      ],
      "stateMutability": "view",
      "type": "function"
    },
    {
      "inputs": [],
      "name": "optToggle",
      "outputs": [],
      "stateMutability": "nonpayable",
      "type": "function"
    },
    {
      "inputs": [],
      "name": "owner",
      "outputs": [
        {
          "internalType": "address",
          "name": "",
          "type": "address"
        }
      ],
      "stateMutability": "view",
      "type": "function"
    },
    {
      "inputs": [
        {
          "internalType": "uint256",
          "name": "",
          "type": "uint256"
        }
      ],
      "name": "userAddresses",
      "outputs": [
        {
          "internalType": "address",
          "name": "",
          "type": "address"
        }
      ],
      "stateMutability": "view",
      "type": "function"
    }
  ],
  "bytecode": "0x608060405234801561001057600080fd5b50336000806101000a81548173ffffffffffffffffffffffffffffffffffffffff021916908373ffffffffffffffffffffffffffffffffffffffff160217905550610b19806100606000396000f3fe608060405234801561001057600080fd5b506004361061007d5760003560e01c80635e6bb0ae1161005b5780635e6bb0ae146100d85780638da5cb5b146100e257806393dfc8eb14610100578063e2842d791461011c5761007d565b80632783879f1461008257806347e7ef241461008c578063502c9bd5146100a8575b600080fd5b61008a61013a565b005b6100a660048036038101906100a1919061066c565b61013c565b005b6100c260048036038101906100bd91906106d1565b610272565b6040516100cf919061089e565b60405180910390f35b6100e06102ae565b005b6100ea61035a565b6040516100f7919061089e565b60405180910390f35b61011a6004803603810190610115919061066c565b61037e565b005b61012461059f565b60405161013191906108b9565b60405180910390f35b565b60006002336040516020016101519190610861565b60405160208183030381529060405260405161016d9190610887565b602060405180830381855afa15801561018a573d6000803e3d6000fd5b5050506040513d601f19601f820116820180604052508101906101ad91906106a8565b60601c905060006002336040516020016101c79190610861565b6040516020818303038152906040526040516101e39190610887565b602060405180830381855afa158015610200573d6000803e3d6000fd5b5050506040513d601f19601f8201168201806040525081019061022391906106a8565b60601c90507f429ca5f64e18925b7c661f0901b31c18f8ebc5de6aeb8dc059e5b96d8fe8957e600160026003600460056040516102649594939291906108db565b60405180910390a150505050565b6001818154811061027f57fe5b906000526020600020016000915054906101000a900473ffffffffffffffffffffffffffffffffffffffff1681565b600260003373ffffffffffffffffffffffffffffffffffffffff1673ffffffffffffffffffffffffffffffffffffffff16815260200190815260200160002060020160009054906101000a900460ff1615600260003373ffffffffffffffffffffffffffffffffffffffff1673ffffffffffffffffffffffffffffffffffffffff16815260200190815260200160002060020160006101000a81548160ff021916908315150217905550565b60008054906101000a900473ffffffffffffffffffffffffffffffffffffffff1681565b600073ffffffffffffffffffffffffffffffffffffffff16600260003373ffffffffffffffffffffffffffffffffffffffff1673ffffffffffffffffffffffffffffffffffffffff16815260200190815260200160002060000160009054906101000a900473ffffffffffffffffffffffffffffffffffffffff1673ffffffffffffffffffffffffffffffffffffffff161461059b5781600260003373ffffffffffffffffffffffffffffffffffffffff1673ffffffffffffffffffffffffffffffffffffffff16815260200190815260200160002060000160006101000a81548173ffffffffffffffffffffffffffffffffffffffff021916908373ffffffffffffffffffffffffffffffffffffffff16021790555080600260003373ffffffffffffffffffffffffffffffffffffffff1673ffffffffffffffffffffffffffffffffffffffff168152602001908152602001600020600101819055506000600260003373ffffffffffffffffffffffffffffffffffffffff1673ffffffffffffffffffffffffffffffffffffffff16815260200190815260200160002060020160006101000a81548160ff0219169083151502179055506001339080600181540180825580915050600190039060005260206000200160009091909190916101000a81548173ffffffffffffffffffffffffffffffffffffffff021916908373ffffffffffffffffffffffffffffffffffffffff1602179055505b5050565b6060600180548060200260200160405190810160405280929190818152602001828054801561062357602002820191906000526020600020905b8160009054906101000a900473ffffffffffffffffffffffffffffffffffffffff1673ffffffffffffffffffffffffffffffffffffffff16815260200190600101908083116105d9575b5050505050905090565b60008135905061063c81610a9e565b92915050565b60008151905061065181610ab5565b92915050565b60008135905061066681610acc565b92915050565b6000806040838503121561067f57600080fd5b600061068d8582860161062d565b925050602061069e85828601610657565b9150509250929050565b6000602082840312156106ba57600080fd5b60006106c884828501610642565b91505092915050565b6000602082840312156106e357600080fd5b60006106f184828501610657565b91505092915050565b60006107068383610729565b60208301905092915050565b61072361071e8261099a565b610a6d565b82525050565b61073281610988565b82525050565b61074181610988565b82525050565b60006107528261093e565b61075c8185610961565b93506107678361092e565b8060005b8381101561079857815161077f88826106fa565b975061078a83610954565b92505060018101905061076b565b5085935050505092915050565b60006107b082610949565b6107ba8185610972565b93506107ca818560208601610a3a565b80840191505092915050565b6107df816109e0565b82525050565b6107ee816109f2565b82525050565b6107fd81610a04565b82525050565b61080c81610a16565b82525050565b61081b81610a28565b82525050565b600061082e600f8361097d565b91507f626c6f636b2e74696d657374616d7000000000000000000000000000000000006000830152600f82019050919050565b600061086d8284610712565b60148201915061087c82610821565b915081905092915050565b600061089382846107a5565b915081905092915050565b60006020820190506108b36000830184610738565b92915050565b600060208201905081810360008301526108d38184610747565b905092915050565b600060a0820190506108f060008301886107d6565b6108fd60208301876107e5565b61090a60408301866107f4565b6109176060830185610803565b6109246080830184610812565b9695505050505050565b6000819050602082019050919050565b600081519050919050565b600081519050919050565b6000602082019050919050565b600082825260208201905092915050565b600081905092915050565b600081905092915050565b6000610993826109b6565b9050919050565b60006109a5826109b6565b9050919050565b6000819050919050565b600073ffffffffffffffffffffffffffffffffffffffff82169050919050565b6000819050919050565b60006109eb826109d6565b9050919050565b60006109fd826109d6565b9050919050565b6000610a0f826109d6565b9050919050565b6000610a21826109d6565b9050919050565b6000610a33826109d6565b9050919050565b60005b83811015610a58578082015181840152602081019050610a3d565b83811115610a67576000848401525b50505050565b6000610a7882610a7f565b9050919050565b6000610a8a82610a91565b9050919050565b60008160601b9050919050565b610aa781610988565b8114610ab257600080fd5b50565b610abe816109ac565b8114610ac957600080fd5b50565b610ad5816109d6565b8114610ae057600080fd5b5056fea26469706673582212202d72f0f637e6f2d00f8d56f136a3e087d48eb38e11c4516de6dbcc4ff55fc9db64736f6c634300060c0033",
  "linkReferences": {},
  "deployedLinkReferences": {}
}