{
  "_format": "hh-sol-artifact-1",
  "contractName": "StableRatioSwap",
  "sourceName": "contracts/StableRatioSwap.sol",
  "abi": [
    {
      "inputs": [],
      "stateMutability": "nonpayable",
      "type": "constructor"
    },
    {
      "anonymous": false,
      "inputs": [
        {
          "indexed": true,
          "internalType": "bytes32",
          "name": "id",
          "type": "bytes32"
        }
      ],
      "name": "ChainlinkCancelled",
      "type": "event"
    },
    {
      "anonymous": false,
      "inputs": [
        {
          "indexed": true,
          "internalType": "bytes32",
          "name": "id",
          "type": "bytes32"
        }
      ],
      "name": "ChainlinkFulfilled",
      "type": "event"
    },
    {
      "anonymous": false,
      "inputs": [
        {
          "indexed": true,
          "internalType": "bytes32",
          "name": "id",
          "type": "bytes32"
        }
      ],
      "name": "ChainlinkRequested",
      "type": "event"
    },
    {
      "anonymous": false,
      "inputs": [
        {
          "indexed": false,
          "internalType": "uint256",
          "name": "tusd",
          "type": "uint256"
        },
        {
          "indexed": false,
          "internalType": "uint256",
          "name": "usdc",
          "type": "uint256"
        },
        {
          "indexed": false,
          "internalType": "uint256",
          "name": "usdt",
          "type": "uint256"
        },
        {
          "indexed": false,
          "internalType": "uint256",
          "name": "dai",
          "type": "uint256"
        },
        {
          "indexed": false,
          "internalType": "uint256",
          "name": "busd",
          "type": "uint256"
        }
      ],
      "name": "Deposit",
      "type": "event"
    },
    {
      "inputs": [
        {
          "internalType": "address",
          "name": "_userAddress",
          "type": "address"
        }
      ],
      "name": "createUser",
      "outputs": [],
      "stateMutability": "nonpayable",
      "type": "function"
    },
    {
      "inputs": [
        {
          "internalType": "uint256",
          "name": "amount",
          "type": "uint256"
        },
        {
          "internalType": "string",
          "name": "tokenType",
          "type": "string"
        }
      ],
      "name": "deposit",
      "outputs": [],
      "stateMutability": "nonpayable",
      "type": "function"
    },
    {
      "inputs": [],
      "name": "getAllStablecoinDeposits",
      "outputs": [],
      "stateMutability": "nonpayable",
      "type": "function"
    },
    {
      "inputs": [],
      "name": "getAllUsers",
      "outputs": [
        {
          "internalType": "address[]",
          "name": "",
          "type": "address[]"
        }
      ],
      "stateMutability": "view",
      "type": "function"
    },
    {
      "inputs": [
        {
          "internalType": "bytes32",
          "name": "_requestID",
          "type": "bytes32"
        },
        {
          "internalType": "uint256",
          "name": "_ratio",
          "type": "uint256"
        }
      ],
      "name": "getTUSDRatio",
      "outputs": [],
      "stateMutability": "nonpayable",
      "type": "function"
    },
    {
      "inputs": [],
      "name": "optToggle",
      "outputs": [],
      "stateMutability": "nonpayable",
      "type": "function"
    },
    {
      "inputs": [],
      "name": "requestTUSDRatio",
      "outputs": [],
      "stateMutability": "nonpayable",
      "type": "function"
    },
    {
      "inputs": [],
      "name": "swapStablecoinDeposit",
      "outputs": [],
      "stateMutability": "nonpayable",
      "type": "function"
    }
  ],
  "bytecode": "0x608060405260016004553480156200001657600080fd5b5033600760006101000a81548173ffffffffffffffffffffffffffffffffffffffff021916908373ffffffffffffffffffffffffffffffffffffffff1602179055506001600d6040516200006a90620002e9565b908152602001604051809103902060006101000a81548160ff0219169083151502179055506001600d604051620000a19062000317565b908152602001604051809103902060006101000a81548160ff0219169083151502179055506001600d604051620000d890620002d2565b908152602001604051809103902060006101000a81548160ff0219169083151502179055506001600d6040516200010f9062000300565b908152602001604051809103902060006101000a81548160ff0219169083151502179055506001600d6040516200014690620002bb565b908152602001604051809103902060006101000a81548160ff02191690831515021790555062000339565b6000620001806004836200032e565b91507f42555344000000000000000000000000000000000000000000000000000000006000830152600482019050919050565b6000620001c26004836200032e565b91507f55534454000000000000000000000000000000000000000000000000000000006000830152600482019050919050565b6000620002046004836200032e565b91507f54555344000000000000000000000000000000000000000000000000000000006000830152600482019050919050565b6000620002466003836200032e565b91507f44414900000000000000000000000000000000000000000000000000000000006000830152600382019050919050565b6000620002886004836200032e565b91507f55534443000000000000000000000000000000000000000000000000000000006000830152600482019050919050565b6000620002c88262000171565b9150819050919050565b6000620002df82620001b3565b9150819050919050565b6000620002f682620001f5565b9150819050919050565b60006200030d8262000237565b9150819050919050565b6000620003248262000279565b9150819050919050565b600081905092915050565b612fc180620003496000396000f3fe608060405234801561001057600080fd5b50600436106100885760003560e01c8063cdd876181161005b578063cdd87618146100c7578063db8fd057146100e3578063e2842d79146100ed578063f1215d251461010b57610088565b806306791a561461008d5780632783879f146100a95780632842c15d146100b35780635e6bb0ae146100bd575b600080fd5b6100a760048036038101906100a29190612119565b610127565b005b6100b1610238565b005b6100bb6103cd565b005b6100c5610433565b005b6100e160048036038101906100dc91906120c7565b6104df565b005b6100eb6106bc565b005b6100f5610cfa565b6040516101029190612a0d565b60405180910390f35b61012560048036038101906101209190612155565b610d88565b005b816005600082815260200190815260200160002060009054906101000a900473ffffffffffffffffffffffffffffffffffffffff1673ffffffffffffffffffffffffffffffffffffffff163373ffffffffffffffffffffffffffffffffffffffff16146101c9576040517f08c379a00000000000000000000000000000000000000000000000000000000081526004016101c090612b9b565b60405180910390fd5b6005600082815260200190815260200160002060006101000a81549073ffffffffffffffffffffffffffffffffffffffff0219169055807f7cc135e0cebb02c3480ae5d74d377283180a2601f8f644edf7987b009316c63a60405160405180910390a281600681905550505050565b6000610279336040518060400160405280600481526020017f545553440000000000000000000000000000000000000000000000000000000081525061124b565b905060006102bc336040518060400160405280600481526020017f555344430000000000000000000000000000000000000000000000000000000081525061124b565b905060006102ff336040518060400160405280600481526020017f555344540000000000000000000000000000000000000000000000000000000081525061124b565b90506000610342336040518060400160405280600381526020017f444149000000000000000000000000000000000000000000000000000000000081525061124b565b90506000610385336040518060400160405280600481526020017f425553440000000000000000000000000000000000000000000000000000000081525061124b565b90507f429ca5f64e18925b7c661f0901b31c18f8ebc5de6aeb8dc059e5b96d8fe8957e85858585856040516103be959493929190612c0e565b60405180910390a15050505050565b6103d5611f6e565b6104077f3335653134646264343930663465336239666265393262383562333264393861306306791a5660e01b611364565b905061042f73fc153f49e74711c3140ca06bfacf42ffdc492a1782662386f26fc10000611395565b5050565b600960003373ffffffffffffffffffffffffffffffffffffffff1673ffffffffffffffffffffffffffffffffffffffff16815260200190815260200160002060000160149054906101000a900460ff1615600960003373ffffffffffffffffffffffffffffffffffffffff1673ffffffffffffffffffffffffffffffffffffffff16815260200190815260200160002060000160146101000a81548160ff021916908315150217905550565b600073ffffffffffffffffffffffffffffffffffffffff16600960003373ffffffffffffffffffffffffffffffffffffffff1673ffffffffffffffffffffffffffffffffffffffff16815260200190815260200160002060000160009054906101000a900473ffffffffffffffffffffffffffffffffffffffff1673ffffffffffffffffffffffffffffffffffffffff161461057a57600080fd5b80600960003373ffffffffffffffffffffffffffffffffffffffff1673ffffffffffffffffffffffffffffffffffffffff16815260200190815260200160002060000160006101000a81548173ffffffffffffffffffffffffffffffffffffffff021916908373ffffffffffffffffffffffffffffffffffffffff1602179055506000600960003373ffffffffffffffffffffffffffffffffffffffff1673ffffffffffffffffffffffffffffffffffffffff16815260200190815260200160002060000160146101000a81548160ff0219169083151502179055506008339080600181540180825580915050600190039060005260206000200160009091909190916101000a81548173ffffffffffffffffffffffffffffffffffffffff021916908373ffffffffffffffffffffffffffffffffffffffff16021790555050565b606060006106c861155f565b80925081935050506060600567ffffffffffffffff811180156106ea57600080fd5b506040519080825280602002602001820160405280156107195781602001602082028036833780820191505090505b50905060018160008151811061072b57fe5b60200260200101818152505060018160018151811061074657fe5b60200260200101818152505060018160028151811061076157fe5b60200260200101818152505060018160038151811061077c57fe5b60200260200101818152505060018160048151811061079757fe5b60200260200101818152505060005b600880549050811015610cf45760008060008060006107fb600887815481106107cb57fe5b9060005260206000200160009054906101000a900473ffffffffffffffffffffffffffffffffffffffff16611c37565b80955081965082975083985084995050505050506060600567ffffffffffffffff8111801561082957600080fd5b506040519080825280602002602001820160405280156108585781602001602082028036833780820191505090505b509050858160008151811061086957fe5b602002602001018181525050848160018151811061088357fe5b602002602001018181525050838160028151811061089d57fe5b60200260200101818152505082816003815181106108b757fe5b60200260200101818152505081816004815181106108d157fe5b6020026020010181815250506060600567ffffffffffffffff811180156108f757600080fd5b506040519080825280602002602001820160405280156109265781602001602082028036833780820191505090505b509050600a604051610937906127ce565b908152602001604051809103902060009054906101000a900473ffffffffffffffffffffffffffffffffffffffff168160008151811061097357fe5b602002602001019073ffffffffffffffffffffffffffffffffffffffff16908173ffffffffffffffffffffffffffffffffffffffff1681525050600a6040516109bb906127f8565b908152602001604051809103902060009054906101000a900473ffffffffffffffffffffffffffffffffffffffff16816001815181106109f757fe5b602002602001019073ffffffffffffffffffffffffffffffffffffffff16908173ffffffffffffffffffffffffffffffffffffffff1681525050600a604051610a3f906127b9565b908152602001604051809103902060009054906101000a900473ffffffffffffffffffffffffffffffffffffffff1681600281518110610a7b57fe5b602002602001019073ffffffffffffffffffffffffffffffffffffffff16908173ffffffffffffffffffffffffffffffffffffffff1681525050600a604051610ac3906127e3565b908152602001604051809103902060009054906101000a900473ffffffffffffffffffffffffffffffffffffffff1681600381518110610aff57fe5b602002602001019073ffffffffffffffffffffffffffffffffffffffff16908173ffffffffffffffffffffffffffffffffffffffff1681525050600a604051610b47906127a4565b908152602001604051809103902060009054906101000a900473ffffffffffffffffffffffffffffffffffffffff1681600481518110610b8357fe5b602002602001019073ffffffffffffffffffffffffffffffffffffffff16908173ffffffffffffffffffffffffffffffffffffffff16815250506060604051806020016040528060008152509050600060088a81548110610be057fe5b9060005260206000200160009054906101000a900473ffffffffffffffffffffffffffffffffffffffff169050600c60009054906101000a900473ffffffffffffffffffffffffffffffffffffffff1673ffffffffffffffffffffffffffffffffffffffff1663ab9c4b5d60088c81548110610c5857fe5b9060005260206000200160009054906101000a900473ffffffffffffffffffffffffffffffffffffffff1685878f868860006040518863ffffffff1660e01b8152600401610cac9796959493929190612851565b600060405180830381600087803b158015610cc657600080fd5b505af1158015610cda573d6000803e3d6000fd5b5050505050505050505050505080806001019150506107a6565b50505050565b60606008805480602002602001604051908101604052809291908181526020018280548015610d7e57602002820191906000526020600020905b8160009054906101000a900473ffffffffffffffffffffffffffffffffffffffff1673ffffffffffffffffffffffffffffffffffffffff1681526020019060010190808311610d34575b5050505050905090565b600d81604051610d98919061278d565b908152602001604051809103902060009054906101000a900460ff16610dbd57600080fd5b6000600a82604051610dcf919061278d565b908152602001604051809103902060009054906101000a900473ffffffffffffffffffffffffffffffffffffffff1690508073ffffffffffffffffffffffffffffffffffffffff1663095ea7b3600b60009054906101000a900473ffffffffffffffffffffffffffffffffffffffff16856040518363ffffffff1660e01b8152600401610e5d9291906128dc565b602060405180830381600087803b158015610e7757600080fd5b505af1158015610e8b573d6000803e3d6000fd5b505050506040513d601f19601f82011682018060405250810190610eaf91906120f0565b610eb857600080fd5b600c60009054906101000a900473ffffffffffffffffffffffffffffffffffffffff1673ffffffffffffffffffffffffffffffffffffffff1663e8eda9df82853360006040518563ffffffff1660e01b8152600401610f1a9493929190612905565b600060405180830381600087803b158015610f3457600080fd5b505af1158015610f48573d6000803e3d6000fd5b50505050604051602001610f5b906127ce565b6040516020818303038152906040528051906020012082604051602001610f82919061278d565b604051602081830303815290604052805190602001201415610fe4577f429ca5f64e18925b7c661f0901b31c18f8ebc5de6aeb8dc059e5b96d8fe8957e83600080600080604051610fd7959493929190612bbb565b60405180910390a1611246565b604051602001610ff3906127f8565b604051602081830303815290604052805190602001208260405160200161101a919061278d565b60405160208183030381529060405280519060200120141561107d577f429ca5f64e18925b7c661f0901b31c18f8ebc5de6aeb8dc059e5b96d8fe8957e6000846000806000604051611070959493929190612b28565b60405180910390a1611245565b60405160200161108c906127b9565b60405160208183030381529060405280519060200120826040516020016110b3919061278d565b604051602081830303815290604052805190602001201415611115577f429ca5f64e18925b7c661f0901b31c18f8ebc5de6aeb8dc059e5b96d8fe8957e60008085600080604051611108959493929190612ad5565b60405180910390a1611244565b604051602001611124906127e3565b604051602081830303815290604052805190602001208260405160200161114b919061278d565b6040516020818303038152906040528051906020012014156111ae577f429ca5f64e18925b7c661f0901b31c18f8ebc5de6aeb8dc059e5b96d8fe8957e60008060008660006040516111a1959493929190612a82565b60405180910390a1611243565b6040516020016111bd906127a4565b60405160208183030381529060405280519060200120826040516020016111e4919061278d565b604051602081830303815290604052805190602001201415611242577f429ca5f64e18925b7c661f0901b31c18f8ebc5de6aeb8dc059e5b96d8fe8957e60008060008087604051611239959493929190612a2f565b60405180910390a15b5b5b5b5b505050565b600080600a8360405161125e919061278d565b908152602001604051809103902060009054906101000a900473ffffffffffffffffffffffffffffffffffffffff1690506000733c73a5e5785cac854d468f727c606c07488a29d673ffffffffffffffffffffffffffffffffffffffff166328dd2d0183876040518363ffffffff1660e01b81526004016112e0929190612828565b6101206040518083038186803b1580156112f957600080fd5b505afa15801561130d573d6000803e3d6000fd5b505050506040513d601f19601f820116820180604052508101906113319190612284565b90919293949596509091929394955090919293945090919293509091925090915090505080915050809250505092915050565b61136c611f6e565b611374611f6e565b61138b85858584611daa909392919063ffffffff16565b9150509392505050565b6000306004546040516020016113ac929190612761565b604051602081830303815290604052805190602001209050600454836060018181525050836005600083815260200190815260200160002060006101000a81548173ffffffffffffffffffffffffffffffffffffffff021916908373ffffffffffffffffffffffffffffffffffffffff160217905550807fb5e6e01e79f91267dc17b4e6314d5d4d03593d2ceee0fbb452b750bd70ea5af960405160405180910390a2600260009054906101000a900473ffffffffffffffffffffffffffffffffffffffff1673ffffffffffffffffffffffffffffffffffffffff16634000aea0858461149887611e5a565b6040518463ffffffff1660e01b81526004016114b6939291906129cf565b602060405180830381600087803b1580156114d057600080fd5b505af11580156114e4573d6000803e3d6000fd5b505050506040513d601f19601f8201168201806040525081019061150891906120f0565b611547576040517f08c379a000000000000000000000000000000000000000000000000000000000815260040161153e90612b7b565b60405180910390fd5b60016004600082825401925050819055509392505050565b606060008060009050600060606040518060400160405280600481526020017f54555344000000000000000000000000000000000000000000000000000000008152509050733c73a5e5785cac854d468f727c606c07488a29d673ffffffffffffffffffffffffffffffffffffffff166335ea6a75600a6040516115e2906127ce565b908152602001604051809103902060009054906101000a900473ffffffffffffffffffffffffffffffffffffffff166040518263ffffffff1660e01b815260040161162d919061280d565b6101406040518083038186803b15801561164657600080fd5b505afa15801561165a573d6000803e3d6000fd5b505050506040513d601f19601f8201168201806040525081019061167e91906121a9565b909192939495969798509091929394959697509091929394959650909192939450909192935090919250909150905050809250506116bc8383611f01565b9250733c73a5e5785cac854d468f727c606c07488a29d673ffffffffffffffffffffffffffffffffffffffff166335ea6a75600a6040516116fc906127f8565b908152602001604051809103902060009054906101000a900473ffffffffffffffffffffffffffffffffffffffff166040518263ffffffff1660e01b8152600401611747919061280d565b6101406040518083038186803b15801561176057600080fd5b505afa158015611774573d6000803e3d6000fd5b505050506040513d601f19601f8201168201806040525081019061179891906121a9565b909192939495969798509091929394959697509091929394959650909192939450909192935090919250909150905050809250506117d68383611f01565b925081831415611819576040518060400160405280600481526020017f555344430000000000000000000000000000000000000000000000000000000081525090505b733c73a5e5785cac854d468f727c606c07488a29d673ffffffffffffffffffffffffffffffffffffffff166335ea6a75600a604051611857906127b9565b908152602001604051809103902060009054906101000a900473ffffffffffffffffffffffffffffffffffffffff166040518263ffffffff1660e01b81526004016118a2919061280d565b6101406040518083038186803b1580156118bb57600080fd5b505afa1580156118cf573d6000803e3d6000fd5b505050506040513d601f19601f820116820180604052508101906118f391906121a9565b909192939495969798509091929394959697509091929394959650909192939450909192935090919250909150905050809250506119318383611f01565b925081831415611974576040518060400160405280600481526020017f555344540000000000000000000000000000000000000000000000000000000081525090505b733c73a5e5785cac854d468f727c606c07488a29d673ffffffffffffffffffffffffffffffffffffffff166335ea6a75600a6040516119b2906127e3565b908152602001604051809103902060009054906101000a900473ffffffffffffffffffffffffffffffffffffffff166040518263ffffffff1660e01b81526004016119fd919061280d565b6101406040518083038186803b158015611a1657600080fd5b505afa158015611a2a573d6000803e3d6000fd5b505050506040513d601f19601f82011682018060405250810190611a4e91906121a9565b90919293949596979850909192939495969750909192939495965090919293945090919293509091925090915090505080925050611a8c8383611f01565b925081831415611acf576040518060400160405280600381526020017f444149000000000000000000000000000000000000000000000000000000000081525090505b733c73a5e5785cac854d468f727c606c07488a29d673ffffffffffffffffffffffffffffffffffffffff166335ea6a75600a604051611b0d906127a4565b908152602001604051809103902060009054906101000a900473ffffffffffffffffffffffffffffffffffffffff166040518263ffffffff1660e01b8152600401611b58919061280d565b6101406040518083038186803b158015611b7157600080fd5b505afa158015611b85573d6000803e3d6000fd5b505050506040513d601f19601f82011682018060405250810190611ba991906121a9565b90919293949596979850909192939495969750909192939495965090919293945090919293509091925090915090505080925050611be78383611f01565b925081831415611c2a576040518060400160405280600481526020017f425553440000000000000000000000000000000000000000000000000000000081525090505b8083945094505050509091565b600080600080600080611c7f876040518060400160405280600481526020017f545553440000000000000000000000000000000000000000000000000000000081525061124b565b90506000611cc2886040518060400160405280600481526020017f555344430000000000000000000000000000000000000000000000000000000081525061124b565b90506000611d05896040518060400160405280600481526020017f555344540000000000000000000000000000000000000000000000000000000081525061124b565b90506000611d488a6040518060400160405280600381526020017f444149000000000000000000000000000000000000000000000000000000000081525061124b565b90506000611d8b8b6040518060400160405280600481526020017f425553440000000000000000000000000000000000000000000000000000000081525061124b565b9050848484848499509950995099509950505050505091939590929450565b611db2611f6e565b611dc28560800151610100611f1a565b508385600001818152505082856020019073ffffffffffffffffffffffffffffffffffffffff16908173ffffffffffffffffffffffffffffffffffffffff16815250508185604001907bffffffffffffffffffffffffffffffffffffffffffffffffffffffff191690817bffffffffffffffffffffffffffffffffffffffffffffffffffffffff191681525050849050949350505050565b6060634042994660e01b60008084600001518560200151866040015187606001516001896080015160000151604051602401611e9d98979695949392919061294a565b604051602081830303815290604052907bffffffffffffffffffffffffffffffffffffffffffffffffffffffff19166020820180517bffffffffffffffffffffffffffffffffffffffffffffffffffffffff83818316178352505050509050919050565b6000818311611f105781611f12565b825b905092915050565b611f22611fdb565b600060208381611f2e57fe5b0614611f475760208281611f3e57fe5b06602003820191505b81836020018181525050604051808452600081528281016020016040525082905092915050565b6040518060a0016040528060008019168152602001600073ffffffffffffffffffffffffffffffffffffffff16815260200160007bffffffffffffffffffffffffffffffffffffffffffffffffffffffff1916815260200160008152602001611fd5611fdb565b81525090565b604051806040016040528060608152602001600081525090565b60008135905061200481612f18565b92915050565b60008151905061201981612f2f565b92915050565b60008135905061202e81612f46565b92915050565b600082601f83011261204557600080fd5b813561205861205382612c8e565b612c61565b9150808252602083016020830185838301111561207457600080fd5b61207f838284612e8a565b50505092915050565b60008135905061209781612f5d565b92915050565b6000815190506120ac81612f5d565b92915050565b6000815190506120c181612f74565b92915050565b6000602082840312156120d957600080fd5b60006120e784828501611ff5565b91505092915050565b60006020828403121561210257600080fd5b60006121108482850161200a565b91505092915050565b6000806040838503121561212c57600080fd5b600061213a8582860161201f565b925050602061214b85828601612088565b9150509250929050565b6000806040838503121561216857600080fd5b600061217685828601612088565b925050602083013567ffffffffffffffff81111561219357600080fd5b61219f85828601612034565b9150509250929050565b6000806000806000806000806000806101408b8d0312156121c957600080fd5b60006121d78d828e0161209d565b9a505060206121e88d828e0161209d565b99505060406121f98d828e0161209d565b985050606061220a8d828e0161209d565b975050608061221b8d828e0161209d565b96505060a061222c8d828e0161209d565b95505060c061223d8d828e0161209d565b94505060e061224e8d828e0161209d565b9350506101006122608d828e0161209d565b9250506101206122728d828e016120b2565b9150509295989b9194979a5092959850565b60008060008060008060008060006101208a8c0312156122a357600080fd5b60006122b18c828d0161209d565b99505060206122c28c828d0161209d565b98505060406122d38c828d0161209d565b97505060606122e48c828d0161209d565b96505060806122f58c828d0161209d565b95505060a06123068c828d0161209d565b94505060c06123178c828d0161209d565b93505060e06123288c828d016120b2565b92505061010061233a8c828d0161200a565b9150509295985092959850929598565b60006123568383612389565b60208301905092915050565b600061236e838361272c565b60208301905092915050565b61238381612e0c565b82525050565b61239281612d6f565b82525050565b6123a181612d6f565b82525050565b60006123b282612cda565b6123bc8185612d20565b93506123c783612cba565b8060005b838110156123f85781516123df888261234a565b97506123ea83612d06565b9250506001810190506123cb565b5085935050505092915050565b600061241082612ce5565b61241a8185612d31565b935061242583612cca565b8060005b8381101561245657815161243d8882612362565b975061244883612d13565b925050600181019050612429565b5085935050505092915050565b61246c81612d8d565b82525050565b61247b81612d97565b82525050565b600061248c82612cf0565b6124968185612d42565b93506124a6818560208601612e99565b6124af81612efa565b840191505092915050565b6124cb6124c682612e1e565b612ecc565b82525050565b6124da81612e42565b82525050565b6124e981612e54565b82525050565b60006124fa82612cfb565b6125048185612d64565b9350612514818560208601612e99565b80840191505092915050565b600061252d602383612d53565b91507f756e61626c6520746f207472616e73666572416e6443616c6c20746f206f726160008301527f636c6500000000000000000000000000000000000000000000000000000000006020830152604082019050919050565b6000612593600483612d64565b91507f42555344000000000000000000000000000000000000000000000000000000006000830152600482019050919050565b60006125d3600483612d64565b91507f55534454000000000000000000000000000000000000000000000000000000006000830152600482019050919050565b6000612613600483612d64565b91507f54555344000000000000000000000000000000000000000000000000000000006000830152600482019050919050565b6000612653600383612d64565b91507f44414900000000000000000000000000000000000000000000000000000000006000830152600382019050919050565b6000612693602883612d53565b91507f536f75726365206d75737420626520746865206f7261636c65206f662074686560008301527f20726571756573740000000000000000000000000000000000000000000000006020830152604082019050919050565b60006126f9600483612d64565b91507f55534443000000000000000000000000000000000000000000000000000000006000830152600482019050919050565b61273581612df1565b82525050565b61274481612df1565b82525050565b61275b61275682612df1565b612ef0565b82525050565b600061276d82856124ba565b60148201915061277d828461274a565b6020820191508190509392505050565b600061279982846124ef565b915081905092915050565b60006127af82612586565b9150819050919050565b60006127c4826125c6565b9150819050919050565b60006127d982612606565b9150819050919050565b60006127ee82612646565b9150819050919050565b6000612803826126ec565b9150819050919050565b60006020820190506128226000830184612398565b92915050565b600060408201905061283d6000830185612398565b61284a6020830184612398565b9392505050565b600060e082019050612866600083018a612398565b818103602083015261287881896123a7565b9050818103604083015261288c8188612405565b905081810360608301526128a08187612405565b90506128af6080830186612398565b81810360a08301526128c18185612481565b90506128d060c08301846124d1565b98975050505050505050565b60006040820190506128f16000830185612398565b6128fe602083018461273b565b9392505050565b600060808201905061291a6000830187612398565b612927602083018661273b565b612934604083018561237a565b61294160608301846124d1565b95945050505050565b600061010082019050612960600083018b612398565b61296d602083018a61273b565b61297a6040830189612463565b6129876060830188612398565b6129946080830187612472565b6129a160a083018661273b565b6129ae60c083018561273b565b81810360e08301526129c08184612481565b90509998505050505050505050565b60006060820190506129e46000830186612398565b6129f1602083018561273b565b8181036040830152612a038184612481565b9050949350505050565b60006020820190508181036000830152612a2781846123a7565b905092915050565b600060a082019050612a4460008301886124e0565b612a5160208301876124e0565b612a5e60408301866124e0565b612a6b60608301856124e0565b612a78608083018461273b565b9695505050505050565b600060a082019050612a9760008301886124e0565b612aa460208301876124e0565b612ab160408301866124e0565b612abe606083018561273b565b612acb60808301846124e0565b9695505050505050565b600060a082019050612aea60008301886124e0565b612af760208301876124e0565b612b04604083018661273b565b612b1160608301856124e0565b612b1e60808301846124e0565b9695505050505050565b600060a082019050612b3d60008301886124e0565b612b4a602083018761273b565b612b5760408301866124e0565b612b6460608301856124e0565b612b7160808301846124e0565b9695505050505050565b60006020820190508181036000830152612b9481612520565b9050919050565b60006020820190508181036000830152612bb481612686565b9050919050565b600060a082019050612bd0600083018861273b565b612bdd60208301876124e0565b612bea60408301866124e0565b612bf760608301856124e0565b612c0460808301846124e0565b9695505050505050565b600060a082019050612c23600083018861273b565b612c30602083018761273b565b612c3d604083018661273b565b612c4a606083018561273b565b612c57608083018461273b565b9695505050505050565b6000604051905081810181811067ffffffffffffffff82111715612c8457600080fd5b8060405250919050565b600067ffffffffffffffff821115612ca557600080fd5b601f19601f8301169050602081019050919050565b6000819050602082019050919050565b6000819050602082019050919050565b600081519050919050565b600081519050919050565b600081519050919050565b600081519050919050565b6000602082019050919050565b6000602082019050919050565b600082825260208201905092915050565b600082825260208201905092915050565b600082825260208201905092915050565b600082825260208201905092915050565b600081905092915050565b6000612d7a82612dd1565b9050919050565b60008115159050919050565b6000819050919050565b60007fffffffff0000000000000000000000000000000000000000000000000000000082169050919050565b600061ffff82169050919050565b600073ffffffffffffffffffffffffffffffffffffffff82169050919050565b6000819050919050565b600064ffffffffff82169050919050565b6000612e1782612e66565b9050919050565b6000612e2982612e30565b9050919050565b6000612e3b82612dd1565b9050919050565b6000612e4d82612dc3565b9050919050565b6000612e5f82612df1565b9050919050565b6000612e7182612e78565b9050919050565b6000612e8382612dd1565b9050919050565b82818337600083830152505050565b60005b83811015612eb7578082015181840152602081019050612e9c565b83811115612ec6576000848401525b50505050565b6000612ed782612ede565b9050919050565b6000612ee982612f0b565b9050919050565b6000819050919050565b6000601f19601f8301169050919050565b60008160601b9050919050565b612f2181612d6f565b8114612f2c57600080fd5b50565b612f3881612d81565b8114612f4357600080fd5b50565b612f4f81612d8d565b8114612f5a57600080fd5b50565b612f6681612df1565b8114612f7157600080fd5b50565b612f7d81612dfb565b8114612f8857600080fd5b5056fea2646970667358221220d32fce1debd9828cfb9091cdfb0e8fd894fc7e1c34f54c92fd60ebc484a9bc9f64736f6c634300060c0033",
  "linkReferences": {},
  "deployedLinkReferences": {}
}