{
  "_format": "hh-sol-artifact-1",
  "contractName": "StableRatioSwap",
  "sourceName": "contracts/StableRatioSwap.sol",
  "abi": [
    {
      "inputs": [],
      "stateMutability": "nonpayable",
      "type": "constructor"
    },
    {
      "anonymous": false,
      "inputs": [
        {
          "indexed": false,
          "internalType": "uint256",
          "name": "tusd",
          "type": "uint256"
        },
        {
          "indexed": false,
          "internalType": "uint256",
          "name": "decimalsTusd",
          "type": "uint256"
        },
        {
          "indexed": false,
          "internalType": "uint256",
          "name": "usdc",
          "type": "uint256"
        },
        {
          "indexed": false,
          "internalType": "uint256",
          "name": "decimalsUsdc",
          "type": "uint256"
        },
        {
          "indexed": false,
          "internalType": "uint256",
          "name": "usdt",
          "type": "uint256"
        },
        {
          "indexed": false,
          "internalType": "uint256",
          "name": "decimalsUsdt",
          "type": "uint256"
        },
        {
          "indexed": false,
          "internalType": "uint256",
          "name": "dai",
          "type": "uint256"
        },
        {
          "indexed": false,
          "internalType": "uint256",
          "name": "decimalsDai",
          "type": "uint256"
        },
        {
          "indexed": false,
          "internalType": "uint256",
          "name": "busd",
          "type": "uint256"
        },
        {
          "indexed": false,
          "internalType": "uint256",
          "name": "decimalsBusd",
          "type": "uint256"
        }
      ],
      "name": "AllDeposits",
      "type": "event"
    },
    {
      "anonymous": false,
      "inputs": [
        {
          "indexed": true,
          "internalType": "bytes32",
          "name": "id",
          "type": "bytes32"
        }
      ],
      "name": "ChainlinkCancelled",
      "type": "event"
    },
    {
      "anonymous": false,
      "inputs": [
        {
          "indexed": true,
          "internalType": "bytes32",
          "name": "id",
          "type": "bytes32"
        }
      ],
      "name": "ChainlinkFulfilled",
      "type": "event"
    },
    {
      "anonymous": false,
      "inputs": [
        {
          "indexed": true,
          "internalType": "bytes32",
          "name": "id",
          "type": "bytes32"
        }
      ],
      "name": "ChainlinkRequested",
      "type": "event"
    },
    {
      "anonymous": false,
      "inputs": [
        {
          "indexed": false,
          "internalType": "bool",
          "name": "createUserStatus",
          "type": "bool"
        }
      ],
      "name": "CreateUser",
      "type": "event"
    },
    {
      "anonymous": false,
      "inputs": [
        {
          "indexed": false,
          "internalType": "bool",
          "name": "depositStatus",
          "type": "bool"
        }
      ],
      "name": "Deposit",
      "type": "event"
    },
    {
      "anonymous": false,
      "inputs": [
        {
          "indexed": false,
          "internalType": "bool",
          "name": "optInStatus",
          "type": "bool"
        }
      ],
      "name": "OptInToggle",
      "type": "event"
    },
    {
      "anonymous": false,
      "inputs": [
        {
          "indexed": true,
          "internalType": "address",
          "name": "previousOwner",
          "type": "address"
        },
        {
          "indexed": true,
          "internalType": "address",
          "name": "newOwner",
          "type": "address"
        }
      ],
      "name": "OwnershipTransferred",
      "type": "event"
    },
    {
      "anonymous": false,
      "inputs": [
        {
          "indexed": false,
          "internalType": "bool",
          "name": "swapStatus",
          "type": "bool"
        },
        {
          "indexed": false,
          "internalType": "uint256",
          "name": "ratio",
          "type": "uint256"
        }
      ],
      "name": "SwapStablecoinDeposit",
      "type": "event"
    },
    {
      "inputs": [],
      "name": "ADDRESSES_PROVIDER",
      "outputs": [
        {
          "internalType": "contract ILendingPoolAddressesProvider",
          "name": "",
          "type": "address"
        }
      ],
      "stateMutability": "view",
      "type": "function"
    },
    {
      "inputs": [],
      "name": "LENDING_POOL",
      "outputs": [
        {
          "internalType": "contract ILendingPool",
          "name": "",
          "type": "address"
        }
      ],
      "stateMutability": "view",
      "type": "function"
    },
    {
      "inputs": [],
      "name": "createUser",
      "outputs": [],
      "stateMutability": "nonpayable",
      "type": "function"
    },
    {
      "inputs": [
        {
          "internalType": "uint256",
          "name": "amount",
          "type": "uint256"
        },
        {
          "internalType": "string",
          "name": "tokenType",
          "type": "string"
        },
        {
          "internalType": "address",
          "name": "sender",
          "type": "address"
        }
      ],
      "name": "deposit",
      "outputs": [],
      "stateMutability": "nonpayable",
      "type": "function"
    },
    {
      "inputs": [
        {
          "internalType": "address[]",
          "name": "assets",
          "type": "address[]"
        },
        {
          "internalType": "uint256[]",
          "name": "amounts",
          "type": "uint256[]"
        },
        {
          "internalType": "uint256[]",
          "name": "premiums",
          "type": "uint256[]"
        },
        {
          "internalType": "address",
          "name": "initiator",
          "type": "address"
        },
        {
          "internalType": "bytes",
          "name": "params",
          "type": "bytes"
        }
      ],
      "name": "executeOperation",
      "outputs": [
        {
          "internalType": "bool",
          "name": "",
          "type": "bool"
        }
      ],
      "stateMutability": "nonpayable",
      "type": "function"
    },
    {
      "inputs": [],
      "name": "getAllStablecoinDeposits",
      "outputs": [],
      "stateMutability": "nonpayable",
      "type": "function"
    },
    {
      "inputs": [
        {
          "internalType": "bytes32",
          "name": "_requestID",
          "type": "bytes32"
        },
        {
          "internalType": "uint256",
          "name": "_ratio",
          "type": "uint256"
        }
      ],
      "name": "getTUSDRatio",
      "outputs": [],
      "stateMutability": "nonpayable",
      "type": "function"
    },
    {
      "inputs": [],
      "name": "optInToggle",
      "outputs": [],
      "stateMutability": "nonpayable",
      "type": "function"
    },
    {
      "inputs": [],
      "name": "owner",
      "outputs": [
        {
          "internalType": "address",
          "name": "",
          "type": "address"
        }
      ],
      "stateMutability": "view",
      "type": "function"
    },
    {
      "inputs": [],
      "name": "renounceOwnership",
      "outputs": [],
      "stateMutability": "nonpayable",
      "type": "function"
    },
    {
      "inputs": [
        {
          "internalType": "bool",
          "name": "force",
          "type": "bool"
        }
      ],
      "name": "swapStablecoinDeposit",
      "outputs": [],
      "stateMutability": "nonpayable",
      "type": "function"
    },
    {
      "inputs": [
        {
          "internalType": "address",
          "name": "newOwner",
          "type": "address"
        }
      ],
      "name": "transferOwnership",
      "outputs": [],
      "stateMutability": "nonpayable",
      "type": "function"
    },
    {
      "stateMutability": "payable",
      "type": "receive"
    }
  ],
  "bytecode": "0x608060405260016004553480156200001657600080fd5b506000620000296200077660201b60201c565b905080600660006101000a81548173ffffffffffffffffffffffffffffffffffffffff021916908373ffffffffffffffffffffffffffffffffffffffff1602179055508073ffffffffffffffffffffffffffffffffffffffff16600073ffffffffffffffffffffffffffffffffffffffff167f8be0079c531659141344cd1fd0a4f28419497f9722a3daafe3b4186f6b6457e060405160405180910390a350620000d86200077e60201b60201c565b733c73a5e5785cac854d468f727c606c07488a29d6600760006101000a81548173ffffffffffffffffffffffffffffffffffffffff021916908373ffffffffffffffffffffffffffffffffffffffff1602179055507388757f2f99175387ab4c6a4b3067c77a695b0349600e60006101000a81548173ffffffffffffffffffffffffffffffffffffffff021916908373ffffffffffffffffffffffffffffffffffffffff160217905550600e60009054906101000a900473ffffffffffffffffffffffffffffffffffffffff1673ffffffffffffffffffffffffffffffffffffffff16630261bf8b6040518163ffffffff1660e01b815260040160206040518083038186803b158015620001eb57600080fd5b505afa15801562000200573d6000803e3d6000fd5b505050506040513d601f19601f82011682018060405250810190620002269190620009f6565b600860006101000a81548173ffffffffffffffffffffffffffffffffffffffff021916908373ffffffffffffffffffffffffffffffffffffffff160217905550600860009054906101000a900473ffffffffffffffffffffffffffffffffffffffff16600f60006101000a81548173ffffffffffffffffffffffffffffffffffffffff021916908373ffffffffffffffffffffffffffffffffffffffff1602179055506060600760009054906101000a900473ffffffffffffffffffffffffffffffffffffffff1673ffffffffffffffffffffffffffffffffffffffff1663f561ae416040518163ffffffff1660e01b815260040160006040518083038186803b1580156200033457600080fd5b505afa15801562000349573d6000803e3d6000fd5b505050506040513d6000823e3d601f19601f8201168201806040525081019062000374919062000a22565b905060005b815181101562000426576200038d6200086a565b8282815181106200039a57fe5b6020026020010151905060608160000151905060008260200151905080600c83604051620003c9919062000be8565b908152602001604051809103902060006101000a81548173ffffffffffffffffffffffffffffffffffffffff021916908373ffffffffffffffffffffffffffffffffffffffff160217905550505050808060010191505062000379565b5073016750ac630f711882812f24dba6c95b9d35856d600c6040516200044c9062000c2f565b908152602001604051809103902060006101000a81548173ffffffffffffffffffffffffffffffffffffffff021916908373ffffffffffffffffffffffffffffffffffffffff16021790555073e22da380ee6b445bb8273c81944adeb6e8450422600c604051620004bd9062000c5d565b908152602001604051809103902060006101000a81548173ffffffffffffffffffffffffffffffffffffffff021916908373ffffffffffffffffffffffffffffffffffffffff1602179055507313512979ade267ab5100878e2e0f485b568328a4600c6040516200052e9062000c18565b908152602001604051809103902060006101000a81548173ffffffffffffffffffffffffffffffffffffffff021916908373ffffffffffffffffffffffffffffffffffffffff16021790555073ff795577d9ac8bd7d90ee22b6c1703490b6512fd600c6040516200059f9062000c46565b908152602001604051809103902060006101000a81548173ffffffffffffffffffffffffffffffffffffffff021916908373ffffffffffffffffffffffffffffffffffffffff160217905550734c6e1efc12fdfd568186b7baec0a43fffb4bcccf600c604051620006109062000c01565b908152602001604051809103902060006101000a81548173ffffffffffffffffffffffffffffffffffffffff021916908373ffffffffffffffffffffffffffffffffffffffff1602179055506001600d6040516200066e9062000c2f565b908152602001604051809103902060006101000a81548160ff0219169083151502179055506001600d604051620006a59062000c5d565b908152602001604051809103902060006101000a81548160ff0219169083151502179055506001600d604051620006dc9062000c18565b908152602001604051809103902060006101000a81548160ff0219169083151502179055506001600d604051620007139062000c46565b908152602001604051809103902060006101000a81548160ff0219169083151502179055506001600d6040516200074a9062000c01565b908152602001604051809103902060006101000a81548160ff0219169083151502179055505062000d92565b600033905090565b6200082473c89bd4e1632d3a43cb03aaad5262cbe4038bc57173ffffffffffffffffffffffffffffffffffffffff166338cc48316040518163ffffffff1660e01b815260040160206040518083038186803b158015620007dd57600080fd5b505afa158015620007f2573d6000803e3d6000fd5b505050506040513d601f19601f82011682018060405250810190620008189190620009f6565b6200082660201b60201c565b565b80600260006101000a81548173ffffffffffffffffffffffffffffffffffffffff021916908373ffffffffffffffffffffffffffffffffffffffff16021790555050565b604051806040016040528060608152602001600073ffffffffffffffffffffffffffffffffffffffff1681525090565b600081519050620008ab8162000d78565b92915050565b600082601f830112620008c357600080fd5b8151620008da620008d48262000ca2565b62000c74565b9150818183526020840193506020810190508360005b838110156200092457815186016200090988826200098a565b845260208401935060208301925050600181019050620008f0565b5050505092915050565b600082601f8301126200094057600080fd5b815162000957620009518262000ccb565b62000c74565b915080825260208301602083018583830111156200097457600080fd5b6200098183828462000d42565b50505092915050565b6000604082840312156200099d57600080fd5b620009a9604062000c74565b9050600082015167ffffffffffffffff811115620009c657600080fd5b620009d4848285016200092e565b6000830152506020620009ea848285016200089a565b60208301525092915050565b60006020828403121562000a0957600080fd5b600062000a19848285016200089a565b91505092915050565b60006020828403121562000a3557600080fd5b600082015167ffffffffffffffff81111562000a5057600080fd5b62000a5e84828501620008b1565b91505092915050565b600062000a748262000cf8565b62000a80818562000d03565b935062000a9281856020860162000d42565b80840191505092915050565b600062000aad60048362000d03565b91507f42555344000000000000000000000000000000000000000000000000000000006000830152600482019050919050565b600062000aef60048362000d03565b91507f55534454000000000000000000000000000000000000000000000000000000006000830152600482019050919050565b600062000b3160048362000d03565b91507f54555344000000000000000000000000000000000000000000000000000000006000830152600482019050919050565b600062000b7360038362000d03565b91507f44414900000000000000000000000000000000000000000000000000000000006000830152600382019050919050565b600062000bb560048362000d03565b91507f55534443000000000000000000000000000000000000000000000000000000006000830152600482019050919050565b600062000bf6828462000a67565b915081905092915050565b600062000c0e8262000a9e565b9150819050919050565b600062000c258262000ae0565b9150819050919050565b600062000c3c8262000b22565b9150819050919050565b600062000c538262000b64565b9150819050919050565b600062000c6a8262000ba6565b9150819050919050565b6000604051905081810181811067ffffffffffffffff8211171562000c9857600080fd5b8060405250919050565b600067ffffffffffffffff82111562000cba57600080fd5b602082029050602081019050919050565b600067ffffffffffffffff82111562000ce357600080fd5b601f19601f8301169050602081019050919050565b600081519050919050565b600081905092915050565b600062000d1b8262000d22565b9050919050565b600073ffffffffffffffffffffffffffffffffffffffff82169050919050565b60005b8381101562000d6257808201518184015260208101905062000d45565b8381111562000d72576000848401525b50505050565b62000d838162000d0e565b811462000d8f57600080fd5b50565b6138878062000da26000396000f3fe6080604052600436106100aa5760003560e01c8063715018a611610064578063715018a6146101785780638da5cb5b1461018f578063920f5c84146101ba578063b4dcfc77146101f7578063c2bc4dc114610222578063f2fde38b1461024b576100b1565b8062393f2b146100b65780630542975c146100df57806306791a561461010a57806325ad91ce146101335780632783879f1461014a57806332eefcf514610161576100b1565b366100b157005b600080fd5b3480156100c257600080fd5b506100dd60048036038101906100d891906127d4565b610274565b005b3480156100eb57600080fd5b506100f461043e565b604051610101919061335f565b60405180910390f35b34801561011657600080fd5b50610131600480360381019061012c9190612798565b610464565b005b34801561013f57600080fd5b50610148610575565b005b34801561015657600080fd5b5061015f6107c3565b005b34801561016d57600080fd5b50610176610976565b005b34801561018457600080fd5b5061018d610aa8565b005b34801561019b57600080fd5b506101a4610c00565b6040516101b191906130d8565b60405180910390f35b3480156101c657600080fd5b506101e160048036038101906101dc919061265e565b610c2a565b6040516101ee919061331b565b60405180910390f35b34801561020357600080fd5b5061020c610fc9565b604051610219919061337a565b60405180910390f35b34801561022e57600080fd5b5061024960048036038101906102449190612746565b610fef565b005b34801561025757600080fd5b50610272600480360381019061026d9190612635565b611484565b005b600d826040516102849190613058565b908152602001604051809103902060009054906101000a900460ff166102a957600080fd5b6000600c836040516102bb9190613058565b908152602001604051809103902060009054906101000a900473ffffffffffffffffffffffffffffffffffffffff1690508073ffffffffffffffffffffffffffffffffffffffff1663095ea7b3600860009054906101000a900473ffffffffffffffffffffffffffffffffffffffff16866040518363ffffffff1660e01b81526004016103499291906131a5565b602060405180830381600087803b15801561036357600080fd5b505af1158015610377573d6000803e3d6000fd5b505050506040513d601f19601f8201168201806040525081019061039b919061276f565b6103a457600080fd5b600f60009054906101000a900473ffffffffffffffffffffffffffffffffffffffff1673ffffffffffffffffffffffffffffffffffffffff1663e8eda9df82868560006040518563ffffffff1660e01b81526004016104069493929190613213565b600060405180830381600087803b15801561042057600080fd5b505af1158015610434573d6000803e3d6000fd5b5050505050505050565b600e60009054906101000a900473ffffffffffffffffffffffffffffffffffffffff1681565b816005600082815260200190815260200160002060009054906101000a900473ffffffffffffffffffffffffffffffffffffffff1673ffffffffffffffffffffffffffffffffffffffff163373ffffffffffffffffffffffffffffffffffffffff1614610506576040517f08c379a00000000000000000000000000000000000000000000000000000000081526004016104fd90613435565b60405180910390fd5b6005600082815260200190815260200160002060006101000a81549073ffffffffffffffffffffffffffffffffffffffff0219169055807f7cc135e0cebb02c3480ae5d74d377283180a2601f8f644edf7987b009316c63a60405160405180910390a281600981905550505050565b600073ffffffffffffffffffffffffffffffffffffffff16600b60003373ffffffffffffffffffffffffffffffffffffffff1673ffffffffffffffffffffffffffffffffffffffff16815260200190815260200160002060000160009054906101000a900473ffffffffffffffffffffffffffffffffffffffff1673ffffffffffffffffffffffffffffffffffffffff1614156107885733600b60003373ffffffffffffffffffffffffffffffffffffffff1673ffffffffffffffffffffffffffffffffffffffff16815260200190815260200160002060000160006101000a81548173ffffffffffffffffffffffffffffffffffffffff021916908373ffffffffffffffffffffffffffffffffffffffff1602179055506000600b60003373ffffffffffffffffffffffffffffffffffffffff1673ffffffffffffffffffffffffffffffffffffffff16815260200190815260200160002060000160146101000a81548160ff021916908315150217905550600a339080600181540180825580915050600190039060005260206000200160009091909190916101000a81548173ffffffffffffffffffffffffffffffffffffffff021916908373ffffffffffffffffffffffffffffffffffffffff1602179055507f2b865278e72421ded897b30277b72c654fe5b824c08eb97de6fabdeff85d55cc600160405161077b919061331b565b60405180910390a16107c1565b7f2b865278e72421ded897b30277b72c654fe5b824c08eb97de6fabdeff85d55cc60006040516107b8919061331b565b60405180910390a15b565b600080610805336040518060400160405280600481526020017f545553440000000000000000000000000000000000000000000000000000000081525061164b565b9150915060008061084b336040518060400160405280600481526020017f555344430000000000000000000000000000000000000000000000000000000081525061164b565b91509150600080610891336040518060400160405280600481526020017f555344540000000000000000000000000000000000000000000000000000000081525061164b565b915091506000806108d7336040518060400160405280600381526020017f444149000000000000000000000000000000000000000000000000000000000081525061164b565b9150915060008061091d336040518060400160405280600481526020017f425553440000000000000000000000000000000000000000000000000000000081525061164b565b915091507f155b00305b2e5bdc0d6a3e34cf7ffbccdb1c25ab69c2059181928f6f61f2b4758a8a8a8a8a8a8a8a8a8a6040516109629a99989796959493929190613455565b60405180910390a150505050505050505050565b600b60003373ffffffffffffffffffffffffffffffffffffffff1673ffffffffffffffffffffffffffffffffffffffff16815260200190815260200160002060000160149054906101000a900460ff1615600b60003373ffffffffffffffffffffffffffffffffffffffff1673ffffffffffffffffffffffffffffffffffffffff16815260200190815260200160002060000160146101000a81548160ff0219169083151502179055507f7ebb6fb163dd741d0bc3e9634b5c5bef95a5519bc08ca96b0ec823b771b6481f600b60003373ffffffffffffffffffffffffffffffffffffffff1673ffffffffffffffffffffffffffffffffffffffff16815260200190815260200160002060000160149054906101000a900460ff16604051610a9e919061331b565b60405180910390a1565b610ab0611849565b73ffffffffffffffffffffffffffffffffffffffff16600660009054906101000a900473ffffffffffffffffffffffffffffffffffffffff1673ffffffffffffffffffffffffffffffffffffffff1614610b3f576040517f08c379a0000000000000000000000000000000000000000000000000000000008152600401610b3690613415565b60405180910390fd5b600073ffffffffffffffffffffffffffffffffffffffff16600660009054906101000a900473ffffffffffffffffffffffffffffffffffffffff1673ffffffffffffffffffffffffffffffffffffffff167f8be0079c531659141344cd1fd0a4f28419497f9722a3daafe3b4186f6b6457e060405160405180910390a36000600660006101000a81548173ffffffffffffffffffffffffffffffffffffffff021916908373ffffffffffffffffffffffffffffffffffffffff160217905550565b6000600660009054906101000a900473ffffffffffffffffffffffffffffffffffffffff16905090565b6000600f60009054906101000a900473ffffffffffffffffffffffffffffffffffffffff1673ffffffffffffffffffffffffffffffffffffffff163373ffffffffffffffffffffffffffffffffffffffff1614610cbc576040517f08c379a0000000000000000000000000000000000000000000000000000000008152600401610cb390613395565b60405180910390fd5b60606000610cc8611851565b915091506000610d0789896000818110610cde57fe5b905060200201358c8c6000818110610cf257fe5b90506020020135611f6f90919063ffffffff16565b9050600c83604051610d199190613058565b908152602001604051809103902060009054906101000a900473ffffffffffffffffffffffffffffffffffffffff1673ffffffffffffffffffffffffffffffffffffffff1663095ea7b3600f60009054906101000a900473ffffffffffffffffffffffffffffffffffffffff16836040518363ffffffff1660e01b8152600401610da49291906131a5565b602060405180830381600087803b158015610dbe57600080fd5b505af1158015610dd2573d6000803e3d6000fd5b505050506040513d601f19601f82011682018060405250810190610df6919061276f565b50600f60009054906101000a900473ffffffffffffffffffffffffffffffffffffffff1673ffffffffffffffffffffffffffffffffffffffff1663e8eda9df600c85604051610e459190613058565b908152602001604051809103902060009054906101000a900473ffffffffffffffffffffffffffffffffffffffff16833060006040518563ffffffff1660e01b8152600401610e9794939291906131ce565b600060405180830381600087803b158015610eb157600080fd5b505af1158015610ec5573d6000803e3d6000fd5b5050505060005b8d8d9050811015610fb4578d8d82818110610ee357fe5b9050602002016020810190610ef89190612635565b73ffffffffffffffffffffffffffffffffffffffff1663095ea7b3600f60009054906101000a900473ffffffffffffffffffffffffffffffffffffffff16846040518363ffffffff1660e01b8152600401610f549291906131a5565b602060405180830381600087803b158015610f6e57600080fd5b505af1158015610f82573d6000803e3d6000fd5b505050506040513d601f19601f82011682018060405250810190610fa6919061276f565b508080600101915050610ecc565b50600193505050509998505050505050505050565b600f60009054906101000a900473ffffffffffffffffffffffffffffffffffffffff1681565b610ff7611fc4565b6060600167ffffffffffffffff8111801561101157600080fd5b506040519080825280602002602001820160405280156110405781602001602082028036833780820191505090505b50905060018160008151811061105257fe5b6020026020010181815250506060600167ffffffffffffffff8111801561107857600080fd5b506040519080825280602002602001820160405280156110a75781602001602082028036833780820191505090505b509050600c6040516110b890613099565b908152602001604051809103902060009054906101000a900473ffffffffffffffffffffffffffffffffffffffff16816000815181106110f457fe5b602002602001019073ffffffffffffffffffffffffffffffffffffffff16908173ffffffffffffffffffffffffffffffffffffffff168152505060005b600a8054905081101561147e57600b6000600a838154811061114f57fe5b9060005260206000200160009054906101000a900473ffffffffffffffffffffffffffffffffffffffff1673ffffffffffffffffffffffffffffffffffffffff1673ffffffffffffffffffffffffffffffffffffffff16815260200190815260200160002060000160149054906101000a900460ff1615611470576060600167ffffffffffffffff811180156111e457600080fd5b506040519080825280602002602001820160405280156112135781602001602082028036833780820191505090505b50905061128c600a838154811061122657fe5b9060005260206000200160009054906101000a900473ffffffffffffffffffffffffffffffffffffffff166040518060400160405280600481526020017f545553440000000000000000000000000000000000000000000000000000000081525061164b565b508160008151811061129a57fe5b6020026020010181815250506000816000815181106112b557fe5b60200260200101511480156112c8575084155b1561130f577f9393266a0edf3831afe7674c86dae0421b971ab0821c1930755ffa0b09a1d8716000600954604051611301929190613336565b60405180910390a150611471565b6127106009541115611431576000600a838154811061132a57fe5b9060005260206000200160009054906101000a900473ffffffffffffffffffffffffffffffffffffffff169050600f60009054906101000a900473ffffffffffffffffffffffffffffffffffffffff1673ffffffffffffffffffffffffffffffffffffffff1663ab9c4b5d308685898660006040518763ffffffff1660e01b81526004016113bd969594939291906130f3565b600060405180830381600087803b1580156113d757600080fd5b505af11580156113eb573d6000803e3d6000fd5b505050507f9393266a0edf3831afe7674c86dae0421b971ab0821c1930755ffa0b09a1d8716001600954604051611423929190613336565b60405180910390a15061146e565b7f9393266a0edf3831afe7674c86dae0421b971ab0821c1930755ffa0b09a1d8716000600954604051611465929190613336565b60405180910390a15b505b5b8080600101915050611131565b50505050565b61148c611849565b73ffffffffffffffffffffffffffffffffffffffff16600660009054906101000a900473ffffffffffffffffffffffffffffffffffffffff1673ffffffffffffffffffffffffffffffffffffffff161461151b576040517f08c379a000000000000000000000000000000000000000000000000000000000815260040161151290613415565b60405180910390fd5b600073ffffffffffffffffffffffffffffffffffffffff168173ffffffffffffffffffffffffffffffffffffffff16141561158b576040517f08c379a0000000000000000000000000000000000000000000000000000000008152600401611582906133b5565b60405180910390fd5b8073ffffffffffffffffffffffffffffffffffffffff16600660009054906101000a900473ffffffffffffffffffffffffffffffffffffffff1673ffffffffffffffffffffffffffffffffffffffff167f8be0079c531659141344cd1fd0a4f28419497f9722a3daafe3b4186f6b6457e060405160405180910390a380600660006101000a81548173ffffffffffffffffffffffffffffffffffffffff021916908373ffffffffffffffffffffffffffffffffffffffff16021790555050565b600080600d8360405161165e9190613058565b908152602001604051809103902060009054906101000a900460ff1661168357600080fd5b6000600c846040516116959190613058565b908152602001604051809103902060009054906101000a900473ffffffffffffffffffffffffffffffffffffffff1690506000600760009054906101000a900473ffffffffffffffffffffffffffffffffffffffff1673ffffffffffffffffffffffffffffffffffffffff166328dd2d0183886040518363ffffffff1660e01b815260040161172592919061317c565b6101206040518083038186803b15801561173e57600080fd5b505afa158015611752573d6000803e3d6000fd5b505050506040513d601f19601f8201168201806040525081019061177691906129f1565b505050505050505090506000600760009054906101000a900473ffffffffffffffffffffffffffffffffffffffff1673ffffffffffffffffffffffffffffffffffffffff16633e150141846040518263ffffffff1660e01b81526004016117dd91906130d8565b6101406040518083038186803b1580156117f657600080fd5b505afa15801561180a573d6000803e3d6000fd5b505050506040513d601f19601f8201168201806040525081019061182e919061283b565b50505050505050505090508181945094505050509250929050565b600033905090565b606060008060009050600060606040518060400160405280600481526020017f54555344000000000000000000000000000000000000000000000000000000008152509050600760009054906101000a900473ffffffffffffffffffffffffffffffffffffffff1673ffffffffffffffffffffffffffffffffffffffff166335ea6a75600c6040516118e290613099565b908152602001604051809103902060009054906101000a900473ffffffffffffffffffffffffffffffffffffffff166040518263ffffffff1660e01b815260040161192d91906130d8565b6101406040518083038186803b15801561194657600080fd5b505afa15801561195a573d6000803e3d6000fd5b505050506040513d601f19601f8201168201806040525081019061197e9190612916565b909192939495969798509091929394959697509091929394959650909192939450909192935090919250909150905050809250506119bc838361202a565b9250600760009054906101000a900473ffffffffffffffffffffffffffffffffffffffff1673ffffffffffffffffffffffffffffffffffffffff166335ea6a75600c604051611a0a906130c3565b908152602001604051809103902060009054906101000a900473ffffffffffffffffffffffffffffffffffffffff166040518263ffffffff1660e01b8152600401611a5591906130d8565b6101406040518083038186803b158015611a6e57600080fd5b505afa158015611a82573d6000803e3d6000fd5b505050506040513d601f19601f82011682018060405250810190611aa69190612916565b90919293949596979850909192939495969750909192939495965090919293945090919293509091925090915090505080925050611ae4838361202a565b925081831415611b27576040518060400160405280600481526020017f555344430000000000000000000000000000000000000000000000000000000081525090505b600760009054906101000a900473ffffffffffffffffffffffffffffffffffffffff1673ffffffffffffffffffffffffffffffffffffffff166335ea6a75600c604051611b7390613084565b908152602001604051809103902060009054906101000a900473ffffffffffffffffffffffffffffffffffffffff166040518263ffffffff1660e01b8152600401611bbe91906130d8565b6101406040518083038186803b158015611bd757600080fd5b505afa158015611beb573d6000803e3d6000fd5b505050506040513d601f19601f82011682018060405250810190611c0f9190612916565b90919293949596979850909192939495969750909192939495965090919293945090919293509091925090915090505080925050611c4d838361202a565b925081831415611c90576040518060400160405280600481526020017f555344540000000000000000000000000000000000000000000000000000000081525090505b600760009054906101000a900473ffffffffffffffffffffffffffffffffffffffff1673ffffffffffffffffffffffffffffffffffffffff166335ea6a75600c604051611cdc906130ae565b908152602001604051809103902060009054906101000a900473ffffffffffffffffffffffffffffffffffffffff166040518263ffffffff1660e01b8152600401611d2791906130d8565b6101406040518083038186803b158015611d4057600080fd5b505afa158015611d54573d6000803e3d6000fd5b505050506040513d601f19601f82011682018060405250810190611d789190612916565b90919293949596979850909192939495969750909192939495965090919293945090919293509091925090915090505080925050611db6838361202a565b925081831415611df9576040518060400160405280600381526020017f444149000000000000000000000000000000000000000000000000000000000081525090505b600760009054906101000a900473ffffffffffffffffffffffffffffffffffffffff1673ffffffffffffffffffffffffffffffffffffffff166335ea6a75600c604051611e459061306f565b908152602001604051809103902060009054906101000a900473ffffffffffffffffffffffffffffffffffffffff166040518263ffffffff1660e01b8152600401611e9091906130d8565b6101406040518083038186803b158015611ea957600080fd5b505afa158015611ebd573d6000803e3d6000fd5b505050506040513d601f19601f82011682018060405250810190611ee19190612916565b90919293949596979850909192939495969750909192939495965090919293945090919293509091925090915090505080925050611f1f838361202a565b925081831415611f62576040518060400160405280600481526020017f425553440000000000000000000000000000000000000000000000000000000081525090505b8083945094505050509091565b600080828401905083811015611fba576040517f08c379a0000000000000000000000000000000000000000000000000000000008152600401611fb1906133d5565b60405180910390fd5b8091505092915050565b611fcc6123e9565b611ffe7f3335653134646264343930663465336239666265393262383562333264393861306306791a5660e01b612043565b905061202673fc153f49e74711c3140ca06bfacf42ffdc492a1782662386f26fc10000612074565b5050565b6000818311612039578161203b565b825b905092915050565b61204b6123e9565b6120536123e9565b61206a8585858461223e909392919063ffffffff16565b9150509392505050565b60003060045460405160200161208b92919061302c565b604051602081830303815290604052805190602001209050600454836060018181525050836005600083815260200190815260200160002060006101000a81548173ffffffffffffffffffffffffffffffffffffffff021916908373ffffffffffffffffffffffffffffffffffffffff160217905550807fb5e6e01e79f91267dc17b4e6314d5d4d03593d2ceee0fbb452b750bd70ea5af960405160405180910390a2600260009054906101000a900473ffffffffffffffffffffffffffffffffffffffff1673ffffffffffffffffffffffffffffffffffffffff16634000aea08584612177876122ee565b6040518463ffffffff1660e01b8152600401612195939291906132dd565b602060405180830381600087803b1580156121af57600080fd5b505af11580156121c3573d6000803e3d6000fd5b505050506040513d601f19601f820116820180604052508101906121e7919061276f565b612226576040517f08c379a000000000000000000000000000000000000000000000000000000000815260040161221d906133f5565b60405180910390fd5b60016004600082825401925050819055509392505050565b6122466123e9565b6122568560800151610100612395565b508385600001818152505082856020019073ffffffffffffffffffffffffffffffffffffffff16908173ffffffffffffffffffffffffffffffffffffffff16815250508185604001907bffffffffffffffffffffffffffffffffffffffffffffffffffffffff191690817bffffffffffffffffffffffffffffffffffffffffffffffffffffffff191681525050849050949350505050565b6060634042994660e01b60008084600001518560200151866040015187606001516001896080015160000151604051602401612331989796959493929190613258565b604051602081830303815290604052907bffffffffffffffffffffffffffffffffffffffffffffffffffffffff19166020820180517bffffffffffffffffffffffffffffffffffffffffffffffffffffffff83818316178352505050509050919050565b61239d612456565b6000602083816123a957fe5b06146123c257602082816123b957fe5b06602003820191505b81836020018181525050604051808452600081528281016020016040525082905092915050565b6040518060a0016040528060008019168152602001600073ffffffffffffffffffffffffffffffffffffffff16815260200160007bffffffffffffffffffffffffffffffffffffffffffffffffffffffff1916815260200160008152602001612450612456565b81525090565b604051806040016040528060608152602001600081525090565b60008135905061247f816137de565b92915050565b60008083601f84011261249757600080fd5b8235905067ffffffffffffffff8111156124b057600080fd5b6020830191508360208202830111156124c857600080fd5b9250929050565b60008083601f8401126124e157600080fd5b8235905067ffffffffffffffff8111156124fa57600080fd5b60208301915083602082028301111561251257600080fd5b9250929050565b600081359050612528816137f5565b92915050565b60008151905061253d816137f5565b92915050565b6000813590506125528161380c565b92915050565b60008083601f84011261256a57600080fd5b8235905067ffffffffffffffff81111561258357600080fd5b60208301915083600182028301111561259b57600080fd5b9250929050565b600082601f8301126125b357600080fd5b81356125c66125c18261351e565b6134f1565b915080825260208301602083018583830111156125e257600080fd5b6125ed838284613750565b50505092915050565b60008135905061260581613823565b92915050565b60008151905061261a81613823565b92915050565b60008151905061262f8161383a565b92915050565b60006020828403121561264757600080fd5b600061265584828501612470565b91505092915050565b600080600080600080600080600060a08a8c03121561267c57600080fd5b60008a013567ffffffffffffffff81111561269657600080fd5b6126a28c828d01612485565b995099505060208a013567ffffffffffffffff8111156126c157600080fd5b6126cd8c828d016124cf565b975097505060408a013567ffffffffffffffff8111156126ec57600080fd5b6126f88c828d016124cf565b9550955050606061270b8c828d01612470565b93505060808a013567ffffffffffffffff81111561272857600080fd5b6127348c828d01612558565b92509250509295985092959850929598565b60006020828403121561275857600080fd5b600061276684828501612519565b91505092915050565b60006020828403121561278157600080fd5b600061278f8482850161252e565b91505092915050565b600080604083850312156127ab57600080fd5b60006127b985828601612543565b92505060206127ca858286016125f6565b9150509250929050565b6000806000606084860312156127e957600080fd5b60006127f7868287016125f6565b935050602084013567ffffffffffffffff81111561281457600080fd5b612820868287016125a2565b925050604061283186828701612470565b9150509250925092565b6000806000806000806000806000806101408b8d03121561285b57600080fd5b60006128698d828e0161260b565b9a5050602061287a8d828e0161260b565b995050604061288b8d828e0161260b565b985050606061289c8d828e0161260b565b97505060806128ad8d828e0161260b565b96505060a06128be8d828e0161252e565b95505060c06128cf8d828e0161252e565b94505060e06128e08d828e0161252e565b9350506101006128f28d828e0161252e565b9250506101206129048d828e0161252e565b9150509295989b9194979a5092959850565b6000806000806000806000806000806101408b8d03121561293657600080fd5b60006129448d828e0161260b565b9a505060206129558d828e0161260b565b99505060406129668d828e0161260b565b98505060606129778d828e0161260b565b97505060806129888d828e0161260b565b96505060a06129998d828e0161260b565b95505060c06129aa8d828e0161260b565b94505060e06129bb8d828e0161260b565b9350506101006129cd8d828e0161260b565b9250506101206129df8d828e01612620565b9150509295989b9194979a5092959850565b60008060008060008060008060006101208a8c031215612a1057600080fd5b6000612a1e8c828d0161260b565b9950506020612a2f8c828d0161260b565b9850506040612a408c828d0161260b565b9750506060612a518c828d0161260b565b9650506080612a628c828d0161260b565b95505060a0612a738c828d0161260b565b94505060c0612a848c828d0161260b565b93505060e0612a958c828d01612620565b925050610100612aa78c828d0161252e565b9150509295985092959850929598565b6000612ac38383612af6565b60208301905092915050565b6000612adb8383612ff7565b60208301905092915050565b612af08161369c565b82525050565b612aff816135ff565b82525050565b612b0e816135ff565b82525050565b6000612b1f8261356a565b612b2981856135b0565b9350612b348361354a565b8060005b83811015612b65578151612b4c8882612ab7565b9750612b5783613596565b925050600181019050612b38565b5085935050505092915050565b6000612b7d82613575565b612b8781856135c1565b9350612b928361355a565b8060005b83811015612bc3578151612baa8882612acf565b9750612bb5836135a3565b925050600181019050612b96565b5085935050505092915050565b612bd981613611565b82525050565b612be88161361d565b82525050565b612bf781613627565b82525050565b6000612c0882613580565b612c1281856135d2565b9350612c2281856020860161375f565b612c2b816137c0565b840191505092915050565b612c47612c42826136ae565b613792565b82525050565b612c56816136d2565b82525050565b612c65816136f6565b82525050565b612c748161371a565b82525050565b6000612c858261358b565b612c8f81856135f4565b9350612c9f81856020860161375f565b80840191505092915050565b6000612cb8601b836135e3565b91507f43414c4c45525f4d5553545f42455f4c454e44494e475f504f4f4c00000000006000830152602082019050919050565b6000612cf86026836135e3565b91507f4f776e61626c653a206e6577206f776e657220697320746865207a65726f206160008301527f64647265737300000000000000000000000000000000000000000000000000006020830152604082019050919050565b6000612d5e601b836135e3565b91507f536166654d6174683a206164646974696f6e206f766572666c6f7700000000006000830152602082019050919050565b6000612d9e6023836135e3565b91507f756e61626c6520746f207472616e73666572416e6443616c6c20746f206f726160008301527f636c6500000000000000000000000000000000000000000000000000000000006020830152604082019050919050565b6000612e046004836135f4565b91507f42555344000000000000000000000000000000000000000000000000000000006000830152600482019050919050565b6000612e446004836135f4565b91507f55534454000000000000000000000000000000000000000000000000000000006000830152600482019050919050565b6000612e846020836135e3565b91507f4f776e61626c653a2063616c6c6572206973206e6f7420746865206f776e65726000830152602082019050919050565b6000612ec46004836135f4565b91507f54555344000000000000000000000000000000000000000000000000000000006000830152600482019050919050565b6000612f046003836135f4565b91507f44414900000000000000000000000000000000000000000000000000000000006000830152600382019050919050565b6000612f446000836135d2565b9150600082019050919050565b6000612f5e6028836135e3565b91507f536f75726365206d75737420626520746865206f7261636c65206f662074686560008301527f20726571756573740000000000000000000000000000000000000000000000006020830152604082019050919050565b6000612fc46004836135f4565b91507f55534443000000000000000000000000000000000000000000000000000000006000830152600482019050919050565b61300081613681565b82525050565b61300f81613681565b82525050565b61302661302182613681565b6137b6565b82525050565b60006130388285612c36565b6014820191506130488284613015565b6020820191508190509392505050565b60006130648284612c7a565b915081905092915050565b600061307a82612df7565b9150819050919050565b600061308f82612e37565b9150819050919050565b60006130a482612eb7565b9150819050919050565b60006130b982612ef7565b9150819050919050565b60006130ce82612fb7565b9150819050919050565b60006020820190506130ed6000830184612b05565b92915050565b600060e0820190506131086000830189612ae7565b818103602083015261311a8188612b14565b9050818103604083015261312e8187612b72565b905081810360608301526131428186612b72565b90506131516080830185612b05565b81810360a083015261316281612f37565b905061317160c0830184612c6b565b979650505050505050565b60006040820190506131916000830185612b05565b61319e6020830184612b05565b9392505050565b60006040820190506131ba6000830185612b05565b6131c76020830184613006565b9392505050565b60006080820190506131e36000830187612b05565b6131f06020830186613006565b6131fd6040830185612ae7565b61320a6060830184612c6b565b95945050505050565b60006080820190506132286000830187612b05565b6132356020830186613006565b6132426040830185612b05565b61324f6060830184612c6b565b95945050505050565b60006101008201905061326e600083018b612b05565b61327b602083018a613006565b6132886040830189612bdf565b6132956060830188612b05565b6132a26080830187612bee565b6132af60a0830186613006565b6132bc60c0830185613006565b81810360e08301526132ce8184612bfd565b90509998505050505050505050565b60006060820190506132f26000830186612b05565b6132ff6020830185613006565b81810360408301526133118184612bfd565b9050949350505050565b60006020820190506133306000830184612bd0565b92915050565b600060408201905061334b6000830185612bd0565b6133586020830184613006565b9392505050565b60006020820190506133746000830184612c4d565b92915050565b600060208201905061338f6000830184612c5c565b92915050565b600060208201905081810360008301526133ae81612cab565b9050919050565b600060208201905081810360008301526133ce81612ceb565b9050919050565b600060208201905081810360008301526133ee81612d51565b9050919050565b6000602082019050818103600083015261340e81612d91565b9050919050565b6000602082019050818103600083015261342e81612e77565b9050919050565b6000602082019050818103600083015261344e81612f51565b9050919050565b60006101408201905061346b600083018d613006565b613478602083018c613006565b613485604083018b613006565b613492606083018a613006565b61349f6080830189613006565b6134ac60a0830188613006565b6134b960c0830187613006565b6134c660e0830186613006565b6134d4610100830185613006565b6134e2610120830184613006565b9b9a5050505050505050505050565b6000604051905081810181811067ffffffffffffffff8211171561351457600080fd5b8060405250919050565b600067ffffffffffffffff82111561353557600080fd5b601f19601f8301169050602081019050919050565b6000819050602082019050919050565b6000819050602082019050919050565b600081519050919050565b600081519050919050565b600081519050919050565b600081519050919050565b6000602082019050919050565b6000602082019050919050565b600082825260208201905092915050565b600082825260208201905092915050565b600082825260208201905092915050565b600082825260208201905092915050565b600081905092915050565b600061360a82613661565b9050919050565b60008115159050919050565b6000819050919050565b60007fffffffff0000000000000000000000000000000000000000000000000000000082169050919050565b600061ffff82169050919050565b600073ffffffffffffffffffffffffffffffffffffffff82169050919050565b6000819050919050565b600064ffffffffff82169050919050565b60006136a78261372c565b9050919050565b60006136b9826136c0565b9050919050565b60006136cb82613661565b9050919050565b60006136dd826136e4565b9050919050565b60006136ef82613661565b9050919050565b600061370182613708565b9050919050565b600061371382613661565b9050919050565b600061372582613653565b9050919050565b60006137378261373e565b9050919050565b600061374982613661565b9050919050565b82818337600083830152505050565b60005b8381101561377d578082015181840152602081019050613762565b8381111561378c576000848401525b50505050565b600061379d826137a4565b9050919050565b60006137af826137d1565b9050919050565b6000819050919050565b6000601f19601f8301169050919050565b60008160601b9050919050565b6137e7816135ff565b81146137f257600080fd5b50565b6137fe81613611565b811461380957600080fd5b50565b6138158161361d565b811461382057600080fd5b50565b61382c81613681565b811461383757600080fd5b50565b6138438161368b565b811461384e57600080fd5b5056fea2646970667358221220180a3b7075e075ebddc43fe7615437e51adb528836be89e38829250c5920d4f764736f6c634300060c0033",
  "linkReferences": {},
  "deployedLinkReferences": {}
}