{
  "_format": "hh-sol-artifact-1",
  "contractName": "StableRatioSwap",
  "sourceName": "contracts/StableRatioSwap.sol",
  "abi": [
    {
      "inputs": [],
      "stateMutability": "nonpayable",
      "type": "constructor"
    },
    {
      "anonymous": false,
      "inputs": [
        {
          "indexed": true,
          "internalType": "bytes32",
          "name": "id",
          "type": "bytes32"
        }
      ],
      "name": "ChainlinkCancelled",
      "type": "event"
    },
    {
      "anonymous": false,
      "inputs": [
        {
          "indexed": true,
          "internalType": "bytes32",
          "name": "id",
          "type": "bytes32"
        }
      ],
      "name": "ChainlinkFulfilled",
      "type": "event"
    },
    {
      "anonymous": false,
      "inputs": [
        {
          "indexed": true,
          "internalType": "bytes32",
          "name": "id",
          "type": "bytes32"
        }
      ],
      "name": "ChainlinkRequested",
      "type": "event"
    },
    {
      "anonymous": false,
      "inputs": [
        {
          "indexed": false,
          "internalType": "bool",
          "name": "createUserStatus",
          "type": "bool"
        }
      ],
      "name": "CreateUser",
      "type": "event"
    },
    {
      "anonymous": false,
      "inputs": [
        {
          "indexed": false,
          "internalType": "uint256",
          "name": "tusd",
          "type": "uint256"
        },
        {
          "indexed": false,
          "internalType": "uint256",
          "name": "decimalsTusd",
          "type": "uint256"
        },
        {
          "indexed": false,
          "internalType": "uint256",
          "name": "usdc",
          "type": "uint256"
        },
        {
          "indexed": false,
          "internalType": "uint256",
          "name": "decimalsUsdc",
          "type": "uint256"
        },
        {
          "indexed": false,
          "internalType": "uint256",
          "name": "usdt",
          "type": "uint256"
        },
        {
          "indexed": false,
          "internalType": "uint256",
          "name": "decimalsUsdt",
          "type": "uint256"
        },
        {
          "indexed": false,
          "internalType": "uint256",
          "name": "dai",
          "type": "uint256"
        },
        {
          "indexed": false,
          "internalType": "uint256",
          "name": "decimalsDai",
          "type": "uint256"
        },
        {
          "indexed": false,
          "internalType": "uint256",
          "name": "busd",
          "type": "uint256"
        },
        {
          "indexed": false,
          "internalType": "uint256",
          "name": "decimalsBusd",
          "type": "uint256"
        }
      ],
      "name": "Deposit",
      "type": "event"
    },
    {
      "anonymous": false,
      "inputs": [
        {
          "indexed": false,
          "internalType": "bool",
          "name": "optInStatus",
          "type": "bool"
        }
      ],
      "name": "OptInToggle",
      "type": "event"
    },
    {
      "anonymous": false,
      "inputs": [
        {
          "indexed": true,
          "internalType": "address",
          "name": "previousOwner",
          "type": "address"
        },
        {
          "indexed": true,
          "internalType": "address",
          "name": "newOwner",
          "type": "address"
        }
      ],
      "name": "OwnershipTransferred",
      "type": "event"
    },
    {
      "anonymous": false,
      "inputs": [
        {
          "indexed": false,
          "internalType": "bool",
          "name": "swapStatus",
          "type": "bool"
        }
      ],
      "name": "SwapStablecoinDeposit",
      "type": "event"
    },
    {
      "inputs": [],
      "name": "ADDRESSES_PROVIDER",
      "outputs": [
        {
          "internalType": "contract ILendingPoolAddressesProvider",
          "name": "",
          "type": "address"
        }
      ],
      "stateMutability": "view",
      "type": "function"
    },
    {
      "inputs": [],
      "name": "LENDING_POOL",
      "outputs": [
        {
          "internalType": "contract ILendingPool",
          "name": "",
          "type": "address"
        }
      ],
      "stateMutability": "view",
      "type": "function"
    },
    {
      "inputs": [],
      "name": "createUser",
      "outputs": [],
      "stateMutability": "nonpayable",
      "type": "function"
    },
    {
      "inputs": [
        {
          "internalType": "uint256",
          "name": "amount",
          "type": "uint256"
        },
        {
          "internalType": "string",
          "name": "tokenType",
          "type": "string"
        },
        {
          "internalType": "address",
          "name": "sender",
          "type": "address"
        }
      ],
      "name": "deposit",
      "outputs": [],
      "stateMutability": "nonpayable",
      "type": "function"
    },
    {
      "inputs": [
        {
          "internalType": "address[]",
          "name": "assets",
          "type": "address[]"
        },
        {
          "internalType": "uint256[]",
          "name": "amounts",
          "type": "uint256[]"
        },
        {
          "internalType": "uint256[]",
          "name": "premiums",
          "type": "uint256[]"
        },
        {
          "internalType": "address",
          "name": "initiator",
          "type": "address"
        },
        {
          "internalType": "bytes",
          "name": "params",
          "type": "bytes"
        }
      ],
      "name": "executeOperation",
      "outputs": [
        {
          "internalType": "bool",
          "name": "",
          "type": "bool"
        }
      ],
      "stateMutability": "nonpayable",
      "type": "function"
    },
    {
      "inputs": [],
      "name": "getAllStablecoinDeposits",
      "outputs": [],
      "stateMutability": "nonpayable",
      "type": "function"
    },
    {
      "inputs": [
        {
          "internalType": "bytes32",
          "name": "_requestID",
          "type": "bytes32"
        },
        {
          "internalType": "uint256",
          "name": "_ratio",
          "type": "uint256"
        }
      ],
      "name": "getTUSDRatio",
      "outputs": [],
      "stateMutability": "nonpayable",
      "type": "function"
    },
    {
      "inputs": [],
      "name": "optInToggle",
      "outputs": [],
      "stateMutability": "nonpayable",
      "type": "function"
    },
    {
      "inputs": [],
      "name": "owner",
      "outputs": [
        {
          "internalType": "address",
          "name": "",
          "type": "address"
        }
      ],
      "stateMutability": "view",
      "type": "function"
    },
    {
      "inputs": [],
      "name": "renounceOwnership",
      "outputs": [],
      "stateMutability": "nonpayable",
      "type": "function"
    },
    {
      "inputs": [],
      "name": "swapStablecoinDeposit",
      "outputs": [],
      "stateMutability": "nonpayable",
      "type": "function"
    },
    {
      "inputs": [
        {
          "internalType": "address",
          "name": "newOwner",
          "type": "address"
        }
      ],
      "name": "transferOwnership",
      "outputs": [],
      "stateMutability": "nonpayable",
      "type": "function"
    }
  ],
  "bytecode": "0x608060405260016004553480156200001657600080fd5b50600062000029620001e160201b60201c565b905080600660006101000a81548173ffffffffffffffffffffffffffffffffffffffff021916908373ffffffffffffffffffffffffffffffffffffffff1602179055508073ffffffffffffffffffffffffffffffffffffffff16600073ffffffffffffffffffffffffffffffffffffffff167f8be0079c531659141344cd1fd0a4f28419497f9722a3daafe3b4186f6b6457e060405160405180910390a3506001600d604051620000da9062000361565b908152602001604051809103902060006101000a81548160ff0219169083151502179055506001600d60405162000111906200038f565b908152602001604051809103902060006101000a81548160ff0219169083151502179055506001600d60405162000148906200034a565b908152602001604051809103902060006101000a81548160ff0219169083151502179055506001600d6040516200017f9062000378565b908152602001604051809103902060006101000a81548160ff0219169083151502179055506001600d604051620001b69062000333565b908152602001604051809103902060006101000a81548160ff021916908315150217905550620003b1565b600033905090565b6000620001f8600483620003a6565b91507f42555344000000000000000000000000000000000000000000000000000000006000830152600482019050919050565b60006200023a600483620003a6565b91507f55534454000000000000000000000000000000000000000000000000000000006000830152600482019050919050565b60006200027c600483620003a6565b91507f54555344000000000000000000000000000000000000000000000000000000006000830152600482019050919050565b6000620002be600383620003a6565b91507f44414900000000000000000000000000000000000000000000000000000000006000830152600382019050919050565b600062000300600483620003a6565b91507f55534443000000000000000000000000000000000000000000000000000000006000830152600482019050919050565b60006200034082620001e9565b9150819050919050565b600062000357826200022b565b9150819050919050565b60006200036e826200026d565b9150819050919050565b60006200038582620002af565b9150819050919050565b60006200039c82620002f1565b9150819050919050565b600081905092915050565b61362180620003c16000396000f3fe608060405234801561001057600080fd5b50600436106100b35760003560e01c8063715018a611610071578063715018a61461012c5780638da5cb5b14610136578063920f5c8414610154578063b4dcfc7714610184578063db8fd057146101a2578063f2fde38b146101ac576100b3565b8062393f2b146100b85780630542975c146100d457806306791a56146100f257806325ad91ce1461010e5780632783879f1461011857806332eefcf514610122575b600080fd5b6100d260048036038101906100cd91906124fe565b6101c8565b005b6100dc610392565b6040516100e991906130d1565b60405180910390f35b61010c600480360381019061010791906124c2565b6103b8565b005b6101166104c9565b005b610120610717565b005b61012a6108ca565b005b6101346109fc565b005b61013e610b54565b60405161014b9190612eb8565b60405180910390f35b61016e600480360381019061016991906123b1565b610b7e565b60405161017b91906130b6565b60405180910390f35b61018c610d49565b60405161019991906130ec565b60405180910390f35b6101aa610d6f565b005b6101c660048036038101906101c19190612388565b611221565b005b600d826040516101d89190612e38565b908152602001604051809103902060009054906101000a900460ff166101fd57600080fd5b6000600c8360405161020f9190612e38565b908152602001604051809103902060009054906101000a900473ffffffffffffffffffffffffffffffffffffffff1690508073ffffffffffffffffffffffffffffffffffffffff1663095ea7b3600860009054906101000a900473ffffffffffffffffffffffffffffffffffffffff16866040518363ffffffff1660e01b815260040161029d929190612f85565b602060405180830381600087803b1580156102b757600080fd5b505af11580156102cb573d6000803e3d6000fd5b505050506040513d601f19601f820116820180604052508101906102ef9190612499565b6102f857600080fd5b600f60009054906101000a900473ffffffffffffffffffffffffffffffffffffffff1673ffffffffffffffffffffffffffffffffffffffff1663e8eda9df82868560006040518563ffffffff1660e01b815260040161035a9493929190612fae565b600060405180830381600087803b15801561037457600080fd5b505af1158015610388573d6000803e3d6000fd5b5050505050505050565b600e60009054906101000a900473ffffffffffffffffffffffffffffffffffffffff1681565b816005600082815260200190815260200160002060009054906101000a900473ffffffffffffffffffffffffffffffffffffffff1673ffffffffffffffffffffffffffffffffffffffff163373ffffffffffffffffffffffffffffffffffffffff161461045a576040517f08c379a0000000000000000000000000000000000000000000000000000000008152600401610451906131c7565b60405180910390fd5b6005600082815260200190815260200160002060006101000a81549073ffffffffffffffffffffffffffffffffffffffff0219169055807f7cc135e0cebb02c3480ae5d74d377283180a2601f8f644edf7987b009316c63a60405160405180910390a281600981905550505050565b600073ffffffffffffffffffffffffffffffffffffffff16600b60003373ffffffffffffffffffffffffffffffffffffffff1673ffffffffffffffffffffffffffffffffffffffff16815260200190815260200160002060000160009054906101000a900473ffffffffffffffffffffffffffffffffffffffff1673ffffffffffffffffffffffffffffffffffffffff1614156106dc5733600b60003373ffffffffffffffffffffffffffffffffffffffff1673ffffffffffffffffffffffffffffffffffffffff16815260200190815260200160002060000160006101000a81548173ffffffffffffffffffffffffffffffffffffffff021916908373ffffffffffffffffffffffffffffffffffffffff1602179055506000600b60003373ffffffffffffffffffffffffffffffffffffffff1673ffffffffffffffffffffffffffffffffffffffff16815260200190815260200160002060000160146101000a81548160ff021916908315150217905550600a339080600181540180825580915050600190039060005260206000200160009091909190916101000a81548173ffffffffffffffffffffffffffffffffffffffff021916908373ffffffffffffffffffffffffffffffffffffffff1602179055507f2b865278e72421ded897b30277b72c654fe5b824c08eb97de6fabdeff85d55cc60016040516106cf91906130b6565b60405180910390a1610715565b7f2b865278e72421ded897b30277b72c654fe5b824c08eb97de6fabdeff85d55cc600060405161070c91906130b6565b60405180910390a15b565b600080610759336040518060400160405280600481526020017f54555344000000000000000000000000000000000000000000000000000000008152506113e8565b9150915060008061079f336040518060400160405280600481526020017f55534443000000000000000000000000000000000000000000000000000000008152506113e8565b915091506000806107e5336040518060400160405280600481526020017f55534454000000000000000000000000000000000000000000000000000000008152506113e8565b9150915060008061082b336040518060400160405280600381526020017f44414900000000000000000000000000000000000000000000000000000000008152506113e8565b91509150600080610871336040518060400160405280600481526020017f42555344000000000000000000000000000000000000000000000000000000008152506113e8565b915091507fcba97513dec0228148df1128e10872c5d5955a8002536c209bd915fdc7abe9888a8a8a8a8a8a8a8a8a8a6040516108b69a99989796959493929190613225565b60405180910390a150505050505050505050565b600b60003373ffffffffffffffffffffffffffffffffffffffff1673ffffffffffffffffffffffffffffffffffffffff16815260200190815260200160002060000160149054906101000a900460ff1615600b60003373ffffffffffffffffffffffffffffffffffffffff1673ffffffffffffffffffffffffffffffffffffffff16815260200190815260200160002060000160146101000a81548160ff0219169083151502179055507f7ebb6fb163dd741d0bc3e9634b5c5bef95a5519bc08ca96b0ec823b771b6481f600b60003373ffffffffffffffffffffffffffffffffffffffff1673ffffffffffffffffffffffffffffffffffffffff16815260200190815260200160002060000160149054906101000a900460ff166040516109f291906130b6565b60405180910390a1565b610a046115b1565b73ffffffffffffffffffffffffffffffffffffffff16600660009054906101000a900473ffffffffffffffffffffffffffffffffffffffff1673ffffffffffffffffffffffffffffffffffffffff1614610a93576040517f08c379a0000000000000000000000000000000000000000000000000000000008152600401610a8a90613187565b60405180910390fd5b600073ffffffffffffffffffffffffffffffffffffffff16600660009054906101000a900473ffffffffffffffffffffffffffffffffffffffff1673ffffffffffffffffffffffffffffffffffffffff167f8be0079c531659141344cd1fd0a4f28419497f9722a3daafe3b4186f6b6457e060405160405180910390a36000600660006101000a81548173ffffffffffffffffffffffffffffffffffffffff021916908373ffffffffffffffffffffffffffffffffffffffff160217905550565b6000600660009054906101000a900473ffffffffffffffffffffffffffffffffffffffff16905090565b6000600f60009054906101000a900473ffffffffffffffffffffffffffffffffffffffff1673ffffffffffffffffffffffffffffffffffffffff163373ffffffffffffffffffffffffffffffffffffffff1614610c10576040517f08c379a0000000000000000000000000000000000000000000000000000000008152600401610c0790613107565b60405180910390fd5b60005b8a8a9050811015610d37576000610c57888884818110610c2f57fe5b905060200201358b8b85818110610c4257fe5b905060200201356115b990919063ffffffff16565b90508b8b83818110610c6557fe5b9050602002016020810190610c7a9190612388565b73ffffffffffffffffffffffffffffffffffffffff1663095ea7b3600f60009054906101000a900473ffffffffffffffffffffffffffffffffffffffff16836040518363ffffffff1660e01b8152600401610cd6929190612f85565b602060405180830381600087803b158015610cf057600080fd5b505af1158015610d04573d6000803e3d6000fd5b505050506040513d601f19601f82011682018060405250810190610d289190612499565b50508080600101915050610c13565b50600190509998505050505050505050565b600f60009054906101000a900473ffffffffffffffffffffffffffffffffffffffff1681565b610d7761160e565b61271060095411610dbd576040517f08c379a0000000000000000000000000000000000000000000000000000000008152600401610db4906131a7565b60405180910390fd5b60606000610dc9611674565b915091506060600167ffffffffffffffff81118015610de757600080fd5b50604051908082528060200260200182016040528015610e165781602001602082028036833780820191505090505b509050600181600081518110610e2857fe5b6020026020010181815250506060600167ffffffffffffffff81118015610e4e57600080fd5b50604051908082528060200260200182016040528015610e7d5781602001602082028036833780820191505090505b509050600c604051610e8e90612e79565b908152602001604051809103902060009054906101000a900473ffffffffffffffffffffffffffffffffffffffff1681600081518110610eca57fe5b602002602001019073ffffffffffffffffffffffffffffffffffffffff16908173ffffffffffffffffffffffffffffffffffffffff168152505060005b600a805490508110156111e257600b6000600a8381548110610f2557fe5b9060005260206000200160009054906101000a900473ffffffffffffffffffffffffffffffffffffffff1673ffffffffffffffffffffffffffffffffffffffff1673ffffffffffffffffffffffffffffffffffffffff16815260200190815260200160002060000160149054906101000a900460ff16156111d5576060600167ffffffffffffffff81118015610fba57600080fd5b50604051908082528060200260200182016040528015610fe95781602001602082028036833780820191505090505b509050611062600a8381548110610ffc57fe5b9060005260206000200160009054906101000a900473ffffffffffffffffffffffffffffffffffffffff166040518060400160405280600481526020017f54555344000000000000000000000000000000000000000000000000000000008152506113e8565b508160008151811061107057fe5b6020026020010181815250506000600a838154811061108b57fe5b9060005260206000200160009054906101000a900473ffffffffffffffffffffffffffffffffffffffff169050600f60009054906101000a900473ffffffffffffffffffffffffffffffffffffffff1673ffffffffffffffffffffffffffffffffffffffff1663ab9c4b5d308685898660006040518763ffffffff1660e01b815260040161111e96959493929190612efc565b600060405180830381600087803b15801561113857600080fd5b505af115801561114c573d6000803e3d6000fd5b505050503073ffffffffffffffffffffffffffffffffffffffff1662393f2b8360008151811061117857fe5b602002602001015189846040518463ffffffff1660e01b81526004016111a0939291906131e7565b600060405180830381600087803b1580156111ba57600080fd5b505af11580156111ce573d6000803e3d6000fd5b5050505050505b8080600101915050610f07565b507f1922d8bba2bcfcecd96e544352026b38e05680c5ca01efe52042fac8c549a56c600160405161121391906130b6565b60405180910390a150505050565b6112296115b1565b73ffffffffffffffffffffffffffffffffffffffff16600660009054906101000a900473ffffffffffffffffffffffffffffffffffffffff1673ffffffffffffffffffffffffffffffffffffffff16146112b8576040517f08c379a00000000000000000000000000000000000000000000000000000000081526004016112af90613187565b60405180910390fd5b600073ffffffffffffffffffffffffffffffffffffffff168173ffffffffffffffffffffffffffffffffffffffff161415611328576040517f08c379a000000000000000000000000000000000000000000000000000000000815260040161131f90613127565b60405180910390fd5b8073ffffffffffffffffffffffffffffffffffffffff16600660009054906101000a900473ffffffffffffffffffffffffffffffffffffffff1673ffffffffffffffffffffffffffffffffffffffff167f8be0079c531659141344cd1fd0a4f28419497f9722a3daafe3b4186f6b6457e060405160405180910390a380600660006101000a81548173ffffffffffffffffffffffffffffffffffffffff021916908373ffffffffffffffffffffffffffffffffffffffff16021790555050565b6000806000600c846040516113fd9190612e38565b908152602001604051809103902060009054906101000a900473ffffffffffffffffffffffffffffffffffffffff1690506000600760009054906101000a900473ffffffffffffffffffffffffffffffffffffffff1673ffffffffffffffffffffffffffffffffffffffff166328dd2d0183886040518363ffffffff1660e01b815260040161148d929190612ed3565b6101206040518083038186803b1580156114a657600080fd5b505afa1580156114ba573d6000803e3d6000fd5b505050506040513d601f19601f820116820180604052508101906114de919061271b565b505050505050505090506000600760009054906101000a900473ffffffffffffffffffffffffffffffffffffffff1673ffffffffffffffffffffffffffffffffffffffff16633e150141846040518263ffffffff1660e01b81526004016115459190612eb8565b6101406040518083038186803b15801561155e57600080fd5b505afa158015611572573d6000803e3d6000fd5b505050506040513d601f19601f820116820180604052508101906115969190612565565b50505050505050505090508181945094505050509250929050565b600033905090565b600080828401905083811015611604576040517f08c379a00000000000000000000000000000000000000000000000000000000081526004016115fb90613147565b60405180910390fd5b8091505092915050565b611616612151565b6116487f3335653134646264343930663465336239666265393262383562333264393861306306791a5660e01b611d92565b905061167073fc153f49e74711c3140ca06bfacf42ffdc492a1782662386f26fc10000611dc3565b5050565b606060008060009050600060606040518060400160405280600481526020017f54555344000000000000000000000000000000000000000000000000000000008152509050600760009054906101000a900473ffffffffffffffffffffffffffffffffffffffff1673ffffffffffffffffffffffffffffffffffffffff166335ea6a75600c60405161170590612e79565b908152602001604051809103902060009054906101000a900473ffffffffffffffffffffffffffffffffffffffff166040518263ffffffff1660e01b81526004016117509190612eb8565b6101406040518083038186803b15801561176957600080fd5b505afa15801561177d573d6000803e3d6000fd5b505050506040513d601f19601f820116820180604052508101906117a19190612640565b909192939495969798509091929394959697509091929394959650909192939450909192935090919250909150905050809250506117df8383611f8d565b9250600760009054906101000a900473ffffffffffffffffffffffffffffffffffffffff1673ffffffffffffffffffffffffffffffffffffffff166335ea6a75600c60405161182d90612ea3565b908152602001604051809103902060009054906101000a900473ffffffffffffffffffffffffffffffffffffffff166040518263ffffffff1660e01b81526004016118789190612eb8565b6101406040518083038186803b15801561189157600080fd5b505afa1580156118a5573d6000803e3d6000fd5b505050506040513d601f19601f820116820180604052508101906118c99190612640565b909192939495969798509091929394959697509091929394959650909192939450909192935090919250909150905050809250506119078383611f8d565b92508183141561194a576040518060400160405280600481526020017f555344430000000000000000000000000000000000000000000000000000000081525090505b600760009054906101000a900473ffffffffffffffffffffffffffffffffffffffff1673ffffffffffffffffffffffffffffffffffffffff166335ea6a75600c60405161199690612e64565b908152602001604051809103902060009054906101000a900473ffffffffffffffffffffffffffffffffffffffff166040518263ffffffff1660e01b81526004016119e19190612eb8565b6101406040518083038186803b1580156119fa57600080fd5b505afa158015611a0e573d6000803e3d6000fd5b505050506040513d601f19601f82011682018060405250810190611a329190612640565b90919293949596979850909192939495969750909192939495965090919293945090919293509091925090915090505080925050611a708383611f8d565b925081831415611ab3576040518060400160405280600481526020017f555344540000000000000000000000000000000000000000000000000000000081525090505b600760009054906101000a900473ffffffffffffffffffffffffffffffffffffffff1673ffffffffffffffffffffffffffffffffffffffff166335ea6a75600c604051611aff90612e8e565b908152602001604051809103902060009054906101000a900473ffffffffffffffffffffffffffffffffffffffff166040518263ffffffff1660e01b8152600401611b4a9190612eb8565b6101406040518083038186803b158015611b6357600080fd5b505afa158015611b77573d6000803e3d6000fd5b505050506040513d601f19601f82011682018060405250810190611b9b9190612640565b90919293949596979850909192939495969750909192939495965090919293945090919293509091925090915090505080925050611bd98383611f8d565b925081831415611c1c576040518060400160405280600381526020017f444149000000000000000000000000000000000000000000000000000000000081525090505b600760009054906101000a900473ffffffffffffffffffffffffffffffffffffffff1673ffffffffffffffffffffffffffffffffffffffff166335ea6a75600c604051611c6890612e4f565b908152602001604051809103902060009054906101000a900473ffffffffffffffffffffffffffffffffffffffff166040518263ffffffff1660e01b8152600401611cb39190612eb8565b6101406040518083038186803b158015611ccc57600080fd5b505afa158015611ce0573d6000803e3d6000fd5b505050506040513d601f19601f82011682018060405250810190611d049190612640565b90919293949596979850909192939495969750909192939495965090919293945090919293509091925090915090505080925050611d428383611f8d565b925081831415611d85576040518060400160405280600481526020017f425553440000000000000000000000000000000000000000000000000000000081525090505b8083945094505050509091565b611d9a612151565b611da2612151565b611db985858584611fa6909392919063ffffffff16565b9150509392505050565b600030600454604051602001611dda929190612e0c565b604051602081830303815290604052805190602001209050600454836060018181525050836005600083815260200190815260200160002060006101000a81548173ffffffffffffffffffffffffffffffffffffffff021916908373ffffffffffffffffffffffffffffffffffffffff160217905550807fb5e6e01e79f91267dc17b4e6314d5d4d03593d2ceee0fbb452b750bd70ea5af960405160405180910390a2600260009054906101000a900473ffffffffffffffffffffffffffffffffffffffff1673ffffffffffffffffffffffffffffffffffffffff16634000aea08584611ec687612056565b6040518463ffffffff1660e01b8152600401611ee493929190613078565b602060405180830381600087803b158015611efe57600080fd5b505af1158015611f12573d6000803e3d6000fd5b505050506040513d601f19601f82011682018060405250810190611f369190612499565b611f75576040517f08c379a0000000000000000000000000000000000000000000000000000000008152600401611f6c90613167565b60405180910390fd5b60016004600082825401925050819055509392505050565b6000818311611f9c5781611f9e565b825b905092915050565b611fae612151565b611fbe85608001516101006120fd565b508385600001818152505082856020019073ffffffffffffffffffffffffffffffffffffffff16908173ffffffffffffffffffffffffffffffffffffffff16815250508185604001907bffffffffffffffffffffffffffffffffffffffffffffffffffffffff191690817bffffffffffffffffffffffffffffffffffffffffffffffffffffffff191681525050849050949350505050565b6060634042994660e01b60008084600001518560200151866040015187606001516001896080015160000151604051602401612099989796959493929190612ff3565b604051602081830303815290604052907bffffffffffffffffffffffffffffffffffffffffffffffffffffffff19166020820180517bffffffffffffffffffffffffffffffffffffffffffffffffffffffff83818316178352505050509050919050565b6121056121be565b60006020838161211157fe5b061461212a576020828161212157fe5b06602003820191505b81836020018181525050604051808452600081528281016020016040525082905092915050565b6040518060a0016040528060008019168152602001600073ffffffffffffffffffffffffffffffffffffffff16815260200160007bffffffffffffffffffffffffffffffffffffffffffffffffffffffff19168152602001600081526020016121b86121be565b81525090565b604051806040016040528060608152602001600081525090565b6000813590506121e781613578565b92915050565b60008083601f8401126121ff57600080fd5b8235905067ffffffffffffffff81111561221857600080fd5b60208301915083602082028301111561223057600080fd5b9250929050565b60008083601f84011261224957600080fd5b8235905067ffffffffffffffff81111561226257600080fd5b60208301915083602082028301111561227a57600080fd5b9250929050565b6000815190506122908161358f565b92915050565b6000813590506122a5816135a6565b92915050565b60008083601f8401126122bd57600080fd5b8235905067ffffffffffffffff8111156122d657600080fd5b6020830191508360018202830111156122ee57600080fd5b9250929050565b600082601f83011261230657600080fd5b8135612319612314826132ee565b6132c1565b9150808252602083016020830185838301111561233557600080fd5b6123408382846134ea565b50505092915050565b600081359050612358816135bd565b92915050565b60008151905061236d816135bd565b92915050565b600081519050612382816135d4565b92915050565b60006020828403121561239a57600080fd5b60006123a8848285016121d8565b91505092915050565b600080600080600080600080600060a08a8c0312156123cf57600080fd5b60008a013567ffffffffffffffff8111156123e957600080fd5b6123f58c828d016121ed565b995099505060208a013567ffffffffffffffff81111561241457600080fd5b6124208c828d01612237565b975097505060408a013567ffffffffffffffff81111561243f57600080fd5b61244b8c828d01612237565b9550955050606061245e8c828d016121d8565b93505060808a013567ffffffffffffffff81111561247b57600080fd5b6124878c828d016122ab565b92509250509295985092959850929598565b6000602082840312156124ab57600080fd5b60006124b984828501612281565b91505092915050565b600080604083850312156124d557600080fd5b60006124e385828601612296565b92505060206124f485828601612349565b9150509250929050565b60008060006060848603121561251357600080fd5b600061252186828701612349565b935050602084013567ffffffffffffffff81111561253e57600080fd5b61254a868287016122f5565b925050604061255b868287016121d8565b9150509250925092565b6000806000806000806000806000806101408b8d03121561258557600080fd5b60006125938d828e0161235e565b9a505060206125a48d828e0161235e565b99505060406125b58d828e0161235e565b98505060606125c68d828e0161235e565b97505060806125d78d828e0161235e565b96505060a06125e88d828e01612281565b95505060c06125f98d828e01612281565b94505060e061260a8d828e01612281565b93505061010061261c8d828e01612281565b92505061012061262e8d828e01612281565b9150509295989b9194979a5092959850565b6000806000806000806000806000806101408b8d03121561266057600080fd5b600061266e8d828e0161235e565b9a5050602061267f8d828e0161235e565b99505060406126908d828e0161235e565b98505060606126a18d828e0161235e565b97505060806126b28d828e0161235e565b96505060a06126c38d828e0161235e565b95505060c06126d48d828e0161235e565b94505060e06126e58d828e0161235e565b9350506101006126f78d828e0161235e565b9250506101206127098d828e01612373565b9150509295989b9194979a5092959850565b60008060008060008060008060006101208a8c03121561273a57600080fd5b60006127488c828d0161235e565b99505060206127598c828d0161235e565b985050604061276a8c828d0161235e565b975050606061277b8c828d0161235e565b965050608061278c8c828d0161235e565b95505060a061279d8c828d0161235e565b94505060c06127ae8c828d0161235e565b93505060e06127bf8c828d01612373565b9250506101006127d18c828d01612281565b9150509295985092959850929598565b60006127ed8383612811565b60208301905092915050565b60006128058383612dd7565b60208301905092915050565b61281a816133cf565b82525050565b612829816133cf565b82525050565b600061283a8261333a565b6128448185613380565b935061284f8361331a565b8060005b8381101561288057815161286788826127e1565b975061287283613366565b925050600181019050612853565b5085935050505092915050565b600061289882613345565b6128a28185613391565b93506128ad8361332a565b8060005b838110156128de5781516128c588826127f9565b97506128d083613373565b9250506001810190506128b1565b5085935050505092915050565b6128f4816133e1565b82525050565b612903816133ed565b82525050565b612912816133f7565b82525050565b600061292382613350565b61292d81856133a2565b935061293d8185602086016134f9565b6129468161355a565b840191505092915050565b61296261295d8261346c565b61352c565b82525050565b61297181613490565b82525050565b612980816134b4565b82525050565b61298f816134d8565b82525050565b60006129a08261335b565b6129aa81856133b3565b93506129ba8185602086016134f9565b6129c38161355a565b840191505092915050565b60006129d98261335b565b6129e381856133c4565b93506129f38185602086016134f9565b80840191505092915050565b6000612a0c601b836133b3565b91507f43414c4c45525f4d5553545f42455f4c454e44494e475f504f4f4c00000000006000830152602082019050919050565b6000612a4c6026836133b3565b91507f4f776e61626c653a206e6577206f776e657220697320746865207a65726f206160008301527f64647265737300000000000000000000000000000000000000000000000000006020830152604082019050919050565b6000612ab2601b836133b3565b91507f536166654d6174683a206164646974696f6e206f766572666c6f7700000000006000830152602082019050919050565b6000612af26023836133b3565b91507f756e61626c6520746f207472616e73666572416e6443616c6c20746f206f726160008301527f636c6500000000000000000000000000000000000000000000000000000000006020830152604082019050919050565b6000612b586004836133c4565b91507f42555344000000000000000000000000000000000000000000000000000000006000830152600482019050919050565b6000612b986004836133c4565b91507f55534454000000000000000000000000000000000000000000000000000000006000830152600482019050919050565b6000612bd86020836133b3565b91507f4f776e61626c653a2063616c6c6572206973206e6f7420746865206f776e65726000830152602082019050919050565b6000612c186004836133c4565b91507f54555344000000000000000000000000000000000000000000000000000000006000830152600482019050919050565b6000612c586003836133c4565b91507f44414900000000000000000000000000000000000000000000000000000000006000830152600382019050919050565b6000612c986000836133a2565b9150600082019050919050565b6000612cb26046836133b3565b91507f546865207472616e73616374696f6e207465726d696e6174656420626563617560008301527f736520746865205455534420726174696f206973206e6f74206269676765722060208301527f7468616e203100000000000000000000000000000000000000000000000000006040830152606082019050919050565b6000612d3e6028836133b3565b91507f536f75726365206d75737420626520746865206f7261636c65206f662074686560008301527f20726571756573740000000000000000000000000000000000000000000000006020830152604082019050919050565b6000612da46004836133c4565b91507f55534443000000000000000000000000000000000000000000000000000000006000830152600482019050919050565b612de081613451565b82525050565b612def81613451565b82525050565b612e06612e0182613451565b613550565b82525050565b6000612e188285612951565b601482019150612e288284612df5565b6020820191508190509392505050565b6000612e4482846129ce565b915081905092915050565b6000612e5a82612b4b565b9150819050919050565b6000612e6f82612b8b565b9150819050919050565b6000612e8482612c0b565b9150819050919050565b6000612e9982612c4b565b9150819050919050565b6000612eae82612d97565b9150819050919050565b6000602082019050612ecd6000830184612820565b92915050565b6000604082019050612ee86000830185612820565b612ef56020830184612820565b9392505050565b600060e082019050612f116000830189612820565b8181036020830152612f23818861282f565b90508181036040830152612f37818761288d565b90508181036060830152612f4b818661288d565b9050612f5a6080830185612820565b81810360a0830152612f6b81612c8b565b9050612f7a60c0830184612986565b979650505050505050565b6000604082019050612f9a6000830185612820565b612fa76020830184612de6565b9392505050565b6000608082019050612fc36000830187612820565b612fd06020830186612de6565b612fdd6040830185612820565b612fea6060830184612986565b95945050505050565b600061010082019050613009600083018b612820565b613016602083018a612de6565b61302360408301896128fa565b6130306060830188612820565b61303d6080830187612909565b61304a60a0830186612de6565b61305760c0830185612de6565b81810360e08301526130698184612918565b90509998505050505050505050565b600060608201905061308d6000830186612820565b61309a6020830185612de6565b81810360408301526130ac8184612918565b9050949350505050565b60006020820190506130cb60008301846128eb565b92915050565b60006020820190506130e66000830184612968565b92915050565b60006020820190506131016000830184612977565b92915050565b60006020820190508181036000830152613120816129ff565b9050919050565b6000602082019050818103600083015261314081612a3f565b9050919050565b6000602082019050818103600083015261316081612aa5565b9050919050565b6000602082019050818103600083015261318081612ae5565b9050919050565b600060208201905081810360008301526131a081612bcb565b9050919050565b600060208201905081810360008301526131c081612ca5565b9050919050565b600060208201905081810360008301526131e081612d31565b9050919050565b60006060820190506131fc6000830186612de6565b818103602083015261320e8185612995565b905061321d6040830184612820565b949350505050565b60006101408201905061323b600083018d612de6565b613248602083018c612de6565b613255604083018b612de6565b613262606083018a612de6565b61326f6080830189612de6565b61327c60a0830188612de6565b61328960c0830187612de6565b61329660e0830186612de6565b6132a4610100830185612de6565b6132b2610120830184612de6565b9b9a5050505050505050505050565b6000604051905081810181811067ffffffffffffffff821117156132e457600080fd5b8060405250919050565b600067ffffffffffffffff82111561330557600080fd5b601f19601f8301169050602081019050919050565b6000819050602082019050919050565b6000819050602082019050919050565b600081519050919050565b600081519050919050565b600081519050919050565b600081519050919050565b6000602082019050919050565b6000602082019050919050565b600082825260208201905092915050565b600082825260208201905092915050565b600082825260208201905092915050565b600082825260208201905092915050565b600081905092915050565b60006133da82613431565b9050919050565b60008115159050919050565b6000819050919050565b60007fffffffff0000000000000000000000000000000000000000000000000000000082169050919050565b600061ffff82169050919050565b600073ffffffffffffffffffffffffffffffffffffffff82169050919050565b6000819050919050565b600064ffffffffff82169050919050565b60006134778261347e565b9050919050565b600061348982613431565b9050919050565b600061349b826134a2565b9050919050565b60006134ad82613431565b9050919050565b60006134bf826134c6565b9050919050565b60006134d182613431565b9050919050565b60006134e382613423565b9050919050565b82818337600083830152505050565b60005b838110156135175780820151818401526020810190506134fc565b83811115613526576000848401525b50505050565b60006135378261353e565b9050919050565b60006135498261356b565b9050919050565b6000819050919050565b6000601f19601f8301169050919050565b60008160601b9050919050565b613581816133cf565b811461358c57600080fd5b50565b613598816133e1565b81146135a357600080fd5b50565b6135af816133ed565b81146135ba57600080fd5b50565b6135c681613451565b81146135d157600080fd5b50565b6135dd8161345b565b81146135e857600080fd5b5056fea264697066735822122006d63f88feb3e2e469e676e4b190151ddede278e8225a7819dcf3fc4014dfb7464736f6c634300060c0033",
  "linkReferences": {},
  "deployedLinkReferences": {}
}