{
  "_format": "hh-sol-artifact-1",
  "contractName": "StableRatioSwap",
  "sourceName": "contracts/StableRatioSwap.sol",
  "abi": [
    {
      "inputs": [],
      "stateMutability": "nonpayable",
      "type": "constructor"
    },
    {
      "anonymous": false,
      "inputs": [
        {
          "indexed": false,
          "internalType": "uint256",
          "name": "tusd",
          "type": "uint256"
        },
        {
          "indexed": false,
          "internalType": "uint256",
          "name": "decimalsTusd",
          "type": "uint256"
        },
        {
          "indexed": false,
          "internalType": "uint256",
          "name": "usdc",
          "type": "uint256"
        },
        {
          "indexed": false,
          "internalType": "uint256",
          "name": "decimalsUsdc",
          "type": "uint256"
        },
        {
          "indexed": false,
          "internalType": "uint256",
          "name": "usdt",
          "type": "uint256"
        },
        {
          "indexed": false,
          "internalType": "uint256",
          "name": "decimalsUsdt",
          "type": "uint256"
        },
        {
          "indexed": false,
          "internalType": "uint256",
          "name": "dai",
          "type": "uint256"
        },
        {
          "indexed": false,
          "internalType": "uint256",
          "name": "decimalsDai",
          "type": "uint256"
        },
        {
          "indexed": false,
          "internalType": "uint256",
          "name": "busd",
          "type": "uint256"
        },
        {
          "indexed": false,
          "internalType": "uint256",
          "name": "decimalsBusd",
          "type": "uint256"
        }
      ],
      "name": "AllDeposits",
      "type": "event"
    },
    {
      "anonymous": false,
      "inputs": [
        {
          "indexed": true,
          "internalType": "bytes32",
          "name": "id",
          "type": "bytes32"
        }
      ],
      "name": "ChainlinkCancelled",
      "type": "event"
    },
    {
      "anonymous": false,
      "inputs": [
        {
          "indexed": true,
          "internalType": "bytes32",
          "name": "id",
          "type": "bytes32"
        }
      ],
      "name": "ChainlinkFulfilled",
      "type": "event"
    },
    {
      "anonymous": false,
      "inputs": [
        {
          "indexed": true,
          "internalType": "bytes32",
          "name": "id",
          "type": "bytes32"
        }
      ],
      "name": "ChainlinkRequested",
      "type": "event"
    },
    {
      "anonymous": false,
      "inputs": [
        {
          "indexed": false,
          "internalType": "bool",
          "name": "createUserStatus",
          "type": "bool"
        }
      ],
      "name": "CreateUser",
      "type": "event"
    },
    {
      "anonymous": false,
      "inputs": [
        {
          "indexed": false,
          "internalType": "bool",
          "name": "depositStatus",
          "type": "bool"
        }
      ],
      "name": "Deposit",
      "type": "event"
    },
    {
      "anonymous": false,
      "inputs": [
        {
          "indexed": false,
          "internalType": "bool",
          "name": "optInStatus",
          "type": "bool"
        }
      ],
      "name": "OptInToggle",
      "type": "event"
    },
    {
      "anonymous": false,
      "inputs": [
        {
          "indexed": true,
          "internalType": "address",
          "name": "previousOwner",
          "type": "address"
        },
        {
          "indexed": true,
          "internalType": "address",
          "name": "newOwner",
          "type": "address"
        }
      ],
      "name": "OwnershipTransferred",
      "type": "event"
    },
    {
      "anonymous": false,
      "inputs": [
        {
          "indexed": false,
          "internalType": "bool",
          "name": "swapStatus",
          "type": "bool"
        },
        {
          "indexed": false,
          "internalType": "uint256",
          "name": "ratio",
          "type": "uint256"
        }
      ],
      "name": "SwapStablecoinDeposit",
      "type": "event"
    },
    {
      "inputs": [],
      "name": "ADDRESSES_PROVIDER",
      "outputs": [
        {
          "internalType": "contract ILendingPoolAddressesProvider",
          "name": "",
          "type": "address"
        }
      ],
      "stateMutability": "view",
      "type": "function"
    },
    {
      "inputs": [],
      "name": "LENDING_POOL",
      "outputs": [
        {
          "internalType": "contract ILendingPool",
          "name": "",
          "type": "address"
        }
      ],
      "stateMutability": "view",
      "type": "function"
    },
    {
      "inputs": [],
      "name": "createUser",
      "outputs": [],
      "stateMutability": "nonpayable",
      "type": "function"
    },
    {
      "inputs": [
        {
          "internalType": "uint256",
          "name": "amount",
          "type": "uint256"
        },
        {
          "internalType": "string",
          "name": "tokenType",
          "type": "string"
        },
        {
          "internalType": "address",
          "name": "sender",
          "type": "address"
        }
      ],
      "name": "deposit",
      "outputs": [],
      "stateMutability": "nonpayable",
      "type": "function"
    },
    {
      "inputs": [
        {
          "internalType": "address[]",
          "name": "assets",
          "type": "address[]"
        },
        {
          "internalType": "uint256[]",
          "name": "amounts",
          "type": "uint256[]"
        },
        {
          "internalType": "uint256[]",
          "name": "premiums",
          "type": "uint256[]"
        },
        {
          "internalType": "address",
          "name": "initiator",
          "type": "address"
        },
        {
          "internalType": "bytes",
          "name": "params",
          "type": "bytes"
        }
      ],
      "name": "executeOperation",
      "outputs": [
        {
          "internalType": "bool",
          "name": "",
          "type": "bool"
        }
      ],
      "stateMutability": "nonpayable",
      "type": "function"
    },
    {
      "inputs": [],
      "name": "getAllStablecoinDeposits",
      "outputs": [],
      "stateMutability": "nonpayable",
      "type": "function"
    },
    {
      "inputs": [],
      "name": "optInToggle",
      "outputs": [],
      "stateMutability": "nonpayable",
      "type": "function"
    },
    {
      "inputs": [],
      "name": "owner",
      "outputs": [
        {
          "internalType": "address",
          "name": "",
          "type": "address"
        }
      ],
      "stateMutability": "view",
      "type": "function"
    },
    {
      "inputs": [],
      "name": "renounceOwnership",
      "outputs": [],
      "stateMutability": "nonpayable",
      "type": "function"
    },
    {
      "inputs": [
        {
          "internalType": "bool",
          "name": "force",
          "type": "bool"
        }
      ],
      "name": "swapStablecoinDeposit",
      "outputs": [],
      "stateMutability": "nonpayable",
      "type": "function"
    },
    {
      "inputs": [
        {
          "internalType": "address",
          "name": "newOwner",
          "type": "address"
        }
      ],
      "name": "transferOwnership",
      "outputs": [],
      "stateMutability": "nonpayable",
      "type": "function"
    },
    {
      "stateMutability": "payable",
      "type": "receive"
    }
  ],
  "bytecode": "0x608060405260016004553480156200001657600080fd5b506000620000296200066c60201b60201c565b905080600660006101000a81548173ffffffffffffffffffffffffffffffffffffffff021916908373ffffffffffffffffffffffffffffffffffffffff1602179055508073ffffffffffffffffffffffffffffffffffffffff16600073ffffffffffffffffffffffffffffffffffffffff167f8be0079c531659141344cd1fd0a4f28419497f9722a3daafe3b4186f6b6457e060405160405180910390a350620000d86200067460201b60201c565b733c73a5e5785cac854d468f727c606c07488a29d6600760006101000a81548173ffffffffffffffffffffffffffffffffffffffff021916908373ffffffffffffffffffffffffffffffffffffffff1602179055507388757f2f99175387ab4c6a4b3067c77a695b0349601160006101000a81548173ffffffffffffffffffffffffffffffffffffffff021916908373ffffffffffffffffffffffffffffffffffffffff160217905550601160009054906101000a900473ffffffffffffffffffffffffffffffffffffffff1673ffffffffffffffffffffffffffffffffffffffff16630261bf8b6040518163ffffffff1660e01b815260040160206040518083038186803b158015620001eb57600080fd5b505afa15801562000200573d6000803e3d6000fd5b505050506040513d601f19601f8201168201806040525081019062000226919062000777565b600860006101000a81548173ffffffffffffffffffffffffffffffffffffffff021916908373ffffffffffffffffffffffffffffffffffffffff160217905550600860009054906101000a900473ffffffffffffffffffffffffffffffffffffffff16601260006101000a81548173ffffffffffffffffffffffffffffffffffffffff021916908373ffffffffffffffffffffffffffffffffffffffff16021790555073016750ac630f711882812f24dba6c95b9d35856d600f604051620002ee906200091b565b908152602001604051809103902060006101000a81548173ffffffffffffffffffffffffffffffffffffffff021916908373ffffffffffffffffffffffffffffffffffffffff16021790555073e22da380ee6b445bb8273c81944adeb6e8450422600f6040516200035f9062000949565b908152602001604051809103902060006101000a81548173ffffffffffffffffffffffffffffffffffffffff021916908373ffffffffffffffffffffffffffffffffffffffff1602179055507313512979ade267ab5100878e2e0f485b568328a4600f604051620003d09062000904565b908152602001604051809103902060006101000a81548173ffffffffffffffffffffffffffffffffffffffff021916908373ffffffffffffffffffffffffffffffffffffffff16021790555073ff795577d9ac8bd7d90ee22b6c1703490b6512fd600f604051620004419062000932565b908152602001604051809103902060006101000a81548173ffffffffffffffffffffffffffffffffffffffff021916908373ffffffffffffffffffffffffffffffffffffffff160217905550734c6e1efc12fdfd568186b7baec0a43fffb4bcccf600f604051620004b290620008ed565b908152602001604051809103902060006101000a81548173ffffffffffffffffffffffffffffffffffffffff021916908373ffffffffffffffffffffffffffffffffffffffff1602179055506001601060405162000510906200091b565b908152602001604051809103902060006101000a81548160ff02191690831515021790555060016010604051620005479062000949565b908152602001604051809103902060006101000a81548160ff021916908315150217905550600160106040516200057e9062000904565b908152602001604051809103902060006101000a81548160ff02191690831515021790555060016010604051620005b59062000932565b908152602001604051809103902060006101000a81548160ff02191690831515021790555060016010604051620005ec90620008ed565b908152602001604051809103902060006101000a81548160ff02191690831515021790555073e89019f746692de440244c8ecb9a2acb46c2ac7d601360006101000a81548173ffffffffffffffffffffffffffffffffffffffff021916908373ffffffffffffffffffffffffffffffffffffffff160217905550620009b9565b600033905090565b6200071a73c89bd4e1632d3a43cb03aaad5262cbe4038bc57173ffffffffffffffffffffffffffffffffffffffff166338cc48316040518163ffffffff1660e01b815260040160206040518083038186803b158015620006d357600080fd5b505afa158015620006e8573d6000803e3d6000fd5b505050506040513d601f19601f820116820180604052508101906200070e919062000777565b6200071c60201b60201c565b565b80600260006101000a81548173ffffffffffffffffffffffffffffffffffffffff021916908373ffffffffffffffffffffffffffffffffffffffff16021790555050565b60008151905062000771816200099f565b92915050565b6000602082840312156200078a57600080fd5b60006200079a8482850162000760565b91505092915050565b6000620007b260048362000960565b91507f42555344000000000000000000000000000000000000000000000000000000006000830152600482019050919050565b6000620007f460048362000960565b91507f55534454000000000000000000000000000000000000000000000000000000006000830152600482019050919050565b60006200083660048362000960565b91507f54555344000000000000000000000000000000000000000000000000000000006000830152600482019050919050565b60006200087860038362000960565b91507f44414900000000000000000000000000000000000000000000000000000000006000830152600382019050919050565b6000620008ba60048362000960565b91507f55534443000000000000000000000000000000000000000000000000000000006000830152600482019050919050565b6000620008fa82620007a3565b9150819050919050565b60006200091182620007e5565b9150819050919050565b6000620009288262000827565b9150819050919050565b60006200093f8262000869565b9150819050919050565b60006200095682620008ab565b9150819050919050565b600081905092915050565b600062000978826200097f565b9050919050565b600073ffffffffffffffffffffffffffffffffffffffff82169050919050565b620009aa816200096b565b8114620009b657600080fd5b50565b612ecc80620009c96000396000f3fe60806040526004361061009f5760003560e01c8063715018a611610064578063715018a6146101445780638da5cb5b1461015b578063920f5c8414610186578063b4dcfc77146101c3578063c2bc4dc1146101ee578063f2fde38b14610217576100a6565b8062393f2b146100ab5780630542975c146100d457806325ad91ce146100ff5780632783879f1461011657806332eefcf51461012d576100a6565b366100a657005b600080fd5b3480156100b757600080fd5b506100d260048036038101906100cd9190612034565b610240565b005b3480156100e057600080fd5b506100e961027a565b6040516100f69190612a85565b60405180910390f35b34801561010b57600080fd5b506101146102a0565b005b34801561012257600080fd5b5061012b610549565b005b34801561013957600080fd5b506101426106fc565b005b34801561015057600080fd5b5061015961082e565b005b34801561016757600080fd5b50610170610986565b60405161017d9190612868565b60405180910390f35b34801561019257600080fd5b506101ad60048036038101906101a89190611efa565b6109b0565b6040516101ba919061294b565b60405180910390f35b3480156101cf57600080fd5b506101d86109c3565b6040516101e59190612aa0565b60405180910390f35b3480156101fa57600080fd5b5061021560048036038101906102109190611fe2565b6109e9565b005b34801561022357600080fd5b5061023e60048036038101906102399190611ed1565b610a4f565b005b60108260405161025091906127e8565b908152602001604051809103902060009054906101000a900460ff1661027557600080fd5b505050565b601160009054906101000a900473ffffffffffffffffffffffffffffffffffffffff1681565b600073ffffffffffffffffffffffffffffffffffffffff16600e60003373ffffffffffffffffffffffffffffffffffffffff1673ffffffffffffffffffffffffffffffffffffffff16815260200190815260200160002060000160009054906101000a900473ffffffffffffffffffffffffffffffffffffffff1673ffffffffffffffffffffffffffffffffffffffff16141561050e5733600e60003373ffffffffffffffffffffffffffffffffffffffff1673ffffffffffffffffffffffffffffffffffffffff16815260200190815260200160002060000160006101000a81548173ffffffffffffffffffffffffffffffffffffffff021916908373ffffffffffffffffffffffffffffffffffffffff1602179055506001600e60003373ffffffffffffffffffffffffffffffffffffffff1673ffffffffffffffffffffffffffffffffffffffff16815260200190815260200160002060000160146101000a81548160ff0219169083151502179055506000600e60003373ffffffffffffffffffffffffffffffffffffffff1673ffffffffffffffffffffffffffffffffffffffff16815260200190815260200160002060000160156101000a81548160ff021916908315150217905550600d339080600181540180825580915050600190039060005260206000200160009091909190916101000a81548173ffffffffffffffffffffffffffffffffffffffff021916908373ffffffffffffffffffffffffffffffffffffffff1602179055507f2b865278e72421ded897b30277b72c654fe5b824c08eb97de6fabdeff85d55cc6001604051610501919061294b565b60405180910390a1610547565b7f2b865278e72421ded897b30277b72c654fe5b824c08eb97de6fabdeff85d55cc600060405161053e919061294b565b60405180910390a15b565b60008061058b336040518060400160405280600481526020017f5455534400000000000000000000000000000000000000000000000000000000815250610c16565b915091506000806105d1336040518060400160405280600481526020017f5553444300000000000000000000000000000000000000000000000000000000815250610c16565b91509150600080610617336040518060400160405280600481526020017f5553445400000000000000000000000000000000000000000000000000000000815250610c16565b9150915060008061065d336040518060400160405280600381526020017f4441490000000000000000000000000000000000000000000000000000000000815250610c16565b915091506000806106a3336040518060400160405280600481526020017f4255534400000000000000000000000000000000000000000000000000000000815250610c16565b915091507f155b00305b2e5bdc0d6a3e34cf7ffbccdb1c25ab69c2059181928f6f61f2b4758a8a8a8a8a8a8a8a8a8a6040516106e89a99989796959493929190612afb565b60405180910390a150505050505050505050565b600e60003373ffffffffffffffffffffffffffffffffffffffff1673ffffffffffffffffffffffffffffffffffffffff16815260200190815260200160002060000160149054906101000a900460ff1615600e60003373ffffffffffffffffffffffffffffffffffffffff1673ffffffffffffffffffffffffffffffffffffffff16815260200190815260200160002060000160146101000a81548160ff0219169083151502179055507f7ebb6fb163dd741d0bc3e9634b5c5bef95a5519bc08ca96b0ec823b771b6481f600e60003373ffffffffffffffffffffffffffffffffffffffff1673ffffffffffffffffffffffffffffffffffffffff16815260200190815260200160002060000160149054906101000a900460ff16604051610824919061294b565b60405180910390a1565b610836610e14565b73ffffffffffffffffffffffffffffffffffffffff16600660009054906101000a900473ffffffffffffffffffffffffffffffffffffffff1673ffffffffffffffffffffffffffffffffffffffff16146108c5576040517f08c379a00000000000000000000000000000000000000000000000000000000081526004016108bc90612adb565b60405180910390fd5b600073ffffffffffffffffffffffffffffffffffffffff16600660009054906101000a900473ffffffffffffffffffffffffffffffffffffffff1673ffffffffffffffffffffffffffffffffffffffff167f8be0079c531659141344cd1fd0a4f28419497f9722a3daafe3b4186f6b6457e060405160405180910390a36000600660006101000a81548173ffffffffffffffffffffffffffffffffffffffff021916908373ffffffffffffffffffffffffffffffffffffffff160217905550565b6000600660009054906101000a900473ffffffffffffffffffffffffffffffffffffffff16905090565b6000600190509998505050505050505050565b601260009054906101000a900473ffffffffffffffffffffffffffffffffffffffff1681565b6001600e60003373ffffffffffffffffffffffffffffffffffffffff1673ffffffffffffffffffffffffffffffffffffffff16815260200190815260200160002060000160156101000a81548160ff021916908315150217905550610a4c610e1c565b50565b610a57610e14565b73ffffffffffffffffffffffffffffffffffffffff16600660009054906101000a900473ffffffffffffffffffffffffffffffffffffffff1673ffffffffffffffffffffffffffffffffffffffff1614610ae6576040517f08c379a0000000000000000000000000000000000000000000000000000000008152600401610add90612adb565b60405180910390fd5b600073ffffffffffffffffffffffffffffffffffffffff168173ffffffffffffffffffffffffffffffffffffffff161415610b56576040517f08c379a0000000000000000000000000000000000000000000000000000000008152600401610b4d90612abb565b60405180910390fd5b8073ffffffffffffffffffffffffffffffffffffffff16600660009054906101000a900473ffffffffffffffffffffffffffffffffffffffff1673ffffffffffffffffffffffffffffffffffffffff167f8be0079c531659141344cd1fd0a4f28419497f9722a3daafe3b4186f6b6457e060405160405180910390a380600660006101000a81548173ffffffffffffffffffffffffffffffffffffffff021916908373ffffffffffffffffffffffffffffffffffffffff16021790555050565b600080601083604051610c2991906127e8565b908152602001604051809103902060009054906101000a900460ff16610c4e57600080fd5b6000600f84604051610c6091906127e8565b908152602001604051809103902060009054906101000a900473ffffffffffffffffffffffffffffffffffffffff1690506000600760009054906101000a900473ffffffffffffffffffffffffffffffffffffffff1673ffffffffffffffffffffffffffffffffffffffff166328dd2d0183886040518363ffffffff1660e01b8152600401610cf0929190612883565b6101206040518083038186803b158015610d0957600080fd5b505afa158015610d1d573d6000803e3d6000fd5b505050506040513d601f19601f82011682018060405250810190610d419190612251565b505050505050505090506000600760009054906101000a900473ffffffffffffffffffffffffffffffffffffffff1673ffffffffffffffffffffffffffffffffffffffff16633e150141846040518263ffffffff1660e01b8152600401610da89190612868565b6101406040518083038186803b158015610dc157600080fd5b505afa158015610dd5573d6000803e3d6000fd5b505050506040513d601f19601f82011682018060405250810190610df9919061209b565b50505050505050505090508181945094505050509250929050565b600033905090565b7f9393266a0edf3831afe7674c86dae0421b971ab0821c1930755ffa0b09a1d87160006062604051610e4f929190612a33565b60405180910390a16060600167ffffffffffffffff81118015610e7157600080fd5b50604051908082528060200260200182016040528015610ea05781602001602082028036833780820191505090505b509050600f604051610eb190612829565b908152602001604051809103902060009054906101000a900473ffffffffffffffffffffffffffffffffffffffff1681600081518110610eed57fe5b602002602001019073ffffffffffffffffffffffffffffffffffffffff16908173ffffffffffffffffffffffffffffffffffffffff16815250506060610f316115b2565b509050600f81604051610f4491906127e8565b908152602001604051809103902060009054906101000a900473ffffffffffffffffffffffffffffffffffffffff16600c60006101000a81548173ffffffffffffffffffffffffffffffffffffffff021916908373ffffffffffffffffffffffffffffffffffffffff1602179055506060600167ffffffffffffffff81118015610fcd57600080fd5b50604051908082528060200260200182016040528015610ffc5781602001602082028036833780820191505090505b509050600c60009054906101000a900473ffffffffffffffffffffffffffffffffffffffff168160008151811061102f57fe5b602002602001019073ffffffffffffffffffffffffffffffffffffffff16908173ffffffffffffffffffffffffffffffffffffffff16815250506060600167ffffffffffffffff8111801561108357600080fd5b506040519080825280602002602001820160405280156110b25781602001602082028036833780820191505090505b5090507f9393266a0edf3831afe7674c86dae0421b971ab0821c1930755ffa0b09a1d871600060636040516110e8929190612a5c565b60405180910390a161112f336040518060400160405280600481526020017f5455534400000000000000000000000000000000000000000000000000000000815250610c16565b508160008151811061113d57fe5b6020026020010181815250506060600167ffffffffffffffff8111801561116357600080fd5b506040519080825280602002602001820160405280156111925781602001602082028036833780820191505090505b5090506000816000815181106111a457fe5b6020026020010181815250506060600167ffffffffffffffff811180156111ca57600080fd5b506040519080825280602002602001820160405280156111f95781602001602082028036833780820191505090505b50905060008160008151811061120b57fe5b602002602001019060ff16908160ff16815250507f9393266a0edf3831afe7674c86dae0421b971ab0821c1930755ffa0b09a1d87160006065604051611252929190612966565b60405180910390a1600061129b336040518060400160405280600481526020017f5455534400000000000000000000000000000000000000000000000000000000815250610c16565b5090506000600f420190507f9393266a0edf3831afe7674c86dae0421b971ab0821c1930755ffa0b09a1d871600060666040516112d992919061298f565b60405180910390a16060600167ffffffffffffffff811180156112fb57600080fd5b5060405190808252806020026020018201604052801561133557816020015b611322611ce9565b81526020019060019003908161131a5790505b5090506040518060a00160405280848152602001838152602001600060ff1681526020016000801b81526020016000801b8152508160008151811061137657fe5b60200260200101819052507f9393266a0edf3831afe7674c86dae0421b971ab0821c1930755ffa0b09a1d871600060676040516113b49291906129b8565b60405180910390a1886000815181106113c957fe5b602002602001015173ffffffffffffffffffffffffffffffffffffffff1663095ea7b3600860009054906101000a900473ffffffffffffffffffffffffffffffffffffffff168860008151811061141c57fe5b60200260200101516040518363ffffffff1660e01b81526004016114419291906128ac565b602060405180830381600087803b15801561145b57600080fd5b505af115801561146f573d6000803e3d6000fd5b505050506040513d601f19601f82011682018060405250810190611493919061200b565b61149c57600080fd5b7f9393266a0edf3831afe7674c86dae0421b971ab0821c1930755ffa0b09a1d871600060686040516114cf9291906129e1565b60405180910390a1601360009054906101000a900473ffffffffffffffffffffffffffffffffffffffff1673ffffffffffffffffffffffffffffffffffffffff1663c400db708a898989866040518663ffffffff1660e01b815260040161153a9594939291906128d5565b600060405180830381600087803b15801561155457600080fd5b505af1158015611568573d6000803e3d6000fd5b505050507f9393266a0edf3831afe7674c86dae0421b971ab0821c1930755ffa0b09a1d8716001606960405161159f929190612a0a565b60405180910390a1505050505050505050565b606060008060009050600060606040518060400160405280600481526020017f54555344000000000000000000000000000000000000000000000000000000008152509050600760009054906101000a900473ffffffffffffffffffffffffffffffffffffffff1673ffffffffffffffffffffffffffffffffffffffff166335ea6a75600f60405161164390612829565b908152602001604051809103902060009054906101000a900473ffffffffffffffffffffffffffffffffffffffff166040518263ffffffff1660e01b815260040161168e9190612868565b6101406040518083038186803b1580156116a757600080fd5b505afa1580156116bb573d6000803e3d6000fd5b505050506040513d601f19601f820116820180604052508101906116df9190612176565b9091929394959697985090919293949596975090919293949596509091929394509091929350909192509091509050508092505061171d8383611cd0565b9250600760009054906101000a900473ffffffffffffffffffffffffffffffffffffffff1673ffffffffffffffffffffffffffffffffffffffff166335ea6a75600f60405161176b90612853565b908152602001604051809103902060009054906101000a900473ffffffffffffffffffffffffffffffffffffffff166040518263ffffffff1660e01b81526004016117b69190612868565b6101406040518083038186803b1580156117cf57600080fd5b505afa1580156117e3573d6000803e3d6000fd5b505050506040513d601f19601f820116820180604052508101906118079190612176565b909192939495969798509091929394959697509091929394959650909192939450909192935090919250909150905050809250506118458383611cd0565b925081831415611888576040518060400160405280600481526020017f555344430000000000000000000000000000000000000000000000000000000081525090505b600760009054906101000a900473ffffffffffffffffffffffffffffffffffffffff1673ffffffffffffffffffffffffffffffffffffffff166335ea6a75600f6040516118d490612814565b908152602001604051809103902060009054906101000a900473ffffffffffffffffffffffffffffffffffffffff166040518263ffffffff1660e01b815260040161191f9190612868565b6101406040518083038186803b15801561193857600080fd5b505afa15801561194c573d6000803e3d6000fd5b505050506040513d601f19601f820116820180604052508101906119709190612176565b909192939495969798509091929394959697509091929394959650909192939450909192935090919250909150905050809250506119ae8383611cd0565b9250818314156119f1576040518060400160405280600481526020017f555344540000000000000000000000000000000000000000000000000000000081525090505b600760009054906101000a900473ffffffffffffffffffffffffffffffffffffffff1673ffffffffffffffffffffffffffffffffffffffff166335ea6a75600f604051611a3d9061283e565b908152602001604051809103902060009054906101000a900473ffffffffffffffffffffffffffffffffffffffff166040518263ffffffff1660e01b8152600401611a889190612868565b6101406040518083038186803b158015611aa157600080fd5b505afa158015611ab5573d6000803e3d6000fd5b505050506040513d601f19601f82011682018060405250810190611ad99190612176565b90919293949596979850909192939495969750909192939495965090919293945090919293509091925090915090505080925050611b178383611cd0565b925081831415611b5a576040518060400160405280600381526020017f444149000000000000000000000000000000000000000000000000000000000081525090505b600760009054906101000a900473ffffffffffffffffffffffffffffffffffffffff1673ffffffffffffffffffffffffffffffffffffffff166335ea6a75600f604051611ba6906127ff565b908152602001604051809103902060009054906101000a900473ffffffffffffffffffffffffffffffffffffffff166040518263ffffffff1660e01b8152600401611bf19190612868565b6101406040518083038186803b158015611c0a57600080fd5b505afa158015611c1e573d6000803e3d6000fd5b505050506040513d601f19601f82011682018060405250810190611c429190612176565b90919293949596979850909192939495969750909192939495965090919293945090919293509091925090915090505080925050611c808383611cd0565b925081831415611cc3576040518060400160405280600481526020017f425553440000000000000000000000000000000000000000000000000000000081525090505b8083945094505050509091565b6000818311611cdf5781611ce1565b825b905092915050565b6040518060a001604052806000815260200160008152602001600060ff16815260200160008019168152602001600080191681525090565b600081359050611d3081612e3a565b92915050565b60008083601f840112611d4857600080fd5b8235905067ffffffffffffffff811115611d6157600080fd5b602083019150836020820283011115611d7957600080fd5b9250929050565b60008083601f840112611d9257600080fd5b8235905067ffffffffffffffff811115611dab57600080fd5b602083019150836020820283011115611dc357600080fd5b9250929050565b600081359050611dd981612e51565b92915050565b600081519050611dee81612e51565b92915050565b60008083601f840112611e0657600080fd5b8235905067ffffffffffffffff811115611e1f57600080fd5b602083019150836001820283011115611e3757600080fd5b9250929050565b600082601f830112611e4f57600080fd5b8135611e62611e5d82612bc4565b612b97565b91508082526020830160208301858383011115611e7e57600080fd5b611e89838284612df8565b50505092915050565b600081359050611ea181612e68565b92915050565b600081519050611eb681612e68565b92915050565b600081519050611ecb81612e7f565b92915050565b600060208284031215611ee357600080fd5b6000611ef184828501611d21565b91505092915050565b600080600080600080600080600060a08a8c031215611f1857600080fd5b60008a013567ffffffffffffffff811115611f3257600080fd5b611f3e8c828d01611d36565b995099505060208a013567ffffffffffffffff811115611f5d57600080fd5b611f698c828d01611d80565b975097505060408a013567ffffffffffffffff811115611f8857600080fd5b611f948c828d01611d80565b95509550506060611fa78c828d01611d21565b93505060808a013567ffffffffffffffff811115611fc457600080fd5b611fd08c828d01611df4565b92509250509295985092959850929598565b600060208284031215611ff457600080fd5b600061200284828501611dca565b91505092915050565b60006020828403121561201d57600080fd5b600061202b84828501611ddf565b91505092915050565b60008060006060848603121561204957600080fd5b600061205786828701611e92565b935050602084013567ffffffffffffffff81111561207457600080fd5b61208086828701611e3e565b925050604061209186828701611d21565b9150509250925092565b6000806000806000806000806000806101408b8d0312156120bb57600080fd5b60006120c98d828e01611ea7565b9a505060206120da8d828e01611ea7565b99505060406120eb8d828e01611ea7565b98505060606120fc8d828e01611ea7565b975050608061210d8d828e01611ea7565b96505060a061211e8d828e01611ddf565b95505060c061212f8d828e01611ddf565b94505060e06121408d828e01611ddf565b9350506101006121528d828e01611ddf565b9250506101206121648d828e01611ddf565b9150509295989b9194979a5092959850565b6000806000806000806000806000806101408b8d03121561219657600080fd5b60006121a48d828e01611ea7565b9a505060206121b58d828e01611ea7565b99505060406121c68d828e01611ea7565b98505060606121d78d828e01611ea7565b97505060806121e88d828e01611ea7565b96505060a06121f98d828e01611ea7565b95505060c061220a8d828e01611ea7565b94505060e061221b8d828e01611ea7565b93505061010061222d8d828e01611ea7565b92505061012061223f8d828e01611ebc565b9150509295989b9194979a5092959850565b60008060008060008060008060006101208a8c03121561227057600080fd5b600061227e8c828d01611ea7565b995050602061228f8c828d01611ea7565b98505060406122a08c828d01611ea7565b97505060606122b18c828d01611ea7565b96505060806122c28c828d01611ea7565b95505060a06122d38c828d01611ea7565b94505060c06122e48c828d01611ea7565b93505060e06122f58c828d01611ebc565b9250506101006123078c828d01611ddf565b9150509295985092959850929598565b6000612323838361235f565b60208301905092915050565b600061233b8383612753565b60a08301905092915050565b600061235383836127bb565b60208301905092915050565b61236881612cc2565b82525050565b61237781612cc2565b82525050565b600061238882612c20565b6123928185612c73565b935061239d83612bf0565b8060005b838110156123ce5781516123b58882612317565b97506123c083612c4c565b9250506001810190506123a1565b5085935050505092915050565b60006123e682612c2b565b6123f08185612c84565b93506123fb83612c00565b8060005b8381101561242c578151612413888261232f565b975061241e83612c59565b9250506001810190506123ff565b5085935050505092915050565b600061244482612c36565b61244e8185612c95565b935061245983612c10565b8060005b8381101561248a5781516124718882612347565b975061247c83612c66565b92505060018101905061245d565b5085935050505092915050565b6124a081612cd4565b82525050565b6124af81612ce0565b82525050565b6124be81612d32565b82525050565b6124cd81612d56565b82525050565b6124dc81612d7a565b82525050565b6124eb81612d8c565b82525050565b6124fa81612d9e565b82525050565b61250981612db0565b82525050565b61251881612dc2565b82525050565b61252781612dd4565b82525050565b61253681612de6565b82525050565b600061254782612c41565b6125518185612cb7565b9350612561818560208601612e07565b80840191505092915050565b600061257a602683612ca6565b91507f4f776e61626c653a206e6577206f776e657220697320746865207a65726f206160008301527f64647265737300000000000000000000000000000000000000000000000000006020830152604082019050919050565b60006125e0600483612cb7565b91507f42555344000000000000000000000000000000000000000000000000000000006000830152600482019050919050565b6000612620600483612cb7565b91507f55534454000000000000000000000000000000000000000000000000000000006000830152600482019050919050565b6000612660602083612ca6565b91507f4f776e61626c653a2063616c6c6572206973206e6f7420746865206f776e65726000830152602082019050919050565b60006126a0600483612cb7565b91507f54555344000000000000000000000000000000000000000000000000000000006000830152600482019050919050565b60006126e0600383612cb7565b91507f44414900000000000000000000000000000000000000000000000000000000006000830152600382019050919050565b6000612720600483612cb7565b91507f55534443000000000000000000000000000000000000000000000000000000006000830152600482019050919050565b60a08201600082015161276960008501826127bb565b50602082015161277c60208501826127bb565b50604082015161278f60408501826127d9565b5060608201516127a260608501826124a6565b5060808201516127b560808501826124a6565b50505050565b6127c481612d0a565b82525050565b6127d381612d0a565b82525050565b6127e281612d25565b82525050565b60006127f4828461253c565b915081905092915050565b600061280a826125d3565b9150819050919050565b600061281f82612613565b9150819050919050565b600061283482612693565b9150819050919050565b6000612849826126d3565b9150819050919050565b600061285e82612713565b9150819050919050565b600060208201905061287d600083018461236e565b92915050565b6000604082019050612898600083018561236e565b6128a5602083018461236e565b9392505050565b60006040820190506128c1600083018561236e565b6128ce60208301846127ca565b9392505050565b600060a08201905081810360008301526128ef818861237d565b90508181036020830152612903818761237d565b905081810360408301526129178186612439565b9050818103606083015261292b8185612439565b9050818103608083015261293f81846123db565b90509695505050505050565b60006020820190506129606000830184612497565b92915050565b600060408201905061297b6000830185612497565b61298860208301846124d3565b9392505050565b60006040820190506129a46000830185612497565b6129b160208301846124e2565b9392505050565b60006040820190506129cd6000830185612497565b6129da60208301846124f1565b9392505050565b60006040820190506129f66000830185612497565b612a036020830184612500565b9392505050565b6000604082019050612a1f6000830185612497565b612a2c602083018461250f565b9392505050565b6000604082019050612a486000830185612497565b612a55602083018461251e565b9392505050565b6000604082019050612a716000830185612497565b612a7e602083018461252d565b9392505050565b6000602082019050612a9a60008301846124b5565b92915050565b6000602082019050612ab560008301846124c4565b92915050565b60006020820190508181036000830152612ad48161256d565b9050919050565b60006020820190508181036000830152612af481612653565b9050919050565b600061014082019050612b11600083018d6127ca565b612b1e602083018c6127ca565b612b2b604083018b6127ca565b612b38606083018a6127ca565b612b4560808301896127ca565b612b5260a08301886127ca565b612b5f60c08301876127ca565b612b6c60e08301866127ca565b612b7a6101008301856127ca565b612b886101208301846127ca565b9b9a5050505050505050505050565b6000604051905081810181811067ffffffffffffffff82111715612bba57600080fd5b8060405250919050565b600067ffffffffffffffff821115612bdb57600080fd5b601f19601f8301169050602081019050919050565b6000819050602082019050919050565b6000819050602082019050919050565b6000819050602082019050919050565b600081519050919050565b600081519050919050565b600081519050919050565b600081519050919050565b6000602082019050919050565b6000602082019050919050565b6000602082019050919050565b600082825260208201905092915050565b600082825260208201905092915050565b600082825260208201905092915050565b600082825260208201905092915050565b600081905092915050565b6000612ccd82612cea565b9050919050565b60008115159050919050565b6000819050919050565b600073ffffffffffffffffffffffffffffffffffffffff82169050919050565b6000819050919050565b600064ffffffffff82169050919050565b600060ff82169050919050565b6000612d3d82612d44565b9050919050565b6000612d4f82612cea565b9050919050565b6000612d6182612d68565b9050919050565b6000612d7382612cea565b9050919050565b6000612d8582612d0a565b9050919050565b6000612d9782612d0a565b9050919050565b6000612da982612d0a565b9050919050565b6000612dbb82612d0a565b9050919050565b6000612dcd82612d0a565b9050919050565b6000612ddf82612d0a565b9050919050565b6000612df182612d0a565b9050919050565b82818337600083830152505050565b60005b83811015612e25578082015181840152602081019050612e0a565b83811115612e34576000848401525b50505050565b612e4381612cc2565b8114612e4e57600080fd5b50565b612e5a81612cd4565b8114612e6557600080fd5b50565b612e7181612d0a565b8114612e7c57600080fd5b50565b612e8881612d14565b8114612e9357600080fd5b5056fea2646970667358221220d2f1985c396d0a4556b3dfbf10cea1884228313fa8ceb44c7ca158f07aea4d3a64736f6c634300060c0033",
  "linkReferences": {},
  "deployedLinkReferences": {}
}