{
  "_format": "hh-sol-artifact-1",
  "contractName": "StableRatioSwap",
  "sourceName": "contracts/StableRatioSwap.sol",
  "abi": [
    {
      "inputs": [],
      "stateMutability": "nonpayable",
      "type": "constructor"
    },
    {
      "anonymous": false,
      "inputs": [
        {
          "indexed": false,
          "internalType": "bool",
          "name": "_bool",
          "type": "bool"
        }
      ],
      "name": "Bool",
      "type": "event"
    },
    {
      "anonymous": false,
      "inputs": [
        {
          "indexed": true,
          "internalType": "bytes32",
          "name": "id",
          "type": "bytes32"
        }
      ],
      "name": "ChainlinkCancelled",
      "type": "event"
    },
    {
      "anonymous": false,
      "inputs": [
        {
          "indexed": true,
          "internalType": "bytes32",
          "name": "id",
          "type": "bytes32"
        }
      ],
      "name": "ChainlinkFulfilled",
      "type": "event"
    },
    {
      "anonymous": false,
      "inputs": [
        {
          "indexed": true,
          "internalType": "bytes32",
          "name": "id",
          "type": "bytes32"
        }
      ],
      "name": "ChainlinkRequested",
      "type": "event"
    },
    {
      "anonymous": false,
      "inputs": [
        {
          "indexed": false,
          "internalType": "uint256",
          "name": "tusd",
          "type": "uint256"
        },
        {
          "indexed": false,
          "internalType": "uint256",
          "name": "decimalsTusd",
          "type": "uint256"
        },
        {
          "indexed": false,
          "internalType": "uint256",
          "name": "usdc",
          "type": "uint256"
        },
        {
          "indexed": false,
          "internalType": "uint256",
          "name": "decimalsUsdc",
          "type": "uint256"
        },
        {
          "indexed": false,
          "internalType": "uint256",
          "name": "usdt",
          "type": "uint256"
        },
        {
          "indexed": false,
          "internalType": "uint256",
          "name": "decimalsUsdt",
          "type": "uint256"
        },
        {
          "indexed": false,
          "internalType": "uint256",
          "name": "dai",
          "type": "uint256"
        },
        {
          "indexed": false,
          "internalType": "uint256",
          "name": "decimalsDai",
          "type": "uint256"
        },
        {
          "indexed": false,
          "internalType": "uint256",
          "name": "busd",
          "type": "uint256"
        },
        {
          "indexed": false,
          "internalType": "uint256",
          "name": "decimalsBusd",
          "type": "uint256"
        }
      ],
      "name": "Deposit",
      "type": "event"
    },
    {
      "anonymous": false,
      "inputs": [
        {
          "indexed": true,
          "internalType": "address",
          "name": "previousOwner",
          "type": "address"
        },
        {
          "indexed": true,
          "internalType": "address",
          "name": "newOwner",
          "type": "address"
        }
      ],
      "name": "OwnershipTransferred",
      "type": "event"
    },
    {
      "inputs": [],
      "name": "ADDRESSES_PROVIDER",
      "outputs": [
        {
          "internalType": "contract ILendingPoolAddressesProvider",
          "name": "",
          "type": "address"
        }
      ],
      "stateMutability": "view",
      "type": "function"
    },
    {
      "inputs": [],
      "name": "LENDING_POOL",
      "outputs": [
        {
          "internalType": "contract ILendingPool",
          "name": "",
          "type": "address"
        }
      ],
      "stateMutability": "view",
      "type": "function"
    },
    {
      "inputs": [],
      "name": "createUser",
      "outputs": [
        {
          "internalType": "bool",
          "name": "",
          "type": "bool"
        }
      ],
      "stateMutability": "nonpayable",
      "type": "function"
    },
    {
      "inputs": [
        {
          "internalType": "address[]",
          "name": "assets",
          "type": "address[]"
        },
        {
          "internalType": "uint256[]",
          "name": "amounts",
          "type": "uint256[]"
        },
        {
          "internalType": "uint256[]",
          "name": "premiums",
          "type": "uint256[]"
        },
        {
          "internalType": "address",
          "name": "initiator",
          "type": "address"
        },
        {
          "internalType": "bytes",
          "name": "params",
          "type": "bytes"
        }
      ],
      "name": "executeOperation",
      "outputs": [
        {
          "internalType": "bool",
          "name": "",
          "type": "bool"
        }
      ],
      "stateMutability": "nonpayable",
      "type": "function"
    },
    {
      "inputs": [],
      "name": "getAllStablecoinDeposits",
      "outputs": [
        {
          "internalType": "bool",
          "name": "",
          "type": "bool"
        }
      ],
      "stateMutability": "nonpayable",
      "type": "function"
    },
    {
      "inputs": [
        {
          "internalType": "bytes32",
          "name": "_requestID",
          "type": "bytes32"
        },
        {
          "internalType": "uint256",
          "name": "_ratio",
          "type": "uint256"
        }
      ],
      "name": "getTUSDRatio",
      "outputs": [],
      "stateMutability": "nonpayable",
      "type": "function"
    },
    {
      "inputs": [],
      "name": "optInToggle",
      "outputs": [
        {
          "internalType": "bool",
          "name": "",
          "type": "bool"
        }
      ],
      "stateMutability": "nonpayable",
      "type": "function"
    },
    {
      "inputs": [],
      "name": "owner",
      "outputs": [
        {
          "internalType": "address",
          "name": "",
          "type": "address"
        }
      ],
      "stateMutability": "view",
      "type": "function"
    },
    {
      "inputs": [],
      "name": "renounceOwnership",
      "outputs": [],
      "stateMutability": "nonpayable",
      "type": "function"
    },
    {
      "inputs": [],
      "name": "swapStablecoinDeposit",
      "outputs": [
        {
          "internalType": "bool",
          "name": "",
          "type": "bool"
        }
      ],
      "stateMutability": "nonpayable",
      "type": "function"
    },
    {
      "inputs": [
        {
          "internalType": "address",
          "name": "newOwner",
          "type": "address"
        }
      ],
      "name": "transferOwnership",
      "outputs": [],
      "stateMutability": "nonpayable",
      "type": "function"
    }
  ],
  "bytecode": "0x608060405260016004553480156200001657600080fd5b50600062000029620001e160201b60201c565b905080600660006101000a81548173ffffffffffffffffffffffffffffffffffffffff021916908373ffffffffffffffffffffffffffffffffffffffff1602179055508073ffffffffffffffffffffffffffffffffffffffff16600073ffffffffffffffffffffffffffffffffffffffff167f8be0079c531659141344cd1fd0a4f28419497f9722a3daafe3b4186f6b6457e060405160405180910390a3506001600d604051620000da9062000361565b908152602001604051809103902060006101000a81548160ff0219169083151502179055506001600d60405162000111906200038f565b908152602001604051809103902060006101000a81548160ff0219169083151502179055506001600d60405162000148906200034a565b908152602001604051809103902060006101000a81548160ff0219169083151502179055506001600d6040516200017f9062000378565b908152602001604051809103902060006101000a81548160ff0219169083151502179055506001600d604051620001b69062000333565b908152602001604051809103902060006101000a81548160ff021916908315150217905550620003b1565b600033905090565b6000620001f8600483620003a6565b91507f42555344000000000000000000000000000000000000000000000000000000006000830152600482019050919050565b60006200023a600483620003a6565b91507f55534454000000000000000000000000000000000000000000000000000000006000830152600482019050919050565b60006200027c600483620003a6565b91507f54555344000000000000000000000000000000000000000000000000000000006000830152600482019050919050565b6000620002be600383620003a6565b91507f44414900000000000000000000000000000000000000000000000000000000006000830152600382019050919050565b600062000300600483620003a6565b91507f55534443000000000000000000000000000000000000000000000000000000006000830152600482019050919050565b60006200034082620001e9565b9150819050919050565b600062000357826200022b565b9150819050919050565b60006200036e826200026d565b9150819050919050565b60006200038582620002af565b9150819050919050565b60006200039c82620002f1565b9150819050919050565b600081905092915050565b61347d80620003c16000396000f3fe608060405234801561001057600080fd5b50600436106100a95760003560e01c8063715018a611610071578063715018a6146101425780638da5cb5b1461014c578063920f5c841461016a578063b4dcfc771461019a578063db8fd057146101b8578063f2fde38b146101d6576100a9565b80630542975c146100ae57806306791a56146100cc57806325ad91ce146100e85780632783879f1461010657806332eefcf514610124575b600080fd5b6100b66101f2565b6040516100c39190612fd3565b60405180910390f35b6100e660048036038101906100e19190612464565b610218565b005b6100f0610329565b6040516100fd9190612fb8565b60405180910390f35b61010e610543565b60405161011b9190612fb8565b60405180910390f35b61012c6106fd565b6040516101399190612fb8565b60405180910390f35b61014a610884565b005b6101546109dc565b6040516101619190612dba565b60405180910390f35b610184600480360381019061017f9190612353565b610a06565b6040516101919190612fb8565b60405180910390f35b6101a2610bd1565b6040516101af9190612fee565b60405180910390f35b6101c0610bf7565b6040516101cd9190612fb8565b60405180910390f35b6101f060048036038101906101eb919061232a565b61104d565b005b600e60009054906101000a900473ffffffffffffffffffffffffffffffffffffffff1681565b816005600082815260200190815260200160002060009054906101000a900473ffffffffffffffffffffffffffffffffffffffff1673ffffffffffffffffffffffffffffffffffffffff163373ffffffffffffffffffffffffffffffffffffffff16146102ba576040517f08c379a00000000000000000000000000000000000000000000000000000000081526004016102b1906130c9565b60405180910390fd5b6005600082815260200190815260200160002060006101000a81549073ffffffffffffffffffffffffffffffffffffffff0219169055807f7cc135e0cebb02c3480ae5d74d377283180a2601f8f644edf7987b009316c63a60405160405180910390a281600981905550505050565b60008073ffffffffffffffffffffffffffffffffffffffff16600b60003373ffffffffffffffffffffffffffffffffffffffff1673ffffffffffffffffffffffffffffffffffffffff16815260200190815260200160002060000160009054906101000a900473ffffffffffffffffffffffffffffffffffffffff1673ffffffffffffffffffffffffffffffffffffffff16146103c557600080fd5b33600b60003373ffffffffffffffffffffffffffffffffffffffff1673ffffffffffffffffffffffffffffffffffffffff16815260200190815260200160002060000160006101000a81548173ffffffffffffffffffffffffffffffffffffffff021916908373ffffffffffffffffffffffffffffffffffffffff1602179055506000600b60003373ffffffffffffffffffffffffffffffffffffffff1673ffffffffffffffffffffffffffffffffffffffff16815260200190815260200160002060000160146101000a81548160ff021916908315150217905550600a339080600181540180825580915050600190039060005260206000200160009091909190916101000a81548173ffffffffffffffffffffffffffffffffffffffff021916908373ffffffffffffffffffffffffffffffffffffffff1602179055507f74aec394922f1e1a4f69076a402d938ff381675095bfa243b4ca0ddb157f335460016040516105349190612fb8565b60405180910390a16001905090565b6000806000610587336040518060400160405280600481526020017f5455534400000000000000000000000000000000000000000000000000000000815250611214565b915091506000806105cd336040518060400160405280600481526020017f5553444300000000000000000000000000000000000000000000000000000000815250611214565b91509150600080610613336040518060400160405280600481526020017f5553445400000000000000000000000000000000000000000000000000000000815250611214565b91509150600080610659336040518060400160405280600381526020017f4441490000000000000000000000000000000000000000000000000000000000815250611214565b9150915060008061069f336040518060400160405280600481526020017f4255534400000000000000000000000000000000000000000000000000000000815250611214565b915091507fcba97513dec0228148df1128e10872c5d5955a8002536c209bd915fdc7abe9888a8a8a8a8a8a8a8a8a8a6040516106e49a999897969594939291906130e9565b60405180910390a160019a505050505050505050505090565b6000600b60003373ffffffffffffffffffffffffffffffffffffffff1673ffffffffffffffffffffffffffffffffffffffff16815260200190815260200160002060000160149054906101000a900460ff1615600b60003373ffffffffffffffffffffffffffffffffffffffff1673ffffffffffffffffffffffffffffffffffffffff16815260200190815260200160002060000160146101000a81548160ff0219169083151502179055507f74aec394922f1e1a4f69076a402d938ff381675095bfa243b4ca0ddb157f3354600b60003373ffffffffffffffffffffffffffffffffffffffff1673ffffffffffffffffffffffffffffffffffffffff16815260200190815260200160002060000160149054906101000a900460ff166040516108279190612fb8565b60405180910390a1600b60003373ffffffffffffffffffffffffffffffffffffffff1673ffffffffffffffffffffffffffffffffffffffff16815260200190815260200160002060000160149054906101000a900460ff16905090565b61088c6113dd565b73ffffffffffffffffffffffffffffffffffffffff16600660009054906101000a900473ffffffffffffffffffffffffffffffffffffffff1673ffffffffffffffffffffffffffffffffffffffff161461091b576040517f08c379a000000000000000000000000000000000000000000000000000000000815260040161091290613089565b60405180910390fd5b600073ffffffffffffffffffffffffffffffffffffffff16600660009054906101000a900473ffffffffffffffffffffffffffffffffffffffff1673ffffffffffffffffffffffffffffffffffffffff167f8be0079c531659141344cd1fd0a4f28419497f9722a3daafe3b4186f6b6457e060405160405180910390a36000600660006101000a81548173ffffffffffffffffffffffffffffffffffffffff021916908373ffffffffffffffffffffffffffffffffffffffff160217905550565b6000600660009054906101000a900473ffffffffffffffffffffffffffffffffffffffff16905090565b6000600f60009054906101000a900473ffffffffffffffffffffffffffffffffffffffff1673ffffffffffffffffffffffffffffffffffffffff163373ffffffffffffffffffffffffffffffffffffffff1614610a98576040517f08c379a0000000000000000000000000000000000000000000000000000000008152600401610a8f90613009565b60405180910390fd5b60005b8a8a9050811015610bbf576000610adf888884818110610ab757fe5b905060200201358b8b85818110610aca57fe5b905060200201356113e590919063ffffffff16565b90508b8b83818110610aed57fe5b9050602002016020810190610b02919061232a565b73ffffffffffffffffffffffffffffffffffffffff1663095ea7b3600f60009054906101000a900473ffffffffffffffffffffffffffffffffffffffff16836040518363ffffffff1660e01b8152600401610b5e929190612e87565b602060405180830381600087803b158015610b7857600080fd5b505af1158015610b8c573d6000803e3d6000fd5b505050506040513d601f19601f82011682018060405250810190610bb0919061243b565b50508080600101915050610a9b565b50600190509998505050505050505050565b600f60009054906101000a900473ffffffffffffffffffffffffffffffffffffffff1681565b6000610c0161143a565b61271060095411610c47576040517f08c379a0000000000000000000000000000000000000000000000000000000008152600401610c3e906130a9565b60405180910390fd5b60606000610c536114a0565b915091506060600167ffffffffffffffff81118015610c7157600080fd5b50604051908082528060200260200182016040528015610ca05781602001602082028036833780820191505090505b509050600181600081518110610cb257fe5b6020026020010181815250506060600167ffffffffffffffff81118015610cd857600080fd5b50604051908082528060200260200182016040528015610d075781602001602082028036833780820191505090505b509050600c604051610d1890612d7b565b908152602001604051809103902060009054906101000a900473ffffffffffffffffffffffffffffffffffffffff1681600081518110610d5457fe5b602002602001019073ffffffffffffffffffffffffffffffffffffffff16908173ffffffffffffffffffffffffffffffffffffffff168152505060005b600a8054905081101561100957600b6000600a8381548110610daf57fe5b9060005260206000200160009054906101000a900473ffffffffffffffffffffffffffffffffffffffff1673ffffffffffffffffffffffffffffffffffffffff1673ffffffffffffffffffffffffffffffffffffffff16815260200190815260200160002060000160149054906101000a900460ff1615610ffc576060600167ffffffffffffffff81118015610e4457600080fd5b50604051908082528060200260200182016040528015610e735781602001602082028036833780820191505090505b509050610eec600a8381548110610e8657fe5b9060005260206000200160009054906101000a900473ffffffffffffffffffffffffffffffffffffffff166040518060400160405280600481526020017f5455534400000000000000000000000000000000000000000000000000000000815250611214565b5081600081518110610efa57fe5b6020026020010181815250506000600a8381548110610f1557fe5b9060005260206000200160009054906101000a900473ffffffffffffffffffffffffffffffffffffffff169050600f60009054906101000a900473ffffffffffffffffffffffffffffffffffffffff1673ffffffffffffffffffffffffffffffffffffffff1663ab9c4b5d308685898660006040518763ffffffff1660e01b8152600401610fa896959493929190612dfe565b600060405180830381600087803b158015610fc257600080fd5b505af1158015610fd6573d6000803e3d6000fd5b50505050610ff982600081518110610fea57fe5b60200260200101518883611bbe565b50505b8080600101915050610d91565b507f74aec394922f1e1a4f69076a402d938ff381675095bfa243b4ca0ddb157f3354600160405161103a9190612fb8565b60405180910390a1600194505050505090565b6110556113dd565b73ffffffffffffffffffffffffffffffffffffffff16600660009054906101000a900473ffffffffffffffffffffffffffffffffffffffff1673ffffffffffffffffffffffffffffffffffffffff16146110e4576040517f08c379a00000000000000000000000000000000000000000000000000000000081526004016110db90613089565b60405180910390fd5b600073ffffffffffffffffffffffffffffffffffffffff168173ffffffffffffffffffffffffffffffffffffffff161415611154576040517f08c379a000000000000000000000000000000000000000000000000000000000815260040161114b90613029565b60405180910390fd5b8073ffffffffffffffffffffffffffffffffffffffff16600660009054906101000a900473ffffffffffffffffffffffffffffffffffffffff1673ffffffffffffffffffffffffffffffffffffffff167f8be0079c531659141344cd1fd0a4f28419497f9722a3daafe3b4186f6b6457e060405160405180910390a380600660006101000a81548173ffffffffffffffffffffffffffffffffffffffff021916908373ffffffffffffffffffffffffffffffffffffffff16021790555050565b6000806000600c846040516112299190612d3a565b908152602001604051809103902060009054906101000a900473ffffffffffffffffffffffffffffffffffffffff1690506000600760009054906101000a900473ffffffffffffffffffffffffffffffffffffffff1673ffffffffffffffffffffffffffffffffffffffff166328dd2d0183886040518363ffffffff1660e01b81526004016112b9929190612dd5565b6101206040518083038186803b1580156112d257600080fd5b505afa1580156112e6573d6000803e3d6000fd5b505050506040513d601f19601f8201168201806040525081019061130a9190612656565b505050505050505090506000600760009054906101000a900473ffffffffffffffffffffffffffffffffffffffff1673ffffffffffffffffffffffffffffffffffffffff16633e150141846040518263ffffffff1660e01b81526004016113719190612dba565b6101406040518083038186803b15801561138a57600080fd5b505afa15801561139e573d6000803e3d6000fd5b505050506040513d601f19601f820116820180604052508101906113c291906124a0565b50505050505050505090508181945094505050509250929050565b600033905090565b600080828401905083811015611430576040517f08c379a000000000000000000000000000000000000000000000000000000000815260040161142790613049565b60405180910390fd5b8091505092915050565b611442612147565b6114747f3335653134646264343930663465336239666265393262383562333264393861306306791a5660e01b611d88565b905061149c73fc153f49e74711c3140ca06bfacf42ffdc492a1782662386f26fc10000611db9565b5050565b606060008060009050600060606040518060400160405280600481526020017f54555344000000000000000000000000000000000000000000000000000000008152509050600760009054906101000a900473ffffffffffffffffffffffffffffffffffffffff1673ffffffffffffffffffffffffffffffffffffffff166335ea6a75600c60405161153190612d7b565b908152602001604051809103902060009054906101000a900473ffffffffffffffffffffffffffffffffffffffff166040518263ffffffff1660e01b815260040161157c9190612dba565b6101406040518083038186803b15801561159557600080fd5b505afa1580156115a9573d6000803e3d6000fd5b505050506040513d601f19601f820116820180604052508101906115cd919061257b565b9091929394959697985090919293949596975090919293949596509091929394509091929350909192509091509050508092505061160b8383611f83565b9250600760009054906101000a900473ffffffffffffffffffffffffffffffffffffffff1673ffffffffffffffffffffffffffffffffffffffff166335ea6a75600c60405161165990612da5565b908152602001604051809103902060009054906101000a900473ffffffffffffffffffffffffffffffffffffffff166040518263ffffffff1660e01b81526004016116a49190612dba565b6101406040518083038186803b1580156116bd57600080fd5b505afa1580156116d1573d6000803e3d6000fd5b505050506040513d601f19601f820116820180604052508101906116f5919061257b565b909192939495969798509091929394959697509091929394959650909192939450909192935090919250909150905050809250506117338383611f83565b925081831415611776576040518060400160405280600481526020017f555344430000000000000000000000000000000000000000000000000000000081525090505b600760009054906101000a900473ffffffffffffffffffffffffffffffffffffffff1673ffffffffffffffffffffffffffffffffffffffff166335ea6a75600c6040516117c290612d66565b908152602001604051809103902060009054906101000a900473ffffffffffffffffffffffffffffffffffffffff166040518263ffffffff1660e01b815260040161180d9190612dba565b6101406040518083038186803b15801561182657600080fd5b505afa15801561183a573d6000803e3d6000fd5b505050506040513d601f19601f8201168201806040525081019061185e919061257b565b9091929394959697985090919293949596975090919293949596509091929394509091929350909192509091509050508092505061189c8383611f83565b9250818314156118df576040518060400160405280600481526020017f555344540000000000000000000000000000000000000000000000000000000081525090505b600760009054906101000a900473ffffffffffffffffffffffffffffffffffffffff1673ffffffffffffffffffffffffffffffffffffffff166335ea6a75600c60405161192b90612d90565b908152602001604051809103902060009054906101000a900473ffffffffffffffffffffffffffffffffffffffff166040518263ffffffff1660e01b81526004016119769190612dba565b6101406040518083038186803b15801561198f57600080fd5b505afa1580156119a3573d6000803e3d6000fd5b505050506040513d601f19601f820116820180604052508101906119c7919061257b565b90919293949596979850909192939495969750909192939495965090919293945090919293509091925090915090505080925050611a058383611f83565b925081831415611a48576040518060400160405280600381526020017f444149000000000000000000000000000000000000000000000000000000000081525090505b600760009054906101000a900473ffffffffffffffffffffffffffffffffffffffff1673ffffffffffffffffffffffffffffffffffffffff166335ea6a75600c604051611a9490612d51565b908152602001604051809103902060009054906101000a900473ffffffffffffffffffffffffffffffffffffffff166040518263ffffffff1660e01b8152600401611adf9190612dba565b6101406040518083038186803b158015611af857600080fd5b505afa158015611b0c573d6000803e3d6000fd5b505050506040513d601f19601f82011682018060405250810190611b30919061257b565b90919293949596979850909192939495969750909192939495965090919293945090919293509091925090915090505080925050611b6e8383611f83565b925081831415611bb1576040518060400160405280600481526020017f425553440000000000000000000000000000000000000000000000000000000081525090505b8083945094505050509091565b600d82604051611bce9190612d3a565b908152602001604051809103902060009054906101000a900460ff16611bf357600080fd5b6000600c83604051611c059190612d3a565b908152602001604051809103902060009054906101000a900473ffffffffffffffffffffffffffffffffffffffff1690508073ffffffffffffffffffffffffffffffffffffffff1663095ea7b3600860009054906101000a900473ffffffffffffffffffffffffffffffffffffffff16866040518363ffffffff1660e01b8152600401611c93929190612e87565b602060405180830381600087803b158015611cad57600080fd5b505af1158015611cc1573d6000803e3d6000fd5b505050506040513d601f19601f82011682018060405250810190611ce5919061243b565b611cee57600080fd5b600f60009054906101000a900473ffffffffffffffffffffffffffffffffffffffff1673ffffffffffffffffffffffffffffffffffffffff1663e8eda9df82868560006040518563ffffffff1660e01b8152600401611d509493929190612eb0565b600060405180830381600087803b158015611d6a57600080fd5b505af1158015611d7e573d6000803e3d6000fd5b5050505050505050565b611d90612147565b611d98612147565b611daf85858584611f9c909392919063ffffffff16565b9150509392505050565b600030600454604051602001611dd0929190612d0e565b604051602081830303815290604052805190602001209050600454836060018181525050836005600083815260200190815260200160002060006101000a81548173ffffffffffffffffffffffffffffffffffffffff021916908373ffffffffffffffffffffffffffffffffffffffff160217905550807fb5e6e01e79f91267dc17b4e6314d5d4d03593d2ceee0fbb452b750bd70ea5af960405160405180910390a2600260009054906101000a900473ffffffffffffffffffffffffffffffffffffffff1673ffffffffffffffffffffffffffffffffffffffff16634000aea08584611ebc8761204c565b6040518463ffffffff1660e01b8152600401611eda93929190612f7a565b602060405180830381600087803b158015611ef457600080fd5b505af1158015611f08573d6000803e3d6000fd5b505050506040513d601f19601f82011682018060405250810190611f2c919061243b565b611f6b576040517f08c379a0000000000000000000000000000000000000000000000000000000008152600401611f6290613069565b60405180910390fd5b60016004600082825401925050819055509392505050565b6000818311611f925781611f94565b825b905092915050565b611fa4612147565b611fb485608001516101006120f3565b508385600001818152505082856020019073ffffffffffffffffffffffffffffffffffffffff16908173ffffffffffffffffffffffffffffffffffffffff16815250508185604001907bffffffffffffffffffffffffffffffffffffffffffffffffffffffff191690817bffffffffffffffffffffffffffffffffffffffffffffffffffffffff191681525050849050949350505050565b6060634042994660e01b6000808460000151856020015186604001518760600151600189608001516000015160405160240161208f989796959493929190612ef5565b604051602081830303815290604052907bffffffffffffffffffffffffffffffffffffffffffffffffffffffff19166020820180517bffffffffffffffffffffffffffffffffffffffffffffffffffffffff83818316178352505050509050919050565b6120fb6121b4565b60006020838161210757fe5b0614612120576020828161211757fe5b06602003820191505b81836020018181525050604051808452600081528281016020016040525082905092915050565b6040518060a0016040528060008019168152602001600073ffffffffffffffffffffffffffffffffffffffff16815260200160007bffffffffffffffffffffffffffffffffffffffffffffffffffffffff19168152602001600081526020016121ae6121b4565b81525090565b604051806040016040528060608152602001600081525090565b6000813590506121dd816133d4565b92915050565b60008083601f8401126121f557600080fd5b8235905067ffffffffffffffff81111561220e57600080fd5b60208301915083602082028301111561222657600080fd5b9250929050565b60008083601f84011261223f57600080fd5b8235905067ffffffffffffffff81111561225857600080fd5b60208301915083602082028301111561227057600080fd5b9250929050565b600081519050612286816133eb565b92915050565b60008135905061229b81613402565b92915050565b60008083601f8401126122b357600080fd5b8235905067ffffffffffffffff8111156122cc57600080fd5b6020830191508360018202830111156122e457600080fd5b9250929050565b6000813590506122fa81613419565b92915050565b60008151905061230f81613419565b92915050565b60008151905061232481613430565b92915050565b60006020828403121561233c57600080fd5b600061234a848285016121ce565b91505092915050565b600080600080600080600080600060a08a8c03121561237157600080fd5b60008a013567ffffffffffffffff81111561238b57600080fd5b6123978c828d016121e3565b995099505060208a013567ffffffffffffffff8111156123b657600080fd5b6123c28c828d0161222d565b975097505060408a013567ffffffffffffffff8111156123e157600080fd5b6123ed8c828d0161222d565b955095505060606124008c828d016121ce565b93505060808a013567ffffffffffffffff81111561241d57600080fd5b6124298c828d016122a1565b92509250509295985092959850929598565b60006020828403121561244d57600080fd5b600061245b84828501612277565b91505092915050565b6000806040838503121561247757600080fd5b60006124858582860161228c565b9250506020612496858286016122eb565b9150509250929050565b6000806000806000806000806000806101408b8d0312156124c057600080fd5b60006124ce8d828e01612300565b9a505060206124df8d828e01612300565b99505060406124f08d828e01612300565b98505060606125018d828e01612300565b97505060806125128d828e01612300565b96505060a06125238d828e01612277565b95505060c06125348d828e01612277565b94505060e06125458d828e01612277565b9350506101006125578d828e01612277565b9250506101206125698d828e01612277565b9150509295989b9194979a5092959850565b6000806000806000806000806000806101408b8d03121561259b57600080fd5b60006125a98d828e01612300565b9a505060206125ba8d828e01612300565b99505060406125cb8d828e01612300565b98505060606125dc8d828e01612300565b97505060806125ed8d828e01612300565b96505060a06125fe8d828e01612300565b95505060c061260f8d828e01612300565b94505060e06126208d828e01612300565b9350506101006126328d828e01612300565b9250506101206126448d828e01612315565b9150509295989b9194979a5092959850565b60008060008060008060008060006101208a8c03121561267557600080fd5b60006126838c828d01612300565b99505060206126948c828d01612300565b98505060406126a58c828d01612300565b97505060606126b68c828d01612300565b96505060806126c78c828d01612300565b95505060a06126d88c828d01612300565b94505060c06126e98c828d01612300565b93505060e06126fa8c828d01612315565b92505061010061270c8c828d01612277565b9150509295985092959850929598565b6000612728838361274c565b60208301905092915050565b60006127408383612cd9565b60208301905092915050565b6127558161323a565b82525050565b6127648161323a565b82525050565b6000612775826131a5565b61277f81856131eb565b935061278a83613185565b8060005b838110156127bb5781516127a2888261271c565b97506127ad836131d1565b92505060018101905061278e565b5085935050505092915050565b60006127d3826131b0565b6127dd81856131fc565b93506127e883613195565b8060005b838110156128195781516128008882612734565b975061280b836131de565b9250506001810190506127ec565b5085935050505092915050565b61282f8161324c565b82525050565b61283e81613258565b82525050565b61284d81613262565b82525050565b600061285e826131bb565b612868818561320d565b9350612878818560208601613355565b612881816133b6565b840191505092915050565b61289d612898826132d7565b613388565b82525050565b6128ac816132fb565b82525050565b6128bb8161331f565b82525050565b6128ca81613343565b82525050565b60006128db826131c6565b6128e5818561322f565b93506128f5818560208601613355565b80840191505092915050565b600061290e601b8361321e565b91507f43414c4c45525f4d5553545f42455f4c454e44494e475f504f4f4c00000000006000830152602082019050919050565b600061294e60268361321e565b91507f4f776e61626c653a206e6577206f776e657220697320746865207a65726f206160008301527f64647265737300000000000000000000000000000000000000000000000000006020830152604082019050919050565b60006129b4601b8361321e565b91507f536166654d6174683a206164646974696f6e206f766572666c6f7700000000006000830152602082019050919050565b60006129f460238361321e565b91507f756e61626c6520746f207472616e73666572416e6443616c6c20746f206f726160008301527f636c6500000000000000000000000000000000000000000000000000000000006020830152604082019050919050565b6000612a5a60048361322f565b91507f42555344000000000000000000000000000000000000000000000000000000006000830152600482019050919050565b6000612a9a60048361322f565b91507f55534454000000000000000000000000000000000000000000000000000000006000830152600482019050919050565b6000612ada60208361321e565b91507f4f776e61626c653a2063616c6c6572206973206e6f7420746865206f776e65726000830152602082019050919050565b6000612b1a60048361322f565b91507f54555344000000000000000000000000000000000000000000000000000000006000830152600482019050919050565b6000612b5a60038361322f565b91507f44414900000000000000000000000000000000000000000000000000000000006000830152600382019050919050565b6000612b9a60008361320d565b9150600082019050919050565b6000612bb460468361321e565b91507f546865207472616e73616374696f6e207465726d696e6174656420626563617560008301527f736520746865205455534420726174696f206973206e6f74206269676765722060208301527f7468616e203100000000000000000000000000000000000000000000000000006040830152606082019050919050565b6000612c4060288361321e565b91507f536f75726365206d75737420626520746865206f7261636c65206f662074686560008301527f20726571756573740000000000000000000000000000000000000000000000006020830152604082019050919050565b6000612ca660048361322f565b91507f55534443000000000000000000000000000000000000000000000000000000006000830152600482019050919050565b612ce2816132bc565b82525050565b612cf1816132bc565b82525050565b612d08612d03826132bc565b6133ac565b82525050565b6000612d1a828561288c565b601482019150612d2a8284612cf7565b6020820191508190509392505050565b6000612d4682846128d0565b915081905092915050565b6000612d5c82612a4d565b9150819050919050565b6000612d7182612a8d565b9150819050919050565b6000612d8682612b0d565b9150819050919050565b6000612d9b82612b4d565b9150819050919050565b6000612db082612c99565b9150819050919050565b6000602082019050612dcf600083018461275b565b92915050565b6000604082019050612dea600083018561275b565b612df7602083018461275b565b9392505050565b600060e082019050612e13600083018961275b565b8181036020830152612e25818861276a565b90508181036040830152612e3981876127c8565b90508181036060830152612e4d81866127c8565b9050612e5c608083018561275b565b81810360a0830152612e6d81612b8d565b9050612e7c60c08301846128c1565b979650505050505050565b6000604082019050612e9c600083018561275b565b612ea96020830184612ce8565b9392505050565b6000608082019050612ec5600083018761275b565b612ed26020830186612ce8565b612edf604083018561275b565b612eec60608301846128c1565b95945050505050565b600061010082019050612f0b600083018b61275b565b612f18602083018a612ce8565b612f256040830189612835565b612f32606083018861275b565b612f3f6080830187612844565b612f4c60a0830186612ce8565b612f5960c0830185612ce8565b81810360e0830152612f6b8184612853565b90509998505050505050505050565b6000606082019050612f8f600083018661275b565b612f9c6020830185612ce8565b8181036040830152612fae8184612853565b9050949350505050565b6000602082019050612fcd6000830184612826565b92915050565b6000602082019050612fe860008301846128a3565b92915050565b600060208201905061300360008301846128b2565b92915050565b6000602082019050818103600083015261302281612901565b9050919050565b6000602082019050818103600083015261304281612941565b9050919050565b60006020820190508181036000830152613062816129a7565b9050919050565b60006020820190508181036000830152613082816129e7565b9050919050565b600060208201905081810360008301526130a281612acd565b9050919050565b600060208201905081810360008301526130c281612ba7565b9050919050565b600060208201905081810360008301526130e281612c33565b9050919050565b6000610140820190506130ff600083018d612ce8565b61310c602083018c612ce8565b613119604083018b612ce8565b613126606083018a612ce8565b6131336080830189612ce8565b61314060a0830188612ce8565b61314d60c0830187612ce8565b61315a60e0830186612ce8565b613168610100830185612ce8565b613176610120830184612ce8565b9b9a5050505050505050505050565b6000819050602082019050919050565b6000819050602082019050919050565b600081519050919050565b600081519050919050565b600081519050919050565b600081519050919050565b6000602082019050919050565b6000602082019050919050565b600082825260208201905092915050565b600082825260208201905092915050565b600082825260208201905092915050565b600082825260208201905092915050565b600081905092915050565b60006132458261329c565b9050919050565b60008115159050919050565b6000819050919050565b60007fffffffff0000000000000000000000000000000000000000000000000000000082169050919050565b600061ffff82169050919050565b600073ffffffffffffffffffffffffffffffffffffffff82169050919050565b6000819050919050565b600064ffffffffff82169050919050565b60006132e2826132e9565b9050919050565b60006132f48261329c565b9050919050565b60006133068261330d565b9050919050565b60006133188261329c565b9050919050565b600061332a82613331565b9050919050565b600061333c8261329c565b9050919050565b600061334e8261328e565b9050919050565b60005b83811015613373578082015181840152602081019050613358565b83811115613382576000848401525b50505050565b60006133938261339a565b9050919050565b60006133a5826133c7565b9050919050565b6000819050919050565b6000601f19601f8301169050919050565b60008160601b9050919050565b6133dd8161323a565b81146133e857600080fd5b50565b6133f48161324c565b81146133ff57600080fd5b50565b61340b81613258565b811461341657600080fd5b50565b613422816132bc565b811461342d57600080fd5b50565b613439816132c6565b811461344457600080fd5b5056fea2646970667358221220fb1d2ecc0db99a774383fa5ab37036cd27ab882d1e181831ffc19963921fd2ae64736f6c634300060c0033",
  "linkReferences": {},
  "deployedLinkReferences": {}
}