{
  "_format": "hh-sol-artifact-1",
  "contractName": "StableRatioSwap",
  "sourceName": "contracts/StableRatioSwap.sol",
  "abi": [
    {
      "inputs": [],
      "stateMutability": "nonpayable",
      "type": "constructor"
    },
    {
      "anonymous": false,
      "inputs": [
        {
          "indexed": false,
          "internalType": "uint256",
          "name": "tusd",
          "type": "uint256"
        },
        {
          "indexed": false,
          "internalType": "uint256",
          "name": "decimalsTusd",
          "type": "uint256"
        },
        {
          "indexed": false,
          "internalType": "uint256",
          "name": "usdc",
          "type": "uint256"
        },
        {
          "indexed": false,
          "internalType": "uint256",
          "name": "decimalsUsdc",
          "type": "uint256"
        },
        {
          "indexed": false,
          "internalType": "uint256",
          "name": "usdt",
          "type": "uint256"
        },
        {
          "indexed": false,
          "internalType": "uint256",
          "name": "decimalsUsdt",
          "type": "uint256"
        },
        {
          "indexed": false,
          "internalType": "uint256",
          "name": "dai",
          "type": "uint256"
        },
        {
          "indexed": false,
          "internalType": "uint256",
          "name": "decimalsDai",
          "type": "uint256"
        },
        {
          "indexed": false,
          "internalType": "uint256",
          "name": "busd",
          "type": "uint256"
        },
        {
          "indexed": false,
          "internalType": "uint256",
          "name": "decimalsBusd",
          "type": "uint256"
        }
      ],
      "name": "AllDeposits",
      "type": "event"
    },
    {
      "anonymous": false,
      "inputs": [
        {
          "indexed": true,
          "internalType": "bytes32",
          "name": "id",
          "type": "bytes32"
        }
      ],
      "name": "ChainlinkCancelled",
      "type": "event"
    },
    {
      "anonymous": false,
      "inputs": [
        {
          "indexed": true,
          "internalType": "bytes32",
          "name": "id",
          "type": "bytes32"
        }
      ],
      "name": "ChainlinkFulfilled",
      "type": "event"
    },
    {
      "anonymous": false,
      "inputs": [
        {
          "indexed": true,
          "internalType": "bytes32",
          "name": "id",
          "type": "bytes32"
        }
      ],
      "name": "ChainlinkRequested",
      "type": "event"
    },
    {
      "anonymous": false,
      "inputs": [
        {
          "indexed": false,
          "internalType": "bool",
          "name": "createUserStatus",
          "type": "bool"
        }
      ],
      "name": "CreateUser",
      "type": "event"
    },
    {
      "anonymous": false,
      "inputs": [
        {
          "indexed": false,
          "internalType": "bool",
          "name": "depositStatus",
          "type": "bool"
        }
      ],
      "name": "Deposit",
      "type": "event"
    },
    {
      "anonymous": false,
      "inputs": [
        {
          "indexed": false,
          "internalType": "bool",
          "name": "optInStatus",
          "type": "bool"
        }
      ],
      "name": "OptInToggle",
      "type": "event"
    },
    {
      "anonymous": false,
      "inputs": [
        {
          "indexed": true,
          "internalType": "address",
          "name": "previousOwner",
          "type": "address"
        },
        {
          "indexed": true,
          "internalType": "address",
          "name": "newOwner",
          "type": "address"
        }
      ],
      "name": "OwnershipTransferred",
      "type": "event"
    },
    {
      "anonymous": false,
      "inputs": [
        {
          "indexed": false,
          "internalType": "bool",
          "name": "swapStatus",
          "type": "bool"
        },
        {
          "indexed": false,
          "internalType": "uint256",
          "name": "ratio",
          "type": "uint256"
        },
        {
          "indexed": false,
          "internalType": "uint256",
          "name": "userAmount",
          "type": "uint256"
        },
        {
          "indexed": false,
          "internalType": "uint256",
          "name": "decimals",
          "type": "uint256"
        },
        {
          "indexed": false,
          "internalType": "address",
          "name": "swapToTokenAddress",
          "type": "address"
        },
        {
          "indexed": false,
          "internalType": "string",
          "name": "swapToTokenName",
          "type": "string"
        }
      ],
      "name": "SwapStablecoinDeposit",
      "type": "event"
    },
    {
      "inputs": [],
      "name": "ADDRESSES_PROVIDER",
      "outputs": [
        {
          "internalType": "contract ILendingPoolAddressesProvider",
          "name": "",
          "type": "address"
        }
      ],
      "stateMutability": "view",
      "type": "function"
    },
    {
      "inputs": [],
      "name": "LENDING_POOL",
      "outputs": [
        {
          "internalType": "contract ILendingPool",
          "name": "",
          "type": "address"
        }
      ],
      "stateMutability": "view",
      "type": "function"
    },
    {
      "inputs": [],
      "name": "coreSwapping",
      "outputs": [],
      "stateMutability": "nonpayable",
      "type": "function"
    },
    {
      "inputs": [],
      "name": "createUser",
      "outputs": [],
      "stateMutability": "nonpayable",
      "type": "function"
    },
    {
      "inputs": [],
      "name": "getAllStablecoinDeposits",
      "outputs": [],
      "stateMutability": "nonpayable",
      "type": "function"
    },
    {
      "inputs": [
        {
          "internalType": "bytes32",
          "name": "_requestID",
          "type": "bytes32"
        },
        {
          "internalType": "uint256",
          "name": "_ratio",
          "type": "uint256"
        }
      ],
      "name": "getTUSDRatio",
      "outputs": [],
      "stateMutability": "nonpayable",
      "type": "function"
    },
    {
      "inputs": [],
      "name": "optInToggle",
      "outputs": [],
      "stateMutability": "nonpayable",
      "type": "function"
    },
    {
      "inputs": [],
      "name": "owner",
      "outputs": [
        {
          "internalType": "address",
          "name": "",
          "type": "address"
        }
      ],
      "stateMutability": "view",
      "type": "function"
    },
    {
      "inputs": [],
      "name": "renounceOwnership",
      "outputs": [],
      "stateMutability": "nonpayable",
      "type": "function"
    },
    {
      "inputs": [
        {
          "internalType": "bool",
          "name": "force",
          "type": "bool"
        }
      ],
      "name": "swapStablecoinDeposit",
      "outputs": [],
      "stateMutability": "nonpayable",
      "type": "function"
    },
    {
      "inputs": [
        {
          "internalType": "address",
          "name": "newOwner",
          "type": "address"
        }
      ],
      "name": "transferOwnership",
      "outputs": [],
      "stateMutability": "nonpayable",
      "type": "function"
    },
    {
      "stateMutability": "payable",
      "type": "receive"
    }
  ],
  "bytecode": "0x608060405260016004553480156200001657600080fd5b506000620000296200061760201b60201c565b905080600660006101000a81548173ffffffffffffffffffffffffffffffffffffffff021916908373ffffffffffffffffffffffffffffffffffffffff1602179055508073ffffffffffffffffffffffffffffffffffffffff16600073ffffffffffffffffffffffffffffffffffffffff167f8be0079c531659141344cd1fd0a4f28419497f9722a3daafe3b4186f6b6457e060405160405180910390a350620000d86200061f60201b60201c565b733c73a5e5785cac854d468f727c606c07488a29d6600760006101000a81548173ffffffffffffffffffffffffffffffffffffffff021916908373ffffffffffffffffffffffffffffffffffffffff1602179055507388757f2f99175387ab4c6a4b3067c77a695b0349601260006101000a81548173ffffffffffffffffffffffffffffffffffffffff021916908373ffffffffffffffffffffffffffffffffffffffff160217905550601260009054906101000a900473ffffffffffffffffffffffffffffffffffffffff1673ffffffffffffffffffffffffffffffffffffffff16630261bf8b6040518163ffffffff1660e01b815260040160206040518083038186803b158015620001eb57600080fd5b505afa15801562000200573d6000803e3d6000fd5b505050506040513d601f19601f8201168201806040525081019062000226919062000722565b600860006101000a81548173ffffffffffffffffffffffffffffffffffffffff021916908373ffffffffffffffffffffffffffffffffffffffff160217905550600860009054906101000a900473ffffffffffffffffffffffffffffffffffffffff16601360006101000a81548173ffffffffffffffffffffffffffffffffffffffff021916908373ffffffffffffffffffffffffffffffffffffffff16021790555073016750ac630f711882812f24dba6c95b9d35856d6010604051620002ee90620008c6565b908152602001604051809103902060006101000a81548173ffffffffffffffffffffffffffffffffffffffff021916908373ffffffffffffffffffffffffffffffffffffffff16021790555073e22da380ee6b445bb8273c81944adeb6e845042260106040516200035f90620008f4565b908152602001604051809103902060006101000a81548173ffffffffffffffffffffffffffffffffffffffff021916908373ffffffffffffffffffffffffffffffffffffffff1602179055507313512979ade267ab5100878e2e0f485b568328a46010604051620003d090620008af565b908152602001604051809103902060006101000a81548173ffffffffffffffffffffffffffffffffffffffff021916908373ffffffffffffffffffffffffffffffffffffffff16021790555073ff795577d9ac8bd7d90ee22b6c1703490b6512fd60106040516200044190620008dd565b908152602001604051809103902060006101000a81548173ffffffffffffffffffffffffffffffffffffffff021916908373ffffffffffffffffffffffffffffffffffffffff160217905550734c6e1efc12fdfd568186b7baec0a43fffb4bcccf6010604051620004b29062000898565b908152602001604051809103902060006101000a81548173ffffffffffffffffffffffffffffffffffffffff021916908373ffffffffffffffffffffffffffffffffffffffff160217905550600160116040516200051090620008c6565b908152602001604051809103902060006101000a81548160ff021916908315150217905550600160116040516200054790620008f4565b908152602001604051809103902060006101000a81548160ff021916908315150217905550600160116040516200057e90620008af565b908152602001604051809103902060006101000a81548160ff02191690831515021790555060016011604051620005b590620008dd565b908152602001604051809103902060006101000a81548160ff02191690831515021790555060016011604051620005ec9062000898565b908152602001604051809103902060006101000a81548160ff02191690831515021790555062000964565b600033905090565b620006c573c89bd4e1632d3a43cb03aaad5262cbe4038bc57173ffffffffffffffffffffffffffffffffffffffff166338cc48316040518163ffffffff1660e01b815260040160206040518083038186803b1580156200067e57600080fd5b505afa15801562000693573d6000803e3d6000fd5b505050506040513d601f19601f82011682018060405250810190620006b9919062000722565b620006c760201b60201c565b565b80600260006101000a81548173ffffffffffffffffffffffffffffffffffffffff021916908373ffffffffffffffffffffffffffffffffffffffff16021790555050565b6000815190506200071c816200094a565b92915050565b6000602082840312156200073557600080fd5b600062000745848285016200070b565b91505092915050565b60006200075d6004836200090b565b91507f42555344000000000000000000000000000000000000000000000000000000006000830152600482019050919050565b60006200079f6004836200090b565b91507f55534454000000000000000000000000000000000000000000000000000000006000830152600482019050919050565b6000620007e16004836200090b565b91507f54555344000000000000000000000000000000000000000000000000000000006000830152600482019050919050565b6000620008236003836200090b565b91507f44414900000000000000000000000000000000000000000000000000000000006000830152600382019050919050565b6000620008656004836200090b565b91507f55534443000000000000000000000000000000000000000000000000000000006000830152600482019050919050565b6000620008a5826200074e565b9150819050919050565b6000620008bc8262000790565b9150819050919050565b6000620008d382620007d2565b9150819050919050565b6000620008ea8262000814565b9150819050919050565b6000620009018262000856565b9150819050919050565b600081905092915050565b600062000923826200092a565b9050919050565b600073ffffffffffffffffffffffffffffffffffffffff82169050919050565b620009558162000916565b81146200096157600080fd5b50565b61280c80620009746000396000f3fe6080604052600436106100a05760003560e01c8063642ff18911610064578063642ff18914610145578063715018a61461015c5780638da5cb5b14610173578063b4dcfc771461019e578063c2bc4dc1146101c9578063f2fde38b146101f2576100a7565b80630542975c146100ac57806306791a56146100d757806325ad91ce146101005780632783879f1461011757806332eefcf51461012e576100a7565b366100a757005b600080fd5b3480156100b857600080fd5b506100c161021b565b6040516100ce9190612454565b60405180910390f35b3480156100e357600080fd5b506100fe60048036038101906100f99190611bcf565b610241565b005b34801561010c57600080fd5b5061011561035a565b005b34801561012357600080fd5b5061012c6105a8565b005b34801561013a57600080fd5b5061014361075b565b005b34801561015157600080fd5b5061015a61088d565b005b34801561016857600080fd5b50610171610a1a565b005b34801561017f57600080fd5b50610188610b72565b60405161019591906122ca565b60405180910390f35b3480156101aa57600080fd5b506101b3610b9c565b6040516101c0919061246f565b60405180910390f35b3480156101d557600080fd5b506101f060048036038101906101eb9190611b7d565b610bc2565b005b3480156101fe57600080fd5b5061021960048036038101906102149190611b54565b610c8a565b005b601260009054906101000a900473ffffffffffffffffffffffffffffffffffffffff1681565b816005600082815260200190815260200160002060009054906101000a900473ffffffffffffffffffffffffffffffffffffffff1673ffffffffffffffffffffffffffffffffffffffff163373ffffffffffffffffffffffffffffffffffffffff16146102e3576040517f08c379a00000000000000000000000000000000000000000000000000000000081526004016102da906124ea565b60405180910390fd5b6005600082815260200190815260200160002060006101000a81549073ffffffffffffffffffffffffffffffffffffffff0219169055807f7cc135e0cebb02c3480ae5d74d377283180a2601f8f644edf7987b009316c63a60405160405180910390a28160098190555061035561088d565b505050565b600073ffffffffffffffffffffffffffffffffffffffff16600f60003373ffffffffffffffffffffffffffffffffffffffff1673ffffffffffffffffffffffffffffffffffffffff16815260200190815260200160002060000160009054906101000a900473ffffffffffffffffffffffffffffffffffffffff1673ffffffffffffffffffffffffffffffffffffffff16141561056d5733600f60003373ffffffffffffffffffffffffffffffffffffffff1673ffffffffffffffffffffffffffffffffffffffff16815260200190815260200160002060000160006101000a81548173ffffffffffffffffffffffffffffffffffffffff021916908373ffffffffffffffffffffffffffffffffffffffff1602179055506001600f60003373ffffffffffffffffffffffffffffffffffffffff1673ffffffffffffffffffffffffffffffffffffffff16815260200190815260200160002060000160146101000a81548160ff021916908315150217905550600e339080600181540180825580915050600190039060005260206000200160009091909190916101000a81548173ffffffffffffffffffffffffffffffffffffffff021916908373ffffffffffffffffffffffffffffffffffffffff1602179055507f2b865278e72421ded897b30277b72c654fe5b824c08eb97de6fabdeff85d55cc600160405161056091906123d1565b60405180910390a16105a6565b7f2b865278e72421ded897b30277b72c654fe5b824c08eb97de6fabdeff85d55cc600060405161059d91906123d1565b60405180910390a15b565b6000806105ea336040518060400160405280600481526020017f5455534400000000000000000000000000000000000000000000000000000000815250610e51565b91509150600080610630336040518060400160405280600481526020017f5553444300000000000000000000000000000000000000000000000000000000815250610e51565b91509150600080610676336040518060400160405280600481526020017f5553445400000000000000000000000000000000000000000000000000000000815250610e51565b915091506000806106bc336040518060400160405280600381526020017f4441490000000000000000000000000000000000000000000000000000000000815250610e51565b91509150600080610702336040518060400160405280600481526020017f4255534400000000000000000000000000000000000000000000000000000000815250610e51565b915091507f155b00305b2e5bdc0d6a3e34cf7ffbccdb1c25ab69c2059181928f6f61f2b4758a8a8a8a8a8a8a8a8a8a6040516107479a9998979695949392919061250a565b60405180910390a150505050505050505050565b600f60003373ffffffffffffffffffffffffffffffffffffffff1673ffffffffffffffffffffffffffffffffffffffff16815260200190815260200160002060000160149054906101000a900460ff1615600f60003373ffffffffffffffffffffffffffffffffffffffff1673ffffffffffffffffffffffffffffffffffffffff16815260200190815260200160002060000160146101000a81548160ff0219169083151502179055507f7ebb6fb163dd741d0bc3e9634b5c5bef95a5519bc08ca96b0ec823b771b6481f600f60003373ffffffffffffffffffffffffffffffffffffffff1673ffffffffffffffffffffffffffffffffffffffff16815260200190815260200160002060000160149054906101000a900460ff1660405161088391906123d1565b60405180910390a1565b6000806108f1600c60009054906101000a900473ffffffffffffffffffffffffffffffffffffffff166040518060400160405280600481526020017f5455534400000000000000000000000000000000000000000000000000000000815250610e51565b9150915060606108ff61104f565b5090506000601082604051610914919061225f565b908152602001604051809103902060009054906101000a900473ffffffffffffffffffffffffffffffffffffffff169050600061271060095411806109ce575060011515600f6000600c60009054906101000a900473ffffffffffffffffffffffffffffffffffffffff1673ffffffffffffffffffffffffffffffffffffffff1673ffffffffffffffffffffffffffffffffffffffff16815260200190815260200160002060000160159054906101000a900460ff161515145b90507ffb411a039582c90653de9047dbfc0412cca6c7d54322706e410fc1261868d8868160095487878688604051610a0b969594939291906123ec565b60405180910390a15050505050565b610a2261160d565b73ffffffffffffffffffffffffffffffffffffffff16600660009054906101000a900473ffffffffffffffffffffffffffffffffffffffff1673ffffffffffffffffffffffffffffffffffffffff1614610ab1576040517f08c379a0000000000000000000000000000000000000000000000000000000008152600401610aa8906124ca565b60405180910390fd5b600073ffffffffffffffffffffffffffffffffffffffff16600660009054906101000a900473ffffffffffffffffffffffffffffffffffffffff1673ffffffffffffffffffffffffffffffffffffffff167f8be0079c531659141344cd1fd0a4f28419497f9722a3daafe3b4186f6b6457e060405160405180910390a36000600660006101000a81548173ffffffffffffffffffffffffffffffffffffffff021916908373ffffffffffffffffffffffffffffffffffffffff160217905550565b6000600660009054906101000a900473ffffffffffffffffffffffffffffffffffffffff16905090565b601360009054906101000a900473ffffffffffffffffffffffffffffffffffffffff1681565b33600c60006101000a81548173ffffffffffffffffffffffffffffffffffffffff021916908373ffffffffffffffffffffffffffffffffffffffff16021790555080600f6000600c60009054906101000a900473ffffffffffffffffffffffffffffffffffffffff1673ffffffffffffffffffffffffffffffffffffffff1673ffffffffffffffffffffffffffffffffffffffff16815260200190815260200160002060000160156101000a81548160ff021916908315150217905550610c87611615565b50565b610c9261160d565b73ffffffffffffffffffffffffffffffffffffffff16600660009054906101000a900473ffffffffffffffffffffffffffffffffffffffff1673ffffffffffffffffffffffffffffffffffffffff1614610d21576040517f08c379a0000000000000000000000000000000000000000000000000000000008152600401610d18906124ca565b60405180910390fd5b600073ffffffffffffffffffffffffffffffffffffffff168173ffffffffffffffffffffffffffffffffffffffff161415610d91576040517f08c379a0000000000000000000000000000000000000000000000000000000008152600401610d889061248a565b60405180910390fd5b8073ffffffffffffffffffffffffffffffffffffffff16600660009054906101000a900473ffffffffffffffffffffffffffffffffffffffff1673ffffffffffffffffffffffffffffffffffffffff167f8be0079c531659141344cd1fd0a4f28419497f9722a3daafe3b4186f6b6457e060405160405180910390a380600660006101000a81548173ffffffffffffffffffffffffffffffffffffffff021916908373ffffffffffffffffffffffffffffffffffffffff16021790555050565b600080601183604051610e64919061225f565b908152602001604051809103902060009054906101000a900460ff16610e8957600080fd5b6000601084604051610e9b919061225f565b908152602001604051809103902060009054906101000a900473ffffffffffffffffffffffffffffffffffffffff1690506000600760009054906101000a900473ffffffffffffffffffffffffffffffffffffffff1673ffffffffffffffffffffffffffffffffffffffff166328dd2d0183886040518363ffffffff1660e01b8152600401610f2b9291906122e5565b6101206040518083038186803b158015610f4457600080fd5b505afa158015610f58573d6000803e3d6000fd5b505050506040513d601f19601f82011682018060405250810190610f7c9190611dc1565b505050505050505090506000600760009054906101000a900473ffffffffffffffffffffffffffffffffffffffff1673ffffffffffffffffffffffffffffffffffffffff16633e150141846040518263ffffffff1660e01b8152600401610fe391906122ca565b6101406040518083038186803b158015610ffc57600080fd5b505afa158015611010573d6000803e3d6000fd5b505050506040513d601f19601f820116820180604052508101906110349190611c0b565b50505050505050505090508181945094505050509250929050565b60606000806000905060006060600760009054906101000a900473ffffffffffffffffffffffffffffffffffffffff1673ffffffffffffffffffffffffffffffffffffffff166335ea6a7560106040516110a8906122b5565b908152602001604051809103902060009054906101000a900473ffffffffffffffffffffffffffffffffffffffff166040518263ffffffff1660e01b81526004016110f391906122ca565b6101406040518083038186803b15801561110c57600080fd5b505afa158015611120573d6000803e3d6000fd5b505050506040513d601f19601f820116820180604052508101906111449190611ce6565b90919293949596979850909192939495969750909192939495965090919293945090919293509091925090915090505080925050611182838361167b565b9250818314156111c5576040518060400160405280600481526020017f555344430000000000000000000000000000000000000000000000000000000081525090505b600760009054906101000a900473ffffffffffffffffffffffffffffffffffffffff1673ffffffffffffffffffffffffffffffffffffffff166335ea6a7560106040516112119061228b565b908152602001604051809103902060009054906101000a900473ffffffffffffffffffffffffffffffffffffffff166040518263ffffffff1660e01b815260040161125c91906122ca565b6101406040518083038186803b15801561127557600080fd5b505afa158015611289573d6000803e3d6000fd5b505050506040513d601f19601f820116820180604052508101906112ad9190611ce6565b909192939495969798509091929394959697509091929394959650909192939450909192935090919250909150905050809250506112eb838361167b565b92508183141561132e576040518060400160405280600481526020017f555344540000000000000000000000000000000000000000000000000000000081525090505b600760009054906101000a900473ffffffffffffffffffffffffffffffffffffffff1673ffffffffffffffffffffffffffffffffffffffff166335ea6a75601060405161137a906122a0565b908152602001604051809103902060009054906101000a900473ffffffffffffffffffffffffffffffffffffffff166040518263ffffffff1660e01b81526004016113c591906122ca565b6101406040518083038186803b1580156113de57600080fd5b505afa1580156113f2573d6000803e3d6000fd5b505050506040513d601f19601f820116820180604052508101906114169190611ce6565b90919293949596979850909192939495969750909192939495965090919293945090919293509091925090915090505080925050611454838361167b565b925081831415611497576040518060400160405280600381526020017f444149000000000000000000000000000000000000000000000000000000000081525090505b600760009054906101000a900473ffffffffffffffffffffffffffffffffffffffff1673ffffffffffffffffffffffffffffffffffffffff166335ea6a7560106040516114e390612276565b908152602001604051809103902060009054906101000a900473ffffffffffffffffffffffffffffffffffffffff166040518263ffffffff1660e01b815260040161152e91906122ca565b6101406040518083038186803b15801561154757600080fd5b505afa15801561155b573d6000803e3d6000fd5b505050506040513d601f19601f8201168201806040525081019061157f9190611ce6565b909192939495969798509091929394959697509091929394959650909192939450909192935090919250909150905050809250506115bd838361167b565b925081831415611600576040518060400160405280600481526020017f425553440000000000000000000000000000000000000000000000000000000081525090505b8083945094505050509091565b600033905090565b61161d611a3a565b61164f7f3335653134646264343930663465336239666265393262383562333264393861306306791a5660e01b611694565b905061167773fc153f49e74711c3140ca06bfacf42ffdc492a1782662386f26fc100006116c5565b5050565b600081831161168a578161168c565b825b905092915050565b61169c611a3a565b6116a4611a3a565b6116bb8585858461188f909392919063ffffffff16565b9150509392505050565b6000306004546040516020016116dc929190612233565b604051602081830303815290604052805190602001209050600454836060018181525050836005600083815260200190815260200160002060006101000a81548173ffffffffffffffffffffffffffffffffffffffff021916908373ffffffffffffffffffffffffffffffffffffffff160217905550807fb5e6e01e79f91267dc17b4e6314d5d4d03593d2ceee0fbb452b750bd70ea5af960405160405180910390a2600260009054906101000a900473ffffffffffffffffffffffffffffffffffffffff1673ffffffffffffffffffffffffffffffffffffffff16634000aea085846117c88761193f565b6040518463ffffffff1660e01b81526004016117e693929190612393565b602060405180830381600087803b15801561180057600080fd5b505af1158015611814573d6000803e3d6000fd5b505050506040513d601f19601f820116820180604052508101906118389190611ba6565b611877576040517f08c379a000000000000000000000000000000000000000000000000000000000815260040161186e906124aa565b60405180910390fd5b60016004600082825401925050819055509392505050565b611897611a3a565b6118a785608001516101006119e6565b508385600001818152505082856020019073ffffffffffffffffffffffffffffffffffffffff16908173ffffffffffffffffffffffffffffffffffffffff16815250508185604001907bffffffffffffffffffffffffffffffffffffffffffffffffffffffff191690817bffffffffffffffffffffffffffffffffffffffffffffffffffffffff191681525050849050949350505050565b6060634042994660e01b6000808460000151856020015186604001518760600151600189608001516000015160405160240161198298979695949392919061230e565b604051602081830303815290604052907bffffffffffffffffffffffffffffffffffffffffffffffffffffffff19166020820180517bffffffffffffffffffffffffffffffffffffffffffffffffffffffff83818316178352505050509050919050565b6119ee611aa7565b6000602083816119fa57fe5b0614611a135760208281611a0a57fe5b06602003820191505b81836020018181525050604051808452600081528281016020016040525082905092915050565b6040518060a0016040528060008019168152602001600073ffffffffffffffffffffffffffffffffffffffff16815260200160007bffffffffffffffffffffffffffffffffffffffffffffffffffffffff1916815260200160008152602001611aa1611aa7565b81525090565b604051806040016040528060608152602001600081525090565b600081359050611ad081612763565b92915050565b600081359050611ae58161277a565b92915050565b600081519050611afa8161277a565b92915050565b600081359050611b0f81612791565b92915050565b600081359050611b24816127a8565b92915050565b600081519050611b39816127a8565b92915050565b600081519050611b4e816127bf565b92915050565b600060208284031215611b6657600080fd5b6000611b7484828501611ac1565b91505092915050565b600060208284031215611b8f57600080fd5b6000611b9d84828501611ad6565b91505092915050565b600060208284031215611bb857600080fd5b6000611bc684828501611aeb565b91505092915050565b60008060408385031215611be257600080fd5b6000611bf085828601611b00565b9250506020611c0185828601611b15565b9150509250929050565b6000806000806000806000806000806101408b8d031215611c2b57600080fd5b6000611c398d828e01611b2a565b9a50506020611c4a8d828e01611b2a565b9950506040611c5b8d828e01611b2a565b9850506060611c6c8d828e01611b2a565b9750506080611c7d8d828e01611b2a565b96505060a0611c8e8d828e01611aeb565b95505060c0611c9f8d828e01611aeb565b94505060e0611cb08d828e01611aeb565b935050610100611cc28d828e01611aeb565b925050610120611cd48d828e01611aeb565b9150509295989b9194979a5092959850565b6000806000806000806000806000806101408b8d031215611d0657600080fd5b6000611d148d828e01611b2a565b9a50506020611d258d828e01611b2a565b9950506040611d368d828e01611b2a565b9850506060611d478d828e01611b2a565b9750506080611d588d828e01611b2a565b96505060a0611d698d828e01611b2a565b95505060c0611d7a8d828e01611b2a565b94505060e0611d8b8d828e01611b2a565b935050610100611d9d8d828e01611b2a565b925050610120611daf8d828e01611b3f565b9150509295989b9194979a5092959850565b60008060008060008060008060006101208a8c031215611de057600080fd5b6000611dee8c828d01611b2a565b9950506020611dff8c828d01611b2a565b9850506040611e108c828d01611b2a565b9750506060611e218c828d01611b2a565b9650506080611e328c828d01611b2a565b95505060a0611e438c828d01611b2a565b94505060c0611e548c828d01611b2a565b93505060e0611e658c828d01611b3f565b925050610100611e778c828d01611aeb565b9150509295985092959850929598565b611e90816125e9565b82525050565b611e9f816125fb565b82525050565b611eae81612607565b82525050565b611ebd81612611565b82525050565b6000611ece826125a6565b611ed881856125bc565b9350611ee88185602086016126e4565b611ef181612745565b840191505092915050565b611f0d611f0882612678565b612717565b82525050565b611f1c8161269c565b82525050565b611f2b816126c0565b82525050565b6000611f3c826125b1565b611f4681856125cd565b9350611f568185602086016126e4565b611f5f81612745565b840191505092915050565b6000611f75826125b1565b611f7f81856125de565b9350611f8f8185602086016126e4565b80840191505092915050565b6000611fa86026836125cd565b91507f4f776e61626c653a206e6577206f776e657220697320746865207a65726f206160008301527f64647265737300000000000000000000000000000000000000000000000000006020830152604082019050919050565b600061200e6023836125cd565b91507f756e61626c6520746f207472616e73666572416e6443616c6c20746f206f726160008301527f636c6500000000000000000000000000000000000000000000000000000000006020830152604082019050919050565b60006120746004836125de565b91507f42555344000000000000000000000000000000000000000000000000000000006000830152600482019050919050565b60006120b46004836125de565b91507f55534454000000000000000000000000000000000000000000000000000000006000830152600482019050919050565b60006120f46020836125cd565b91507f4f776e61626c653a2063616c6c6572206973206e6f7420746865206f776e65726000830152602082019050919050565b60006121346003836125de565b91507f44414900000000000000000000000000000000000000000000000000000000006000830152600382019050919050565b60006121746028836125cd565b91507f536f75726365206d75737420626520746865206f7261636c65206f662074686560008301527f20726571756573740000000000000000000000000000000000000000000000006020830152604082019050919050565b60006121da6004836125de565b91507f55534443000000000000000000000000000000000000000000000000000000006000830152600482019050919050565b6122168161265d565b82525050565b61222d6122288261265d565b61273b565b82525050565b600061223f8285611efc565b60148201915061224f828461221c565b6020820191508190509392505050565b600061226b8284611f6a565b915081905092915050565b600061228182612067565b9150819050919050565b6000612296826120a7565b9150819050919050565b60006122ab82612127565b9150819050919050565b60006122c0826121cd565b9150819050919050565b60006020820190506122df6000830184611e87565b92915050565b60006040820190506122fa6000830185611e87565b6123076020830184611e87565b9392505050565b600061010082019050612324600083018b611e87565b612331602083018a61220d565b61233e6040830189611ea5565b61234b6060830188611e87565b6123586080830187611eb4565b61236560a083018661220d565b61237260c083018561220d565b81810360e08301526123848184611ec3565b90509998505050505050505050565b60006060820190506123a86000830186611e87565b6123b5602083018561220d565b81810360408301526123c78184611ec3565b9050949350505050565b60006020820190506123e66000830184611e96565b92915050565b600060c0820190506124016000830189611e96565b61240e602083018861220d565b61241b604083018761220d565b612428606083018661220d565b6124356080830185611e87565b81810360a08301526124478184611f31565b9050979650505050505050565b60006020820190506124696000830184611f13565b92915050565b60006020820190506124846000830184611f22565b92915050565b600060208201905081810360008301526124a381611f9b565b9050919050565b600060208201905081810360008301526124c381612001565b9050919050565b600060208201905081810360008301526124e3816120e7565b9050919050565b6000602082019050818103600083015261250381612167565b9050919050565b600061014082019050612520600083018d61220d565b61252d602083018c61220d565b61253a604083018b61220d565b612547606083018a61220d565b612554608083018961220d565b61256160a083018861220d565b61256e60c083018761220d565b61257b60e083018661220d565b61258961010083018561220d565b61259761012083018461220d565b9b9a5050505050505050505050565b600081519050919050565b600081519050919050565b600082825260208201905092915050565b600082825260208201905092915050565b600081905092915050565b60006125f48261263d565b9050919050565b60008115159050919050565b6000819050919050565b60007fffffffff0000000000000000000000000000000000000000000000000000000082169050919050565b600073ffffffffffffffffffffffffffffffffffffffff82169050919050565b6000819050919050565b600064ffffffffff82169050919050565b60006126838261268a565b9050919050565b60006126958261263d565b9050919050565b60006126a7826126ae565b9050919050565b60006126b98261263d565b9050919050565b60006126cb826126d2565b9050919050565b60006126dd8261263d565b9050919050565b60005b838110156127025780820151818401526020810190506126e7565b83811115612711576000848401525b50505050565b600061272282612729565b9050919050565b600061273482612756565b9050919050565b6000819050919050565b6000601f19601f8301169050919050565b60008160601b9050919050565b61276c816125e9565b811461277757600080fd5b50565b612783816125fb565b811461278e57600080fd5b50565b61279a81612607565b81146127a557600080fd5b50565b6127b18161265d565b81146127bc57600080fd5b50565b6127c881612667565b81146127d357600080fd5b5056fea264697066735822122068568b417fa023d05c31d624b8a382de9055258deae19e4d30e7d625393b7dc464736f6c634300060c0033",
  "linkReferences": {},
  "deployedLinkReferences": {}
}