{
  "_format": "hh-sol-artifact-1",
  "contractName": "StableRatioSwap",
  "sourceName": "contracts/StableRatioSwap.sol",
  "abi": [
    {
      "inputs": [],
      "stateMutability": "nonpayable",
      "type": "constructor"
    },
    {
      "anonymous": false,
      "inputs": [
        {
          "indexed": true,
          "internalType": "bytes32",
          "name": "id",
          "type": "bytes32"
        }
      ],
      "name": "ChainlinkCancelled",
      "type": "event"
    },
    {
      "anonymous": false,
      "inputs": [
        {
          "indexed": true,
          "internalType": "bytes32",
          "name": "id",
          "type": "bytes32"
        }
      ],
      "name": "ChainlinkFulfilled",
      "type": "event"
    },
    {
      "anonymous": false,
      "inputs": [
        {
          "indexed": true,
          "internalType": "bytes32",
          "name": "id",
          "type": "bytes32"
        }
      ],
      "name": "ChainlinkRequested",
      "type": "event"
    },
    {
      "anonymous": false,
      "inputs": [
        {
          "indexed": false,
          "internalType": "uint256",
          "name": "tusd",
          "type": "uint256"
        },
        {
          "indexed": false,
          "internalType": "uint256",
          "name": "usdc",
          "type": "uint256"
        },
        {
          "indexed": false,
          "internalType": "uint256",
          "name": "usdt",
          "type": "uint256"
        },
        {
          "indexed": false,
          "internalType": "uint256",
          "name": "dai",
          "type": "uint256"
        },
        {
          "indexed": false,
          "internalType": "uint256",
          "name": "busd",
          "type": "uint256"
        }
      ],
      "name": "Deposit",
      "type": "event"
    },
    {
      "anonymous": false,
      "inputs": [
        {
          "indexed": false,
          "internalType": "bool",
          "name": "optInStatus",
          "type": "bool"
        }
      ],
      "name": "OptInStatus",
      "type": "event"
    },
    {
      "anonymous": false,
      "inputs": [
        {
          "indexed": true,
          "internalType": "address",
          "name": "previousOwner",
          "type": "address"
        },
        {
          "indexed": true,
          "internalType": "address",
          "name": "newOwner",
          "type": "address"
        }
      ],
      "name": "OwnershipTransferred",
      "type": "event"
    },
    {
      "inputs": [],
      "name": "ADDRESSES_PROVIDER",
      "outputs": [
        {
          "internalType": "contract ILendingPoolAddressesProvider",
          "name": "",
          "type": "address"
        }
      ],
      "stateMutability": "view",
      "type": "function"
    },
    {
      "inputs": [],
      "name": "LENDING_POOL",
      "outputs": [
        {
          "internalType": "contract ILendingPool",
          "name": "",
          "type": "address"
        }
      ],
      "stateMutability": "view",
      "type": "function"
    },
    {
      "inputs": [
        {
          "internalType": "address",
          "name": "_userAddress",
          "type": "address"
        }
      ],
      "name": "createUser",
      "outputs": [],
      "stateMutability": "nonpayable",
      "type": "function"
    },
    {
      "inputs": [
        {
          "internalType": "uint256",
          "name": "amount",
          "type": "uint256"
        },
        {
          "internalType": "string",
          "name": "tokenType",
          "type": "string"
        }
      ],
      "name": "deposit",
      "outputs": [],
      "stateMutability": "nonpayable",
      "type": "function"
    },
    {
      "inputs": [
        {
          "internalType": "address[]",
          "name": "assets",
          "type": "address[]"
        },
        {
          "internalType": "uint256[]",
          "name": "amounts",
          "type": "uint256[]"
        },
        {
          "internalType": "uint256[]",
          "name": "premiums",
          "type": "uint256[]"
        },
        {
          "internalType": "address",
          "name": "initiator",
          "type": "address"
        },
        {
          "internalType": "bytes",
          "name": "params",
          "type": "bytes"
        }
      ],
      "name": "executeOperation",
      "outputs": [
        {
          "internalType": "bool",
          "name": "",
          "type": "bool"
        }
      ],
      "stateMutability": "nonpayable",
      "type": "function"
    },
    {
      "inputs": [],
      "name": "getAllStablecoinDeposits",
      "outputs": [],
      "stateMutability": "nonpayable",
      "type": "function"
    },
    {
      "inputs": [],
      "name": "getAllUsers",
      "outputs": [
        {
          "internalType": "address[]",
          "name": "",
          "type": "address[]"
        }
      ],
      "stateMutability": "view",
      "type": "function"
    },
    {
      "inputs": [
        {
          "internalType": "bytes32",
          "name": "_requestID",
          "type": "bytes32"
        },
        {
          "internalType": "uint256",
          "name": "_ratio",
          "type": "uint256"
        }
      ],
      "name": "getTUSDRatio",
      "outputs": [],
      "stateMutability": "nonpayable",
      "type": "function"
    },
    {
      "inputs": [],
      "name": "optInToggle",
      "outputs": [],
      "stateMutability": "nonpayable",
      "type": "function"
    },
    {
      "inputs": [],
      "name": "owner",
      "outputs": [
        {
          "internalType": "address",
          "name": "",
          "type": "address"
        }
      ],
      "stateMutability": "view",
      "type": "function"
    },
    {
      "inputs": [],
      "name": "renounceOwnership",
      "outputs": [],
      "stateMutability": "nonpayable",
      "type": "function"
    },
    {
      "inputs": [],
      "name": "requestTUSDRatio",
      "outputs": [],
      "stateMutability": "nonpayable",
      "type": "function"
    },
    {
      "inputs": [],
      "name": "swapStablecoinDeposit",
      "outputs": [],
      "stateMutability": "nonpayable",
      "type": "function"
    },
    {
      "inputs": [
        {
          "internalType": "address",
          "name": "newOwner",
          "type": "address"
        }
      ],
      "name": "transferOwnership",
      "outputs": [],
      "stateMutability": "nonpayable",
      "type": "function"
    },
    {
      "stateMutability": "payable",
      "type": "receive"
    }
  ],
  "bytecode": "0x608060405260016004553480156200001657600080fd5b50600062000029620001e160201b60201c565b905080600660006101000a81548173ffffffffffffffffffffffffffffffffffffffff021916908373ffffffffffffffffffffffffffffffffffffffff1602179055508073ffffffffffffffffffffffffffffffffffffffff16600073ffffffffffffffffffffffffffffffffffffffff167f8be0079c531659141344cd1fd0a4f28419497f9722a3daafe3b4186f6b6457e060405160405180910390a3506001600d604051620000da9062000361565b908152602001604051809103902060006101000a81548160ff0219169083151502179055506001600d60405162000111906200038f565b908152602001604051809103902060006101000a81548160ff0219169083151502179055506001600d60405162000148906200034a565b908152602001604051809103902060006101000a81548160ff0219169083151502179055506001600d6040516200017f9062000378565b908152602001604051809103902060006101000a81548160ff0219169083151502179055506001600d604051620001b69062000333565b908152602001604051809103902060006101000a81548160ff021916908315150217905550620003b1565b600033905090565b6000620001f8600483620003a6565b91507f42555344000000000000000000000000000000000000000000000000000000006000830152600482019050919050565b60006200023a600483620003a6565b91507f55534454000000000000000000000000000000000000000000000000000000006000830152600482019050919050565b60006200027c600483620003a6565b91507f54555344000000000000000000000000000000000000000000000000000000006000830152600482019050919050565b6000620002be600383620003a6565b91507f44414900000000000000000000000000000000000000000000000000000000006000830152600382019050919050565b600062000300600483620003a6565b91507f55534443000000000000000000000000000000000000000000000000000000006000830152600482019050919050565b60006200034082620001e9565b9150819050919050565b600062000357826200022b565b9150819050919050565b60006200036e826200026d565b9150819050919050565b60006200038582620002af565b9150819050919050565b60006200039c82620002f1565b9150819050919050565b600081905092915050565b61367380620003c16000396000f3fe6080604052600436106100e15760003560e01c8063920f5c841161007f578063db8fd05711610059578063db8fd05714610259578063e2842d7914610270578063f1215d251461029b578063f2fde38b146102c4576100e8565b8063920f5c84146101c8578063b4dcfc7714610205578063cdd8761814610230576100e8565b80632842c15d116100bb5780632842c15d1461015857806332eefcf51461016f578063715018a6146101865780638da5cb5b1461019d576100e8565b80630542975c146100ed57806306791a56146101185780632783879f14610141576100e8565b366100e857005b600080fd5b3480156100f957600080fd5b506101026102ed565b60405161010f91906131b4565b60405180910390f35b34801561012457600080fd5b5061013f600480360381019061013a9190612767565b610313565b005b34801561014d57600080fd5b50610156610424565b005b34801561016457600080fd5b5061016d6105b9565b005b34801561017b57600080fd5b5061018461061f565b005b34801561019257600080fd5b5061019b610751565b005b3480156101a957600080fd5b506101b26108a9565b6040516101bf9190612f79565b60405180910390f35b3480156101d457600080fd5b506101ef60048036038101906101ea9190612656565b6108d3565b6040516101fc9190613199565b60405180910390f35b34801561021157600080fd5b5061021a610a11565b60405161022791906131cf565b60405180910390f35b34801561023c57600080fd5b506102576004803603810190610252919061262d565b610a37565b005b34801561026557600080fd5b5061026e610c14565b005b34801561027c57600080fd5b50610285611204565b6040516102929190613177565b60405180910390f35b3480156102a757600080fd5b506102c260048036038101906102bd91906127a3565b611292565b005b3480156102d057600080fd5b506102eb60048036038101906102e6919061262d565b61145b565b005b600e60009054906101000a900473ffffffffffffffffffffffffffffffffffffffff1681565b816005600082815260200190815260200160002060009054906101000a900473ffffffffffffffffffffffffffffffffffffffff1673ffffffffffffffffffffffffffffffffffffffff163373ffffffffffffffffffffffffffffffffffffffff16146103b5576040517f08c379a00000000000000000000000000000000000000000000000000000000081526004016103ac9061326a565b60405180910390fd5b6005600082815260200190815260200160002060006101000a81549073ffffffffffffffffffffffffffffffffffffffff0219169055807f7cc135e0cebb02c3480ae5d74d377283180a2601f8f644edf7987b009316c63a60405160405180910390a281600981905550505050565b6000610465336040518060400160405280600481526020017f5455534400000000000000000000000000000000000000000000000000000000815250611622565b905060006104a8336040518060400160405280600481526020017f5553444300000000000000000000000000000000000000000000000000000000815250611622565b905060006104eb336040518060400160405280600481526020017f5553445400000000000000000000000000000000000000000000000000000000815250611622565b9050600061052e336040518060400160405280600381526020017f4441490000000000000000000000000000000000000000000000000000000000815250611622565b90506000610571336040518060400160405280600481526020017f4255534400000000000000000000000000000000000000000000000000000000815250611622565b90507f429ca5f64e18925b7c661f0901b31c18f8ebc5de6aeb8dc059e5b96d8fe8957e85858585856040516105aa95949392919061328a565b60405180910390a15050505050565b6105c16123f6565b6105f37f3335653134646264343930663465336239666265393262383562333264393861306306791a5660e01b611749565b905061061b73fc153f49e74711c3140ca06bfacf42ffdc492a1782662386f26fc1000061177a565b5050565b600b60003373ffffffffffffffffffffffffffffffffffffffff1673ffffffffffffffffffffffffffffffffffffffff16815260200190815260200160002060000160149054906101000a900460ff1615600b60003373ffffffffffffffffffffffffffffffffffffffff1673ffffffffffffffffffffffffffffffffffffffff16815260200190815260200160002060000160146101000a81548160ff0219169083151502179055507fd0f100f24f7c28024609f25a3abcc5be56f2f402721b0d86f410a0918fb7a760600b60003373ffffffffffffffffffffffffffffffffffffffff1673ffffffffffffffffffffffffffffffffffffffff16815260200190815260200160002060000160149054906101000a900460ff166040516107479190613199565b60405180910390a1565b610759611944565b73ffffffffffffffffffffffffffffffffffffffff16600660009054906101000a900473ffffffffffffffffffffffffffffffffffffffff1673ffffffffffffffffffffffffffffffffffffffff16146107e8576040517f08c379a00000000000000000000000000000000000000000000000000000000081526004016107df9061324a565b60405180910390fd5b600073ffffffffffffffffffffffffffffffffffffffff16600660009054906101000a900473ffffffffffffffffffffffffffffffffffffffff1673ffffffffffffffffffffffffffffffffffffffff167f8be0079c531659141344cd1fd0a4f28419497f9722a3daafe3b4186f6b6457e060405160405180910390a36000600660006101000a81548173ffffffffffffffffffffffffffffffffffffffff021916908373ffffffffffffffffffffffffffffffffffffffff160217905550565b6000600660009054906101000a900473ffffffffffffffffffffffffffffffffffffffff16905090565b600080600090505b8a8a90508110156109ff57600061091f8888848181106108f757fe5b905060200201358b8b8581811061090a57fe5b9050602002013561194c90919063ffffffff16565b90508b8b8381811061092d57fe5b9050602002016020810190610942919061262d565b73ffffffffffffffffffffffffffffffffffffffff1663095ea7b3600f60009054906101000a900473ffffffffffffffffffffffffffffffffffffffff16836040518363ffffffff1660e01b815260040161099e929190613046565b602060405180830381600087803b1580156109b857600080fd5b505af11580156109cc573d6000803e3d6000fd5b505050506040513d601f19601f820116820180604052508101906109f0919061273e565b505080806001019150506108db565b50600190509998505050505050505050565b600f60009054906101000a900473ffffffffffffffffffffffffffffffffffffffff1681565b600073ffffffffffffffffffffffffffffffffffffffff16600b60003373ffffffffffffffffffffffffffffffffffffffff1673ffffffffffffffffffffffffffffffffffffffff16815260200190815260200160002060000160009054906101000a900473ffffffffffffffffffffffffffffffffffffffff1673ffffffffffffffffffffffffffffffffffffffff1614610ad257600080fd5b80600b60003373ffffffffffffffffffffffffffffffffffffffff1673ffffffffffffffffffffffffffffffffffffffff16815260200190815260200160002060000160006101000a81548173ffffffffffffffffffffffffffffffffffffffff021916908373ffffffffffffffffffffffffffffffffffffffff1602179055506000600b60003373ffffffffffffffffffffffffffffffffffffffff1673ffffffffffffffffffffffffffffffffffffffff16815260200190815260200160002060000160146101000a81548160ff021916908315150217905550600a339080600181540180825580915050600190039060005260206000200160009091909190916101000a81548173ffffffffffffffffffffffffffffffffffffffff021916908373ffffffffffffffffffffffffffffffffffffffff16021790555050565b60606000610c206119a1565b80925081935050506060600567ffffffffffffffff81118015610c4257600080fd5b50604051908082528060200260200182016040528015610c715781602001602082028036833780820191505090505b509050600181600081518110610c8357fe5b602002602001018181525050600181600181518110610c9e57fe5b602002602001018181525050600181600281518110610cb957fe5b602002602001018181525050600181600381518110610cd457fe5b602002602001018181525050600181600481518110610cef57fe5b6020026020010181815250506060600567ffffffffffffffff81118015610d1557600080fd5b50604051908082528060200260200182016040528015610d445781602001602082028036833780820191505090505b509050600c604051610d5590612f3a565b908152602001604051809103902060009054906101000a900473ffffffffffffffffffffffffffffffffffffffff1681600081518110610d9157fe5b602002602001019073ffffffffffffffffffffffffffffffffffffffff16908173ffffffffffffffffffffffffffffffffffffffff1681525050600c604051610dd990612f64565b908152602001604051809103902060009054906101000a900473ffffffffffffffffffffffffffffffffffffffff1681600181518110610e1557fe5b602002602001019073ffffffffffffffffffffffffffffffffffffffff16908173ffffffffffffffffffffffffffffffffffffffff1681525050600c604051610e5d90612f25565b908152602001604051809103902060009054906101000a900473ffffffffffffffffffffffffffffffffffffffff1681600281518110610e9957fe5b602002602001019073ffffffffffffffffffffffffffffffffffffffff16908173ffffffffffffffffffffffffffffffffffffffff1681525050600c604051610ee190612f4f565b908152602001604051809103902060009054906101000a900473ffffffffffffffffffffffffffffffffffffffff1681600381518110610f1d57fe5b602002602001019073ffffffffffffffffffffffffffffffffffffffff16908173ffffffffffffffffffffffffffffffffffffffff1681525050600c604051610f6590612f10565b908152602001604051809103902060009054906101000a900473ffffffffffffffffffffffffffffffffffffffff1681600481518110610fa157fe5b602002602001019073ffffffffffffffffffffffffffffffffffffffff16908173ffffffffffffffffffffffffffffffffffffffff168152505060005b600a805490508110156111fd576000806000806000611033600a878154811061100357fe5b9060005260206000200160009054906101000a900473ffffffffffffffffffffffffffffffffffffffff166120bf565b80955081965082975083985084995050505050506060600567ffffffffffffffff8111801561106157600080fd5b506040519080825280602002602001820160405280156110905781602001602082028036833780820191505090505b50905085816000815181106110a157fe5b60200260200101818152505084816001815181106110bb57fe5b60200260200101818152505083816002815181106110d557fe5b60200260200101818152505082816003815181106110ef57fe5b602002602001018181525050818160048151811061110957fe5b6020026020010181815250506000600a888154811061112457fe5b9060005260206000200160009054906101000a900473ffffffffffffffffffffffffffffffffffffffff169050600f60009054906101000a900473ffffffffffffffffffffffffffffffffffffffff1673ffffffffffffffffffffffffffffffffffffffff1663ab9c4b5d308b858e8660006040518763ffffffff1660e01b81526004016111b796959493929190612f94565b600060405180830381600087803b1580156111d157600080fd5b505af11580156111e5573d6000803e3d6000fd5b50505050505050505050508080600101915050610fde565b5050505050565b6060600a80548060200260200160405190810160405280929190818152602001828054801561128857602002820191906000526020600020905b8160009054906101000a900473ffffffffffffffffffffffffffffffffffffffff1673ffffffffffffffffffffffffffffffffffffffff168152602001906001019080831161123e575b5050505050905090565b600d816040516112a29190612ef9565b908152602001604051809103902060009054906101000a900460ff166112c757600080fd5b6000600c826040516112d99190612ef9565b908152602001604051809103902060009054906101000a900473ffffffffffffffffffffffffffffffffffffffff1690508073ffffffffffffffffffffffffffffffffffffffff1663095ea7b3600860009054906101000a900473ffffffffffffffffffffffffffffffffffffffff16856040518363ffffffff1660e01b8152600401611367929190613046565b602060405180830381600087803b15801561138157600080fd5b505af1158015611395573d6000803e3d6000fd5b505050506040513d601f19601f820116820180604052508101906113b9919061273e565b6113c257600080fd5b600f60009054906101000a900473ffffffffffffffffffffffffffffffffffffffff1673ffffffffffffffffffffffffffffffffffffffff1663e8eda9df82853360006040518563ffffffff1660e01b8152600401611424949392919061306f565b600060405180830381600087803b15801561143e57600080fd5b505af1158015611452573d6000803e3d6000fd5b50505050505050565b611463611944565b73ffffffffffffffffffffffffffffffffffffffff16600660009054906101000a900473ffffffffffffffffffffffffffffffffffffffff1673ffffffffffffffffffffffffffffffffffffffff16146114f2576040517f08c379a00000000000000000000000000000000000000000000000000000000081526004016114e99061324a565b60405180910390fd5b600073ffffffffffffffffffffffffffffffffffffffff168173ffffffffffffffffffffffffffffffffffffffff161415611562576040517f08c379a0000000000000000000000000000000000000000000000000000000008152600401611559906131ea565b60405180910390fd5b8073ffffffffffffffffffffffffffffffffffffffff16600660009054906101000a900473ffffffffffffffffffffffffffffffffffffffff1673ffffffffffffffffffffffffffffffffffffffff167f8be0079c531659141344cd1fd0a4f28419497f9722a3daafe3b4186f6b6457e060405160405180910390a380600660006101000a81548173ffffffffffffffffffffffffffffffffffffffff021916908373ffffffffffffffffffffffffffffffffffffffff16021790555050565b600080600c836040516116359190612ef9565b908152602001604051809103902060009054906101000a900473ffffffffffffffffffffffffffffffffffffffff1690506000600760009054906101000a900473ffffffffffffffffffffffffffffffffffffffff1673ffffffffffffffffffffffffffffffffffffffff166328dd2d0183876040518363ffffffff1660e01b81526004016116c592919061301d565b6101206040518083038186803b1580156116de57600080fd5b505afa1580156116f2573d6000803e3d6000fd5b505050506040513d601f19601f8201168201806040525081019061171691906128d2565b90919293949596509091929394955090919293945090919293509091925090915090505080915050809250505092915050565b6117516123f6565b6117596123f6565b61177085858584612232909392919063ffffffff16565b9150509392505050565b600030600454604051602001611791929190612ecd565b604051602081830303815290604052805190602001209050600454836060018181525050836005600083815260200190815260200160002060006101000a81548173ffffffffffffffffffffffffffffffffffffffff021916908373ffffffffffffffffffffffffffffffffffffffff160217905550807fb5e6e01e79f91267dc17b4e6314d5d4d03593d2ceee0fbb452b750bd70ea5af960405160405180910390a2600260009054906101000a900473ffffffffffffffffffffffffffffffffffffffff1673ffffffffffffffffffffffffffffffffffffffff16634000aea0858461187d876122e2565b6040518463ffffffff1660e01b815260040161189b93929190613139565b602060405180830381600087803b1580156118b557600080fd5b505af11580156118c9573d6000803e3d6000fd5b505050506040513d601f19601f820116820180604052508101906118ed919061273e565b61192c576040517f08c379a00000000000000000000000000000000000000000000000000000000081526004016119239061322a565b60405180910390fd5b60016004600082825401925050819055509392505050565b600033905090565b600080828401905083811015611997576040517f08c379a000000000000000000000000000000000000000000000000000000000815260040161198e9061320a565b60405180910390fd5b8091505092915050565b606060008060009050600060606040518060400160405280600481526020017f54555344000000000000000000000000000000000000000000000000000000008152509050600760009054906101000a900473ffffffffffffffffffffffffffffffffffffffff1673ffffffffffffffffffffffffffffffffffffffff166335ea6a75600c604051611a3290612f3a565b908152602001604051809103902060009054906101000a900473ffffffffffffffffffffffffffffffffffffffff166040518263ffffffff1660e01b8152600401611a7d9190612f79565b6101406040518083038186803b158015611a9657600080fd5b505afa158015611aaa573d6000803e3d6000fd5b505050506040513d601f19601f82011682018060405250810190611ace91906127f7565b90919293949596979850909192939495969750909192939495965090919293945090919293509091925090915090505080925050611b0c8383612389565b9250600760009054906101000a900473ffffffffffffffffffffffffffffffffffffffff1673ffffffffffffffffffffffffffffffffffffffff166335ea6a75600c604051611b5a90612f64565b908152602001604051809103902060009054906101000a900473ffffffffffffffffffffffffffffffffffffffff166040518263ffffffff1660e01b8152600401611ba59190612f79565b6101406040518083038186803b158015611bbe57600080fd5b505afa158015611bd2573d6000803e3d6000fd5b505050506040513d601f19601f82011682018060405250810190611bf691906127f7565b90919293949596979850909192939495969750909192939495965090919293945090919293509091925090915090505080925050611c348383612389565b925081831415611c77576040518060400160405280600481526020017f555344430000000000000000000000000000000000000000000000000000000081525090505b600760009054906101000a900473ffffffffffffffffffffffffffffffffffffffff1673ffffffffffffffffffffffffffffffffffffffff166335ea6a75600c604051611cc390612f25565b908152602001604051809103902060009054906101000a900473ffffffffffffffffffffffffffffffffffffffff166040518263ffffffff1660e01b8152600401611d0e9190612f79565b6101406040518083038186803b158015611d2757600080fd5b505afa158015611d3b573d6000803e3d6000fd5b505050506040513d601f19601f82011682018060405250810190611d5f91906127f7565b90919293949596979850909192939495969750909192939495965090919293945090919293509091925090915090505080925050611d9d8383612389565b925081831415611de0576040518060400160405280600481526020017f555344540000000000000000000000000000000000000000000000000000000081525090505b600760009054906101000a900473ffffffffffffffffffffffffffffffffffffffff1673ffffffffffffffffffffffffffffffffffffffff166335ea6a75600c604051611e2c90612f4f565b908152602001604051809103902060009054906101000a900473ffffffffffffffffffffffffffffffffffffffff166040518263ffffffff1660e01b8152600401611e779190612f79565b6101406040518083038186803b158015611e9057600080fd5b505afa158015611ea4573d6000803e3d6000fd5b505050506040513d601f19601f82011682018060405250810190611ec891906127f7565b90919293949596979850909192939495969750909192939495965090919293945090919293509091925090915090505080925050611f068383612389565b925081831415611f49576040518060400160405280600381526020017f444149000000000000000000000000000000000000000000000000000000000081525090505b600760009054906101000a900473ffffffffffffffffffffffffffffffffffffffff1673ffffffffffffffffffffffffffffffffffffffff166335ea6a75600c604051611f9590612f10565b908152602001604051809103902060009054906101000a900473ffffffffffffffffffffffffffffffffffffffff166040518263ffffffff1660e01b8152600401611fe09190612f79565b6101406040518083038186803b158015611ff957600080fd5b505afa15801561200d573d6000803e3d6000fd5b505050506040513d601f19601f8201168201806040525081019061203191906127f7565b9091929394959697985090919293949596975090919293949596509091929394509091929350909192509091509050508092505061206f8383612389565b9250818314156120b2576040518060400160405280600481526020017f425553440000000000000000000000000000000000000000000000000000000081525090505b8083945094505050509091565b600080600080600080612107876040518060400160405280600481526020017f5455534400000000000000000000000000000000000000000000000000000000815250611622565b9050600061214a886040518060400160405280600481526020017f5553444300000000000000000000000000000000000000000000000000000000815250611622565b9050600061218d896040518060400160405280600481526020017f5553445400000000000000000000000000000000000000000000000000000000815250611622565b905060006121d08a6040518060400160405280600381526020017f4441490000000000000000000000000000000000000000000000000000000000815250611622565b905060006122138b6040518060400160405280600481526020017f4255534400000000000000000000000000000000000000000000000000000000815250611622565b9050848484848499509950995099509950505050505091939590929450565b61223a6123f6565b61224a85608001516101006123a2565b508385600001818152505082856020019073ffffffffffffffffffffffffffffffffffffffff16908173ffffffffffffffffffffffffffffffffffffffff16815250508185604001907bffffffffffffffffffffffffffffffffffffffffffffffffffffffff191690817bffffffffffffffffffffffffffffffffffffffffffffffffffffffff191681525050849050949350505050565b6060634042994660e01b600080846000015185602001518660400151876060015160018960800151600001516040516024016123259897969594939291906130b4565b604051602081830303815290604052907bffffffffffffffffffffffffffffffffffffffffffffffffffffffff19166020820180517bffffffffffffffffffffffffffffffffffffffffffffffffffffffff83818316178352505050509050919050565b6000818311612398578161239a565b825b905092915050565b6123aa612463565b6000602083816123b657fe5b06146123cf57602082816123c657fe5b06602003820191505b81836020018181525050604051808452600081528281016020016040525082905092915050565b6040518060a0016040528060008019168152602001600073ffffffffffffffffffffffffffffffffffffffff16815260200160007bffffffffffffffffffffffffffffffffffffffffffffffffffffffff191681526020016000815260200161245d612463565b81525090565b604051806040016040528060608152602001600081525090565b60008135905061248c816135ca565b92915050565b60008083601f8401126124a457600080fd5b8235905067ffffffffffffffff8111156124bd57600080fd5b6020830191508360208202830111156124d557600080fd5b9250929050565b60008083601f8401126124ee57600080fd5b8235905067ffffffffffffffff81111561250757600080fd5b60208301915083602082028301111561251f57600080fd5b9250929050565b600081519050612535816135e1565b92915050565b60008135905061254a816135f8565b92915050565b60008083601f84011261256257600080fd5b8235905067ffffffffffffffff81111561257b57600080fd5b60208301915083600182028301111561259357600080fd5b9250929050565b600082601f8301126125ab57600080fd5b81356125be6125b98261330a565b6132dd565b915080825260208301602083018583830111156125da57600080fd5b6125e583828461353c565b50505092915050565b6000813590506125fd8161360f565b92915050565b6000815190506126128161360f565b92915050565b60008151905061262781613626565b92915050565b60006020828403121561263f57600080fd5b600061264d8482850161247d565b91505092915050565b600080600080600080600080600060a08a8c03121561267457600080fd5b60008a013567ffffffffffffffff81111561268e57600080fd5b61269a8c828d01612492565b995099505060208a013567ffffffffffffffff8111156126b957600080fd5b6126c58c828d016124dc565b975097505060408a013567ffffffffffffffff8111156126e457600080fd5b6126f08c828d016124dc565b955095505060606127038c828d0161247d565b93505060808a013567ffffffffffffffff81111561272057600080fd5b61272c8c828d01612550565b92509250509295985092959850929598565b60006020828403121561275057600080fd5b600061275e84828501612526565b91505092915050565b6000806040838503121561277a57600080fd5b60006127888582860161253b565b9250506020612799858286016125ee565b9150509250929050565b600080604083850312156127b657600080fd5b60006127c4858286016125ee565b925050602083013567ffffffffffffffff8111156127e157600080fd5b6127ed8582860161259a565b9150509250929050565b6000806000806000806000806000806101408b8d03121561281757600080fd5b60006128258d828e01612603565b9a505060206128368d828e01612603565b99505060406128478d828e01612603565b98505060606128588d828e01612603565b97505060806128698d828e01612603565b96505060a061287a8d828e01612603565b95505060c061288b8d828e01612603565b94505060e061289c8d828e01612603565b9350506101006128ae8d828e01612603565b9250506101206128c08d828e01612618565b9150509295989b9194979a5092959850565b60008060008060008060008060006101208a8c0312156128f157600080fd5b60006128ff8c828d01612603565b99505060206129108c828d01612603565b98505060406129218c828d01612603565b97505060606129328c828d01612603565b96505060806129438c828d01612603565b95505060a06129548c828d01612603565b94505060c06129658c828d01612603565b93505060e06129768c828d01612618565b9250506101006129888c828d01612526565b9150509295985092959850929598565b60006129a483836129d7565b60208301905092915050565b60006129bc8383612e98565b60208301905092915050565b6129d181613488565b82525050565b6129e0816133eb565b82525050565b6129ef816133eb565b82525050565b6000612a0082613356565b612a0a818561339c565b9350612a1583613336565b8060005b83811015612a46578151612a2d8882612998565b9750612a3883613382565b925050600181019050612a19565b5085935050505092915050565b6000612a5e82613361565b612a6881856133ad565b9350612a7383613346565b8060005b83811015612aa4578151612a8b88826129b0565b9750612a968361338f565b925050600181019050612a77565b5085935050505092915050565b612aba816133fd565b82525050565b612ac981613409565b82525050565b612ad881613413565b82525050565b6000612ae98261336c565b612af381856133be565b9350612b0381856020860161354b565b612b0c816135ac565b840191505092915050565b612b28612b238261349a565b61357e565b82525050565b612b37816134be565b82525050565b612b46816134e2565b82525050565b612b5581613506565b82525050565b6000612b6682613377565b612b7081856133e0565b9350612b8081856020860161354b565b80840191505092915050565b6000612b996026836133cf565b91507f4f776e61626c653a206e6577206f776e657220697320746865207a65726f206160008301527f64647265737300000000000000000000000000000000000000000000000000006020830152604082019050919050565b6000612bff601b836133cf565b91507f536166654d6174683a206164646974696f6e206f766572666c6f7700000000006000830152602082019050919050565b6000612c3f6023836133cf565b91507f756e61626c6520746f207472616e73666572416e6443616c6c20746f206f726160008301527f636c6500000000000000000000000000000000000000000000000000000000006020830152604082019050919050565b6000612ca56004836133e0565b91507f42555344000000000000000000000000000000000000000000000000000000006000830152600482019050919050565b6000612ce56004836133e0565b91507f55534454000000000000000000000000000000000000000000000000000000006000830152600482019050919050565b6000612d256020836133cf565b91507f4f776e61626c653a2063616c6c6572206973206e6f7420746865206f776e65726000830152602082019050919050565b6000612d656004836133e0565b91507f54555344000000000000000000000000000000000000000000000000000000006000830152600482019050919050565b6000612da56003836133e0565b91507f44414900000000000000000000000000000000000000000000000000000000006000830152600382019050919050565b6000612de56000836133be565b9150600082019050919050565b6000612dff6028836133cf565b91507f536f75726365206d75737420626520746865206f7261636c65206f662074686560008301527f20726571756573740000000000000000000000000000000000000000000000006020830152604082019050919050565b6000612e656004836133e0565b91507f55534443000000000000000000000000000000000000000000000000000000006000830152600482019050919050565b612ea18161346d565b82525050565b612eb08161346d565b82525050565b612ec7612ec28261346d565b6135a2565b82525050565b6000612ed98285612b17565b601482019150612ee98284612eb6565b6020820191508190509392505050565b6000612f058284612b5b565b915081905092915050565b6000612f1b82612c98565b9150819050919050565b6000612f3082612cd8565b9150819050919050565b6000612f4582612d58565b9150819050919050565b6000612f5a82612d98565b9150819050919050565b6000612f6f82612e58565b9150819050919050565b6000602082019050612f8e60008301846129e6565b92915050565b600060e082019050612fa960008301896129c8565b8181036020830152612fbb81886129f5565b90508181036040830152612fcf8187612a53565b90508181036060830152612fe38186612a53565b9050612ff260808301856129e6565b81810360a083015261300381612dd8565b905061301260c0830184612b4c565b979650505050505050565b600060408201905061303260008301856129e6565b61303f60208301846129e6565b9392505050565b600060408201905061305b60008301856129e6565b6130686020830184612ea7565b9392505050565b600060808201905061308460008301876129e6565b6130916020830186612ea7565b61309e60408301856129c8565b6130ab6060830184612b4c565b95945050505050565b6000610100820190506130ca600083018b6129e6565b6130d7602083018a612ea7565b6130e46040830189612ac0565b6130f160608301886129e6565b6130fe6080830187612acf565b61310b60a0830186612ea7565b61311860c0830185612ea7565b81810360e083015261312a8184612ade565b90509998505050505050505050565b600060608201905061314e60008301866129e6565b61315b6020830185612ea7565b818103604083015261316d8184612ade565b9050949350505050565b6000602082019050818103600083015261319181846129f5565b905092915050565b60006020820190506131ae6000830184612ab1565b92915050565b60006020820190506131c96000830184612b2e565b92915050565b60006020820190506131e46000830184612b3d565b92915050565b6000602082019050818103600083015261320381612b8c565b9050919050565b6000602082019050818103600083015261322381612bf2565b9050919050565b6000602082019050818103600083015261324381612c32565b9050919050565b6000602082019050818103600083015261326381612d18565b9050919050565b6000602082019050818103600083015261328381612df2565b9050919050565b600060a08201905061329f6000830188612ea7565b6132ac6020830187612ea7565b6132b96040830186612ea7565b6132c66060830185612ea7565b6132d36080830184612ea7565b9695505050505050565b6000604051905081810181811067ffffffffffffffff8211171561330057600080fd5b8060405250919050565b600067ffffffffffffffff82111561332157600080fd5b601f19601f8301169050602081019050919050565b6000819050602082019050919050565b6000819050602082019050919050565b600081519050919050565b600081519050919050565b600081519050919050565b600081519050919050565b6000602082019050919050565b6000602082019050919050565b600082825260208201905092915050565b600082825260208201905092915050565b600082825260208201905092915050565b600082825260208201905092915050565b600081905092915050565b60006133f68261344d565b9050919050565b60008115159050919050565b6000819050919050565b60007fffffffff0000000000000000000000000000000000000000000000000000000082169050919050565b600061ffff82169050919050565b600073ffffffffffffffffffffffffffffffffffffffff82169050919050565b6000819050919050565b600064ffffffffff82169050919050565b600061349382613518565b9050919050565b60006134a5826134ac565b9050919050565b60006134b78261344d565b9050919050565b60006134c9826134d0565b9050919050565b60006134db8261344d565b9050919050565b60006134ed826134f4565b9050919050565b60006134ff8261344d565b9050919050565b60006135118261343f565b9050919050565b60006135238261352a565b9050919050565b60006135358261344d565b9050919050565b82818337600083830152505050565b60005b8381101561356957808201518184015260208101905061354e565b83811115613578576000848401525b50505050565b600061358982613590565b9050919050565b600061359b826135bd565b9050919050565b6000819050919050565b6000601f19601f8301169050919050565b60008160601b9050919050565b6135d3816133eb565b81146135de57600080fd5b50565b6135ea816133fd565b81146135f557600080fd5b50565b61360181613409565b811461360c57600080fd5b50565b6136188161346d565b811461362357600080fd5b50565b61362f81613477565b811461363a57600080fd5b5056fea264697066735822122093cb8968567d902a11d80e397e8dde9f8fdbc04517e5a7aa83e27cce71a7c6f364736f6c634300060c0033",
  "linkReferences": {},
  "deployedLinkReferences": {}
}