{
  "_format": "hh-sol-artifact-1",
  "contractName": "StableRatioSwap",
  "sourceName": "contracts/StableRatioSwap.sol",
  "abi": [
    {
      "inputs": [],
      "stateMutability": "nonpayable",
      "type": "constructor"
    },
    {
      "anonymous": false,
      "inputs": [
        {
          "indexed": false,
          "internalType": "uint256",
          "name": "tusd",
          "type": "uint256"
        },
        {
          "indexed": false,
          "internalType": "uint256",
          "name": "decimalsTusd",
          "type": "uint256"
        },
        {
          "indexed": false,
          "internalType": "uint256",
          "name": "usdc",
          "type": "uint256"
        },
        {
          "indexed": false,
          "internalType": "uint256",
          "name": "decimalsUsdc",
          "type": "uint256"
        },
        {
          "indexed": false,
          "internalType": "uint256",
          "name": "usdt",
          "type": "uint256"
        },
        {
          "indexed": false,
          "internalType": "uint256",
          "name": "decimalsUsdt",
          "type": "uint256"
        },
        {
          "indexed": false,
          "internalType": "uint256",
          "name": "dai",
          "type": "uint256"
        },
        {
          "indexed": false,
          "internalType": "uint256",
          "name": "decimalsDai",
          "type": "uint256"
        },
        {
          "indexed": false,
          "internalType": "uint256",
          "name": "busd",
          "type": "uint256"
        },
        {
          "indexed": false,
          "internalType": "uint256",
          "name": "decimalsBusd",
          "type": "uint256"
        }
      ],
      "name": "AllDeposits",
      "type": "event"
    },
    {
      "anonymous": false,
      "inputs": [
        {
          "indexed": true,
          "internalType": "bytes32",
          "name": "id",
          "type": "bytes32"
        }
      ],
      "name": "ChainlinkCancelled",
      "type": "event"
    },
    {
      "anonymous": false,
      "inputs": [
        {
          "indexed": true,
          "internalType": "bytes32",
          "name": "id",
          "type": "bytes32"
        }
      ],
      "name": "ChainlinkFulfilled",
      "type": "event"
    },
    {
      "anonymous": false,
      "inputs": [
        {
          "indexed": true,
          "internalType": "bytes32",
          "name": "id",
          "type": "bytes32"
        }
      ],
      "name": "ChainlinkRequested",
      "type": "event"
    },
    {
      "anonymous": false,
      "inputs": [
        {
          "indexed": false,
          "internalType": "bool",
          "name": "createUserStatus",
          "type": "bool"
        }
      ],
      "name": "CreateUser",
      "type": "event"
    },
    {
      "anonymous": false,
      "inputs": [
        {
          "indexed": false,
          "internalType": "bool",
          "name": "depositStatus",
          "type": "bool"
        }
      ],
      "name": "Deposit",
      "type": "event"
    },
    {
      "anonymous": false,
      "inputs": [
        {
          "indexed": false,
          "internalType": "bool",
          "name": "optInStatus",
          "type": "bool"
        }
      ],
      "name": "OptInToggle",
      "type": "event"
    },
    {
      "anonymous": false,
      "inputs": [
        {
          "indexed": true,
          "internalType": "address",
          "name": "previousOwner",
          "type": "address"
        },
        {
          "indexed": true,
          "internalType": "address",
          "name": "newOwner",
          "type": "address"
        }
      ],
      "name": "OwnershipTransferred",
      "type": "event"
    },
    {
      "anonymous": false,
      "inputs": [
        {
          "indexed": false,
          "internalType": "bool",
          "name": "swapStatus",
          "type": "bool"
        },
        {
          "indexed": false,
          "internalType": "uint256",
          "name": "ratio",
          "type": "uint256"
        }
      ],
      "name": "SwapStablecoinDeposit",
      "type": "event"
    },
    {
      "inputs": [],
      "name": "ADDRESSES_PROVIDER",
      "outputs": [
        {
          "internalType": "contract ILendingPoolAddressesProvider",
          "name": "",
          "type": "address"
        }
      ],
      "stateMutability": "view",
      "type": "function"
    },
    {
      "inputs": [],
      "name": "LENDING_POOL",
      "outputs": [
        {
          "internalType": "contract ILendingPool",
          "name": "",
          "type": "address"
        }
      ],
      "stateMutability": "view",
      "type": "function"
    },
    {
      "inputs": [],
      "name": "createUser",
      "outputs": [],
      "stateMutability": "nonpayable",
      "type": "function"
    },
    {
      "inputs": [
        {
          "internalType": "uint256",
          "name": "amount",
          "type": "uint256"
        },
        {
          "internalType": "string",
          "name": "tokenType",
          "type": "string"
        },
        {
          "internalType": "address",
          "name": "sender",
          "type": "address"
        }
      ],
      "name": "deposit",
      "outputs": [],
      "stateMutability": "nonpayable",
      "type": "function"
    },
    {
      "inputs": [
        {
          "internalType": "address[]",
          "name": "assets",
          "type": "address[]"
        },
        {
          "internalType": "uint256[]",
          "name": "amounts",
          "type": "uint256[]"
        },
        {
          "internalType": "uint256[]",
          "name": "premiums",
          "type": "uint256[]"
        },
        {
          "internalType": "address",
          "name": "initiator",
          "type": "address"
        },
        {
          "internalType": "bytes",
          "name": "params",
          "type": "bytes"
        }
      ],
      "name": "executeOperation",
      "outputs": [
        {
          "internalType": "bool",
          "name": "",
          "type": "bool"
        }
      ],
      "stateMutability": "nonpayable",
      "type": "function"
    },
    {
      "inputs": [],
      "name": "getAllStablecoinDeposits",
      "outputs": [],
      "stateMutability": "nonpayable",
      "type": "function"
    },
    {
      "inputs": [
        {
          "internalType": "bytes32",
          "name": "_requestID",
          "type": "bytes32"
        },
        {
          "internalType": "uint256",
          "name": "_ratio",
          "type": "uint256"
        }
      ],
      "name": "getTUSDRatio",
      "outputs": [],
      "stateMutability": "nonpayable",
      "type": "function"
    },
    {
      "inputs": [],
      "name": "optInToggle",
      "outputs": [],
      "stateMutability": "nonpayable",
      "type": "function"
    },
    {
      "inputs": [],
      "name": "owner",
      "outputs": [
        {
          "internalType": "address",
          "name": "",
          "type": "address"
        }
      ],
      "stateMutability": "view",
      "type": "function"
    },
    {
      "inputs": [],
      "name": "renounceOwnership",
      "outputs": [],
      "stateMutability": "nonpayable",
      "type": "function"
    },
    {
      "inputs": [
        {
          "internalType": "bool",
          "name": "force",
          "type": "bool"
        }
      ],
      "name": "swapStablecoinDeposit",
      "outputs": [],
      "stateMutability": "nonpayable",
      "type": "function"
    },
    {
      "inputs": [
        {
          "internalType": "address",
          "name": "newOwner",
          "type": "address"
        }
      ],
      "name": "transferOwnership",
      "outputs": [],
      "stateMutability": "nonpayable",
      "type": "function"
    },
    {
      "inputs": [
        {
          "internalType": "uint256",
          "name": "amount",
          "type": "uint256"
        }
      ],
      "name": "uniswapSwap",
      "outputs": [],
      "stateMutability": "payable",
      "type": "function"
    },
    {
      "stateMutability": "payable",
      "type": "receive"
    }
  ],
  "bytecode": "0x608060405260016004553480156200001657600080fd5b506000620000296200066c60201b60201c565b905080600660006101000a81548173ffffffffffffffffffffffffffffffffffffffff021916908373ffffffffffffffffffffffffffffffffffffffff1602179055508073ffffffffffffffffffffffffffffffffffffffff16600073ffffffffffffffffffffffffffffffffffffffff167f8be0079c531659141344cd1fd0a4f28419497f9722a3daafe3b4186f6b6457e060405160405180910390a350620000d86200067460201b60201c565b733c73a5e5785cac854d468f727c606c07488a29d6600760006101000a81548173ffffffffffffffffffffffffffffffffffffffff021916908373ffffffffffffffffffffffffffffffffffffffff1602179055507388757f2f99175387ab4c6a4b3067c77a695b0349601160006101000a81548173ffffffffffffffffffffffffffffffffffffffff021916908373ffffffffffffffffffffffffffffffffffffffff160217905550601160009054906101000a900473ffffffffffffffffffffffffffffffffffffffff1673ffffffffffffffffffffffffffffffffffffffff16630261bf8b6040518163ffffffff1660e01b815260040160206040518083038186803b158015620001eb57600080fd5b505afa15801562000200573d6000803e3d6000fd5b505050506040513d601f19601f8201168201806040525081019062000226919062000777565b600860006101000a81548173ffffffffffffffffffffffffffffffffffffffff021916908373ffffffffffffffffffffffffffffffffffffffff160217905550600860009054906101000a900473ffffffffffffffffffffffffffffffffffffffff16601260006101000a81548173ffffffffffffffffffffffffffffffffffffffff021916908373ffffffffffffffffffffffffffffffffffffffff16021790555073016750ac630f711882812f24dba6c95b9d35856d600f604051620002ee906200091b565b908152602001604051809103902060006101000a81548173ffffffffffffffffffffffffffffffffffffffff021916908373ffffffffffffffffffffffffffffffffffffffff16021790555073e22da380ee6b445bb8273c81944adeb6e8450422600f6040516200035f9062000949565b908152602001604051809103902060006101000a81548173ffffffffffffffffffffffffffffffffffffffff021916908373ffffffffffffffffffffffffffffffffffffffff1602179055507313512979ade267ab5100878e2e0f485b568328a4600f604051620003d09062000904565b908152602001604051809103902060006101000a81548173ffffffffffffffffffffffffffffffffffffffff021916908373ffffffffffffffffffffffffffffffffffffffff16021790555073ff795577d9ac8bd7d90ee22b6c1703490b6512fd600f604051620004419062000932565b908152602001604051809103902060006101000a81548173ffffffffffffffffffffffffffffffffffffffff021916908373ffffffffffffffffffffffffffffffffffffffff160217905550734c6e1efc12fdfd568186b7baec0a43fffb4bcccf600f604051620004b290620008ed565b908152602001604051809103902060006101000a81548173ffffffffffffffffffffffffffffffffffffffff021916908373ffffffffffffffffffffffffffffffffffffffff1602179055506001601060405162000510906200091b565b908152602001604051809103902060006101000a81548160ff02191690831515021790555060016010604051620005479062000949565b908152602001604051809103902060006101000a81548160ff021916908315150217905550600160106040516200057e9062000904565b908152602001604051809103902060006101000a81548160ff02191690831515021790555060016010604051620005b59062000932565b908152602001604051809103902060006101000a81548160ff02191690831515021790555060016010604051620005ec90620008ed565b908152602001604051809103902060006101000a81548160ff021916908315150217905550737a250d5630b4cf539739df2c5dacb4c659f2488d601360006101000a81548173ffffffffffffffffffffffffffffffffffffffff021916908373ffffffffffffffffffffffffffffffffffffffff160217905550620009b9565b600033905090565b6200071a73c89bd4e1632d3a43cb03aaad5262cbe4038bc57173ffffffffffffffffffffffffffffffffffffffff166338cc48316040518163ffffffff1660e01b815260040160206040518083038186803b158015620006d357600080fd5b505afa158015620006e8573d6000803e3d6000fd5b505050506040513d601f19601f820116820180604052508101906200070e919062000777565b6200071c60201b60201c565b565b80600260006101000a81548173ffffffffffffffffffffffffffffffffffffffff021916908373ffffffffffffffffffffffffffffffffffffffff16021790555050565b60008151905062000771816200099f565b92915050565b6000602082840312156200078a57600080fd5b60006200079a8482850162000760565b91505092915050565b6000620007b260048362000960565b91507f42555344000000000000000000000000000000000000000000000000000000006000830152600482019050919050565b6000620007f460048362000960565b91507f55534454000000000000000000000000000000000000000000000000000000006000830152600482019050919050565b60006200083660048362000960565b91507f54555344000000000000000000000000000000000000000000000000000000006000830152600482019050919050565b60006200087860038362000960565b91507f44414900000000000000000000000000000000000000000000000000000000006000830152600382019050919050565b6000620008ba60048362000960565b91507f55534443000000000000000000000000000000000000000000000000000000006000830152600482019050919050565b6000620008fa82620007a3565b9150819050919050565b60006200091182620007e5565b9150819050919050565b6000620009288262000827565b9150819050919050565b60006200093f8262000869565b9150819050919050565b60006200095682620008ab565b9150819050919050565b600081905092915050565b600062000978826200097f565b9050919050565b600073ffffffffffffffffffffffffffffffffffffffff82169050919050565b620009aa816200096b565b8114620009b657600080fd5b50565b61406680620009c96000396000f3fe6080604052600436106100c55760003560e01c80636a7575701161007f578063920f5c8411610059578063920f5c84146101f1578063b4dcfc771461022e578063c2bc4dc114610259578063f2fde38b14610282576100cc565b80636a75757014610193578063715018a6146101af5780638da5cb5b146101c6576100cc565b8062393f2b146100d15780630542975c146100fa57806306791a561461012557806325ad91ce1461014e5780632783879f1461016557806332eefcf51461017c576100cc565b366100cc57005b600080fd5b3480156100dd57600080fd5b506100f860048036038101906100f39190612de6565b6102ab565b005b34801561010657600080fd5b5061010f610475565b60405161011c9190613a5e565b60405180910390f35b34801561013157600080fd5b5061014c60048036038101906101479190612d81565b61049b565b005b34801561015a57600080fd5b506101636105b4565b005b34801561017157600080fd5b5061017a61085d565b005b34801561018857600080fd5b50610191610a10565b005b6101ad60048036038101906101a89190612dbd565b610b42565b005b3480156101bb57600080fd5b506101c4611100565b005b3480156101d257600080fd5b506101db611258565b6040516101e89190613708565b60405180910390f35b3480156101fd57600080fd5b5061021860048036038101906102139190612c06565b611282565b604051610225919061394d565b60405180910390f35b34801561023a57600080fd5b50610243611419565b6040516102509190613a79565b60405180910390f35b34801561026557600080fd5b50610280600480360381019061027b9190612d2f565b61143f565b005b34801561028e57600080fd5b506102a960048036038101906102a49190612bdd565b6114a5565b005b6010826040516102bb9190613688565b908152602001604051809103902060009054906101000a900460ff166102e057600080fd5b6000600f836040516102f29190613688565b908152602001604051809103902060009054906101000a900473ffffffffffffffffffffffffffffffffffffffff1690508073ffffffffffffffffffffffffffffffffffffffff1663095ea7b3600860009054906101000a900473ffffffffffffffffffffffffffffffffffffffff16866040518363ffffffff1660e01b81526004016103809291906137d7565b602060405180830381600087803b15801561039a57600080fd5b505af11580156103ae573d6000803e3d6000fd5b505050506040513d601f19601f820116820180604052508101906103d29190612d58565b6103db57600080fd5b601260009054906101000a900473ffffffffffffffffffffffffffffffffffffffff1673ffffffffffffffffffffffffffffffffffffffff1663e8eda9df82868560006040518563ffffffff1660e01b815260040161043d9493929190613800565b600060405180830381600087803b15801561045757600080fd5b505af115801561046b573d6000803e3d6000fd5b5050505050505050565b601160009054906101000a900473ffffffffffffffffffffffffffffffffffffffff1681565b816005600082815260200190815260200160002060009054906101000a900473ffffffffffffffffffffffffffffffffffffffff1673ffffffffffffffffffffffffffffffffffffffff163373ffffffffffffffffffffffffffffffffffffffff161461053d576040517f08c379a000000000000000000000000000000000000000000000000000000000815260040161053490613b14565b60405180910390fd5b6005600082815260200190815260200160002060006101000a81549073ffffffffffffffffffffffffffffffffffffffff0219169055807f7cc135e0cebb02c3480ae5d74d377283180a2601f8f644edf7987b009316c63a60405160405180910390a2816009819055506105af61166c565b505050565b600073ffffffffffffffffffffffffffffffffffffffff16600e60003373ffffffffffffffffffffffffffffffffffffffff1673ffffffffffffffffffffffffffffffffffffffff16815260200190815260200160002060000160009054906101000a900473ffffffffffffffffffffffffffffffffffffffff1673ffffffffffffffffffffffffffffffffffffffff1614156108225733600e60003373ffffffffffffffffffffffffffffffffffffffff1673ffffffffffffffffffffffffffffffffffffffff16815260200190815260200160002060000160006101000a81548173ffffffffffffffffffffffffffffffffffffffff021916908373ffffffffffffffffffffffffffffffffffffffff1602179055506001600e60003373ffffffffffffffffffffffffffffffffffffffff1673ffffffffffffffffffffffffffffffffffffffff16815260200190815260200160002060000160146101000a81548160ff0219169083151502179055506000600e60003373ffffffffffffffffffffffffffffffffffffffff1673ffffffffffffffffffffffffffffffffffffffff16815260200190815260200160002060000160156101000a81548160ff021916908315150217905550600d339080600181540180825580915050600190039060005260206000200160009091909190916101000a81548173ffffffffffffffffffffffffffffffffffffffff021916908373ffffffffffffffffffffffffffffffffffffffff1602179055507f2b865278e72421ded897b30277b72c654fe5b824c08eb97de6fabdeff85d55cc6001604051610815919061394d565b60405180910390a161085b565b7f2b865278e72421ded897b30277b72c654fe5b824c08eb97de6fabdeff85d55cc6000604051610852919061394d565b60405180910390a15b565b60008061089f336040518060400160405280600481526020017f5455534400000000000000000000000000000000000000000000000000000000815250611b70565b915091506000806108e5336040518060400160405280600481526020017f5553444300000000000000000000000000000000000000000000000000000000815250611b70565b9150915060008061092b336040518060400160405280600481526020017f5553445400000000000000000000000000000000000000000000000000000000815250611b70565b91509150600080610971336040518060400160405280600381526020017f4441490000000000000000000000000000000000000000000000000000000000815250611b70565b915091506000806109b7336040518060400160405280600481526020017f4255534400000000000000000000000000000000000000000000000000000000815250611b70565b915091507f155b00305b2e5bdc0d6a3e34cf7ffbccdb1c25ab69c2059181928f6f61f2b4758a8a8a8a8a8a8a8a8a8a6040516109fc9a99989796959493929190613b8e565b60405180910390a150505050505050505050565b600e60003373ffffffffffffffffffffffffffffffffffffffff1673ffffffffffffffffffffffffffffffffffffffff16815260200190815260200160002060000160149054906101000a900460ff1615600e60003373ffffffffffffffffffffffffffffffffffffffff1673ffffffffffffffffffffffffffffffffffffffff16815260200190815260200160002060000160146101000a81548160ff0219169083151502179055507f7ebb6fb163dd741d0bc3e9634b5c5bef95a5519bc08ca96b0ec823b771b6481f600e60003373ffffffffffffffffffffffffffffffffffffffff1673ffffffffffffffffffffffffffffffffffffffff16815260200190815260200160002060000160149054906101000a900460ff16604051610b38919061394d565b60405180910390a1565b600c60009054906101000a900473ffffffffffffffffffffffffffffffffffffffff1673ffffffffffffffffffffffffffffffffffffffff1663095ea7b3601360009054906101000a900473ffffffffffffffffffffffffffffffffffffffff16836040518363ffffffff1660e01b8152600401610bc19291906137d7565b602060405180830381600087803b158015610bdb57600080fd5b505af1158015610bef573d6000803e3d6000fd5b505050506040513d601f19601f82011682018060405250810190610c139190612d58565b15610c58577f9393266a0edf3831afe7674c86dae0421b971ab0821c1930755ffa0b09a1d87160016065604051610c4b929190613968565b60405180910390a1610c94565b7f9393266a0edf3831afe7674c86dae0421b971ab0821c1930755ffa0b09a1d87160006066604051610c8b929190613991565b60405180910390a15b6060600267ffffffffffffffff81118015610cae57600080fd5b50604051908082528060200260200182016040528015610cdd5781602001602082028036833780820191505090505b50905073016750ac630f711882812f24dba6c95b9d35856d81600081518110610d0257fe5b602002602001019073ffffffffffffffffffffffffffffffffffffffff16908173ffffffffffffffffffffffffffffffffffffffff1681525050600c60009054906101000a900473ffffffffffffffffffffffffffffffffffffffff1681600181518110610d6c57fe5b602002602001019073ffffffffffffffffffffffffffffffffffffffff16908173ffffffffffffffffffffffffffffffffffffffff16815250506000600f420190506060601360009054906101000a900473ffffffffffffffffffffffffffffffffffffffff1673ffffffffffffffffffffffffffffffffffffffff166338ed17398560008630876040518663ffffffff1660e01b8152600401610e14959493929190613b34565b600060405180830381600087803b158015610e2e57600080fd5b505af1158015610e42573d6000803e3d6000fd5b505050506040513d6000823e3d601f19601f82011682018060405250810190610e6b9190612cee565b9050600c60009054906101000a900473ffffffffffffffffffffffffffffffffffffffff1673ffffffffffffffffffffffffffffffffffffffff1663095ea7b3601260009054906101000a900473ffffffffffffffffffffffffffffffffffffffff1683600181518110610edb57fe5b60200260200101516040518363ffffffff1660e01b8152600401610f009291906137d7565b602060405180830381600087803b158015610f1a57600080fd5b505af1158015610f2e573d6000803e3d6000fd5b505050506040513d601f19601f82011682018060405250810190610f529190612d58565b15610f97577f9393266a0edf3831afe7674c86dae0421b971ab0821c1930755ffa0b09a1d87160016067604051610f8a9291906139ba565b60405180910390a1610fd3565b7f9393266a0edf3831afe7674c86dae0421b971ab0821c1930755ffa0b09a1d87160016068604051610fca9291906139e3565b60405180910390a15b601260009054906101000a900473ffffffffffffffffffffffffffffffffffffffff1673ffffffffffffffffffffffffffffffffffffffff1663e8eda9df600c60009054906101000a900473ffffffffffffffffffffffffffffffffffffffff168360018151811061104157fe5b6020026020010151600b60009054906101000a900473ffffffffffffffffffffffffffffffffffffffff1660006040518563ffffffff1660e01b815260040161108d9493929190613845565b600060405180830381600087803b1580156110a757600080fd5b505af11580156110bb573d6000803e3d6000fd5b505050507f9393266a0edf3831afe7674c86dae0421b971ab0821c1930755ffa0b09a1d871600160696040516110f2929190613a0c565b60405180910390a150505050565b611108611d6e565b73ffffffffffffffffffffffffffffffffffffffff16600660009054906101000a900473ffffffffffffffffffffffffffffffffffffffff1673ffffffffffffffffffffffffffffffffffffffff1614611197576040517f08c379a000000000000000000000000000000000000000000000000000000000815260040161118e90613af4565b60405180910390fd5b600073ffffffffffffffffffffffffffffffffffffffff16600660009054906101000a900473ffffffffffffffffffffffffffffffffffffffff1673ffffffffffffffffffffffffffffffffffffffff167f8be0079c531659141344cd1fd0a4f28419497f9722a3daafe3b4186f6b6457e060405160405180910390a36000600660006101000a81548173ffffffffffffffffffffffffffffffffffffffff021916908373ffffffffffffffffffffffffffffffffffffffff160217905550565b6000600660009054906101000a900473ffffffffffffffffffffffffffffffffffffffff16905090565b6000808888600081811061129257fe5b9050602002013590506112a481610b42565b60005b8b8b90508110156113cb5760006112eb8989848181106112c357fe5b905060200201358c8c858181106112d657fe5b90506020020135611d7690919063ffffffff16565b90508c8c838181106112f957fe5b905060200201602081019061130e9190612bdd565b73ffffffffffffffffffffffffffffffffffffffff1663095ea7b3601260009054906101000a900473ffffffffffffffffffffffffffffffffffffffff16836040518363ffffffff1660e01b815260040161136a9291906137d7565b602060405180830381600087803b15801561138457600080fd5b505af1158015611398573d6000803e3d6000fd5b505050506040513d601f19601f820116820180604052508101906113bc9190612d58565b505080806001019150506112a7565b507f9393266a0edf3831afe7674c86dae0421b971ab0821c1930755ffa0b09a1d8716001606a6040516113ff929190613a35565b60405180910390a160019150509998505050505050505050565b601260009054906101000a900473ffffffffffffffffffffffffffffffffffffffff1681565b6001600e60003373ffffffffffffffffffffffffffffffffffffffff1673ffffffffffffffffffffffffffffffffffffffff16815260200190815260200160002060000160156101000a81548160ff0219169083151502179055506114a2611dcb565b50565b6114ad611d6e565b73ffffffffffffffffffffffffffffffffffffffff16600660009054906101000a900473ffffffffffffffffffffffffffffffffffffffff1673ffffffffffffffffffffffffffffffffffffffff161461153c576040517f08c379a000000000000000000000000000000000000000000000000000000000815260040161153390613af4565b60405180910390fd5b600073ffffffffffffffffffffffffffffffffffffffff168173ffffffffffffffffffffffffffffffffffffffff1614156115ac576040517f08c379a00000000000000000000000000000000000000000000000000000000081526004016115a390613a94565b60405180910390fd5b8073ffffffffffffffffffffffffffffffffffffffff16600660009054906101000a900473ffffffffffffffffffffffffffffffffffffffff1673ffffffffffffffffffffffffffffffffffffffff167f8be0079c531659141344cd1fd0a4f28419497f9722a3daafe3b4186f6b6457e060405160405180910390a380600660006101000a81548173ffffffffffffffffffffffffffffffffffffffff021916908373ffffffffffffffffffffffffffffffffffffffff16021790555050565b60005b600d80549050811015611b6d57600e6000600d838154811061168d57fe5b9060005260206000200160009054906101000a900473ffffffffffffffffffffffffffffffffffffffff1673ffffffffffffffffffffffffffffffffffffffff1673ffffffffffffffffffffffffffffffffffffffff16815260200190815260200160002060000160149054906101000a900460ff1615611b60576060600167ffffffffffffffff8111801561172257600080fd5b506040519080825280602002602001820160405280156117515781602001602082028036833780820191505090505b5090506117ca600d838154811061176457fe5b9060005260206000200160009054906101000a900473ffffffffffffffffffffffffffffffffffffffff166040518060400160405280600481526020017f5455534400000000000000000000000000000000000000000000000000000000815250611b70565b50816000815181106117d857fe5b602002602001018181525050606060006117f0611e31565b91509150600f826040516118049190613688565b908152602001604051809103902060009054906101000a900473ffffffffffffffffffffffffffffffffffffffff16600c60006101000a81548173ffffffffffffffffffffffffffffffffffffffff021916908373ffffffffffffffffffffffffffffffffffffffff16021790555060003090506060600167ffffffffffffffff8111801561189257600080fd5b506040519080825280602002602001820160405280156118c15781602001602082028036833780820191505090505b509050600f6040516118d2906136c9565b908152602001604051809103902060009054906101000a900473ffffffffffffffffffffffffffffffffffffffff168160008151811061190e57fe5b602002602001019073ffffffffffffffffffffffffffffffffffffffff16908173ffffffffffffffffffffffffffffffffffffffff16815250506000309050606060405180602001604052806000815250905060006060600167ffffffffffffffff8111801561197d57600080fd5b506040519080825280602002602001820160405280156119ac5781602001602082028036833780820191505090505b509050886000815181106119bc57fe5b6020026020010151816000815181106119d157fe5b6020026020010181815250506060600167ffffffffffffffff811180156119f757600080fd5b50604051908082528060200260200182016040528015611a265781602001602082028036833780820191505090505b509050600081600081518110611a3857fe5b602002602001018181525050600d8b81548110611a5157fe5b9060005260206000200160009054906101000a900473ffffffffffffffffffffffffffffffffffffffff16600b60006101000a81548173ffffffffffffffffffffffffffffffffffffffff021916908373ffffffffffffffffffffffffffffffffffffffff160217905550601260009054906101000a900473ffffffffffffffffffffffffffffffffffffffff1673ffffffffffffffffffffffffffffffffffffffff1663ab9c4b5d888885858a8a8a6040518863ffffffff1660e01b8152600401611b23979695949392919061374c565b600060405180830381600087803b158015611b3d57600080fd5b505af1158015611b51573d6000803e3d6000fd5b50505050505050505050505050505b808060010191505061166f565b50565b600080601083604051611b839190613688565b908152602001604051809103902060009054906101000a900460ff16611ba857600080fd5b6000600f84604051611bba9190613688565b908152602001604051809103902060009054906101000a900473ffffffffffffffffffffffffffffffffffffffff1690506000600760009054906101000a900473ffffffffffffffffffffffffffffffffffffffff1673ffffffffffffffffffffffffffffffffffffffff166328dd2d0183886040518363ffffffff1660e01b8152600401611c4a929190613723565b6101206040518083038186803b158015611c6357600080fd5b505afa158015611c77573d6000803e3d6000fd5b505050506040513d601f19601f82011682018060405250810190611c9b9190613003565b505050505050505090506000600760009054906101000a900473ffffffffffffffffffffffffffffffffffffffff1673ffffffffffffffffffffffffffffffffffffffff16633e150141846040518263ffffffff1660e01b8152600401611d029190613708565b6101406040518083038186803b158015611d1b57600080fd5b505afa158015611d2f573d6000803e3d6000fd5b505050506040513d601f19601f82011682018060405250810190611d539190612e4d565b50505050505050505090508181945094505050509250929050565b600033905090565b600080828401905083811015611dc1576040517f08c379a0000000000000000000000000000000000000000000000000000000008152600401611db890613ab4565b60405180910390fd5b8091505092915050565b611dd361290e565b611e057f3335653134646264343930663465336239666265393262383562333264393861306306791a5660e01b61254f565b9050611e2d73fc153f49e74711c3140ca06bfacf42ffdc492a1782662386f26fc10000612580565b5050565b606060008060009050600060606040518060400160405280600481526020017f54555344000000000000000000000000000000000000000000000000000000008152509050600760009054906101000a900473ffffffffffffffffffffffffffffffffffffffff1673ffffffffffffffffffffffffffffffffffffffff166335ea6a75600f604051611ec2906136c9565b908152602001604051809103902060009054906101000a900473ffffffffffffffffffffffffffffffffffffffff166040518263ffffffff1660e01b8152600401611f0d9190613708565b6101406040518083038186803b158015611f2657600080fd5b505afa158015611f3a573d6000803e3d6000fd5b505050506040513d601f19601f82011682018060405250810190611f5e9190612f28565b90919293949596979850909192939495969750909192939495965090919293945090919293509091925090915090505080925050611f9c838361274a565b9250600760009054906101000a900473ffffffffffffffffffffffffffffffffffffffff1673ffffffffffffffffffffffffffffffffffffffff166335ea6a75600f604051611fea906136f3565b908152602001604051809103902060009054906101000a900473ffffffffffffffffffffffffffffffffffffffff166040518263ffffffff1660e01b81526004016120359190613708565b6101406040518083038186803b15801561204e57600080fd5b505afa158015612062573d6000803e3d6000fd5b505050506040513d601f19601f820116820180604052508101906120869190612f28565b909192939495969798509091929394959697509091929394959650909192939450909192935090919250909150905050809250506120c4838361274a565b925081831415612107576040518060400160405280600481526020017f555344430000000000000000000000000000000000000000000000000000000081525090505b600760009054906101000a900473ffffffffffffffffffffffffffffffffffffffff1673ffffffffffffffffffffffffffffffffffffffff166335ea6a75600f604051612153906136b4565b908152602001604051809103902060009054906101000a900473ffffffffffffffffffffffffffffffffffffffff166040518263ffffffff1660e01b815260040161219e9190613708565b6101406040518083038186803b1580156121b757600080fd5b505afa1580156121cb573d6000803e3d6000fd5b505050506040513d601f19601f820116820180604052508101906121ef9190612f28565b9091929394959697985090919293949596975090919293949596509091929394509091929350909192509091509050508092505061222d838361274a565b925081831415612270576040518060400160405280600481526020017f555344540000000000000000000000000000000000000000000000000000000081525090505b600760009054906101000a900473ffffffffffffffffffffffffffffffffffffffff1673ffffffffffffffffffffffffffffffffffffffff166335ea6a75600f6040516122bc906136de565b908152602001604051809103902060009054906101000a900473ffffffffffffffffffffffffffffffffffffffff166040518263ffffffff1660e01b81526004016123079190613708565b6101406040518083038186803b15801561232057600080fd5b505afa158015612334573d6000803e3d6000fd5b505050506040513d601f19601f820116820180604052508101906123589190612f28565b90919293949596979850909192939495969750909192939495965090919293945090919293509091925090915090505080925050612396838361274a565b9250818314156123d9576040518060400160405280600381526020017f444149000000000000000000000000000000000000000000000000000000000081525090505b600760009054906101000a900473ffffffffffffffffffffffffffffffffffffffff1673ffffffffffffffffffffffffffffffffffffffff166335ea6a75600f6040516124259061369f565b908152602001604051809103902060009054906101000a900473ffffffffffffffffffffffffffffffffffffffff166040518263ffffffff1660e01b81526004016124709190613708565b6101406040518083038186803b15801561248957600080fd5b505afa15801561249d573d6000803e3d6000fd5b505050506040513d601f19601f820116820180604052508101906124c19190612f28565b909192939495969798509091929394959697509091929394959650909192939450909192935090919250909150905050809250506124ff838361274a565b925081831415612542576040518060400160405280600481526020017f425553440000000000000000000000000000000000000000000000000000000081525090505b8083945094505050509091565b61255761290e565b61255f61290e565b61257685858584612763909392919063ffffffff16565b9150509392505050565b60003060045460405160200161259792919061365c565b604051602081830303815290604052805190602001209050600454836060018181525050836005600083815260200190815260200160002060006101000a81548173ffffffffffffffffffffffffffffffffffffffff021916908373ffffffffffffffffffffffffffffffffffffffff160217905550807fb5e6e01e79f91267dc17b4e6314d5d4d03593d2ceee0fbb452b750bd70ea5af960405160405180910390a2600260009054906101000a900473ffffffffffffffffffffffffffffffffffffffff1673ffffffffffffffffffffffffffffffffffffffff16634000aea0858461268387612813565b6040518463ffffffff1660e01b81526004016126a19392919061390f565b602060405180830381600087803b1580156126bb57600080fd5b505af11580156126cf573d6000803e3d6000fd5b505050506040513d601f19601f820116820180604052508101906126f39190612d58565b612732576040517f08c379a000000000000000000000000000000000000000000000000000000000815260040161272990613ad4565b60405180910390fd5b60016004600082825401925050819055509392505050565b6000818311612759578161275b565b825b905092915050565b61276b61290e565b61277b85608001516101006128ba565b508385600001818152505082856020019073ffffffffffffffffffffffffffffffffffffffff16908173ffffffffffffffffffffffffffffffffffffffff16815250508185604001907bffffffffffffffffffffffffffffffffffffffffffffffffffffffff191690817bffffffffffffffffffffffffffffffffffffffffffffffffffffffff191681525050849050949350505050565b6060634042994660e01b6000808460000151856020015186604001518760600151600189608001516000015160405160240161285698979695949392919061388a565b604051602081830303815290604052907bffffffffffffffffffffffffffffffffffffffffffffffffffffffff19166020820180517bffffffffffffffffffffffffffffffffffffffffffffffffffffffff83818316178352505050509050919050565b6128c261297b565b6000602083816128ce57fe5b06146128e757602082816128de57fe5b06602003820191505b81836020018181525050604051808452600081528281016020016040525082905092915050565b6040518060a0016040528060008019168152602001600073ffffffffffffffffffffffffffffffffffffffff16815260200160007bffffffffffffffffffffffffffffffffffffffffffffffffffffffff191681526020016000815260200161297561297b565b81525090565b604051806040016040528060608152602001600081525090565b6000813590506129a481613fbd565b92915050565b60008083601f8401126129bc57600080fd5b8235905067ffffffffffffffff8111156129d557600080fd5b6020830191508360208202830111156129ed57600080fd5b9250929050565b60008083601f840112612a0657600080fd5b8235905067ffffffffffffffff811115612a1f57600080fd5b602083019150836020820283011115612a3757600080fd5b9250929050565b600082601f830112612a4f57600080fd5b8151612a62612a5d82613c57565b613c2a565b91508181835260208401935060208101905083856020840282011115612a8757600080fd5b60005b83811015612ab75781612a9d8882612bb3565b845260208401935060208301925050600181019050612a8a565b5050505092915050565b600081359050612ad081613fd4565b92915050565b600081519050612ae581613fd4565b92915050565b600081359050612afa81613feb565b92915050565b60008083601f840112612b1257600080fd5b8235905067ffffffffffffffff811115612b2b57600080fd5b602083019150836001820283011115612b4357600080fd5b9250929050565b600082601f830112612b5b57600080fd5b8135612b6e612b6982613c7f565b613c2a565b91508082526020830160208301858383011115612b8a57600080fd5b612b95838284613f2f565b50505092915050565b600081359050612bad81614002565b92915050565b600081519050612bc281614002565b92915050565b600081519050612bd781614019565b92915050565b600060208284031215612bef57600080fd5b6000612bfd84828501612995565b91505092915050565b600080600080600080600080600060a08a8c031215612c2457600080fd5b60008a013567ffffffffffffffff811115612c3e57600080fd5b612c4a8c828d016129aa565b995099505060208a013567ffffffffffffffff811115612c6957600080fd5b612c758c828d016129f4565b975097505060408a013567ffffffffffffffff811115612c9457600080fd5b612ca08c828d016129f4565b95509550506060612cb38c828d01612995565b93505060808a013567ffffffffffffffff811115612cd057600080fd5b612cdc8c828d01612b00565b92509250509295985092959850929598565b600060208284031215612d0057600080fd5b600082015167ffffffffffffffff811115612d1a57600080fd5b612d2684828501612a3e565b91505092915050565b600060208284031215612d4157600080fd5b6000612d4f84828501612ac1565b91505092915050565b600060208284031215612d6a57600080fd5b6000612d7884828501612ad6565b91505092915050565b60008060408385031215612d9457600080fd5b6000612da285828601612aeb565b9250506020612db385828601612b9e565b9150509250929050565b600060208284031215612dcf57600080fd5b6000612ddd84828501612b9e565b91505092915050565b600080600060608486031215612dfb57600080fd5b6000612e0986828701612b9e565b935050602084013567ffffffffffffffff811115612e2657600080fd5b612e3286828701612b4a565b9250506040612e4386828701612995565b9150509250925092565b6000806000806000806000806000806101408b8d031215612e6d57600080fd5b6000612e7b8d828e01612bb3565b9a50506020612e8c8d828e01612bb3565b9950506040612e9d8d828e01612bb3565b9850506060612eae8d828e01612bb3565b9750506080612ebf8d828e01612bb3565b96505060a0612ed08d828e01612ad6565b95505060c0612ee18d828e01612ad6565b94505060e0612ef28d828e01612ad6565b935050610100612f048d828e01612ad6565b925050610120612f168d828e01612ad6565b9150509295989b9194979a5092959850565b6000806000806000806000806000806101408b8d031215612f4857600080fd5b6000612f568d828e01612bb3565b9a50506020612f678d828e01612bb3565b9950506040612f788d828e01612bb3565b9850506060612f898d828e01612bb3565b9750506080612f9a8d828e01612bb3565b96505060a0612fab8d828e01612bb3565b95505060c0612fbc8d828e01612bb3565b94505060e0612fcd8d828e01612bb3565b935050610100612fdf8d828e01612bb3565b925050610120612ff18d828e01612bc8565b9150509295989b9194979a5092959850565b60008060008060008060008060006101208a8c03121561302257600080fd5b60006130308c828d01612bb3565b99505060206130418c828d01612bb3565b98505060406130528c828d01612bb3565b97505060606130638c828d01612bb3565b96505060806130748c828d01612bb3565b95505060a06130858c828d01612bb3565b94505060c06130968c828d01612bb3565b93505060e06130a78c828d01612bc8565b9250506101006130b98c828d01612ad6565b9150509295985092959850929598565b60006130d58383613108565b60208301905092915050565b60006130ed8383613627565b60208301905092915050565b61310281613dfd565b82525050565b61311181613d60565b82525050565b61312081613d60565b82525050565b600061313182613ccb565b61313b8185613d11565b935061314683613cab565b8060005b8381101561317757815161315e88826130c9565b975061316983613cf7565b92505060018101905061314a565b5085935050505092915050565b600061318f82613cd6565b6131998185613d22565b93506131a483613cbb565b8060005b838110156131d55781516131bc88826130e1565b97506131c783613d04565b9250506001810190506131a8565b5085935050505092915050565b6131eb81613d72565b82525050565b6131fa81613d7e565b82525050565b61320981613d88565b82525050565b600061321a82613ce1565b6132248185613d33565b9350613234818560208601613f3e565b61323d81613f9f565b840191505092915050565b61325961325482613e0f565b613f71565b82525050565b61326881613e33565b82525050565b61327781613e57565b82525050565b61328681613e7b565b82525050565b61329581613e8d565b82525050565b6132a481613e9f565b82525050565b6132b381613eb1565b82525050565b6132c281613ec3565b82525050565b6132d181613ed5565b82525050565b6132e081613ee7565b82525050565b6132ef81613ef9565b82525050565b600061330082613cec565b61330a8185613d55565b935061331a818560208601613f3e565b80840191505092915050565b6000613333602683613d44565b91507f4f776e61626c653a206e6577206f776e657220697320746865207a65726f206160008301527f64647265737300000000000000000000000000000000000000000000000000006020830152604082019050919050565b6000613399601b83613d44565b91507f536166654d6174683a206164646974696f6e206f766572666c6f7700000000006000830152602082019050919050565b60006133d9602383613d44565b91507f756e61626c6520746f207472616e73666572416e6443616c6c20746f206f726160008301527f636c6500000000000000000000000000000000000000000000000000000000006020830152604082019050919050565b600061343f600483613d55565b91507f42555344000000000000000000000000000000000000000000000000000000006000830152600482019050919050565b600061347f600483613d55565b91507f55534454000000000000000000000000000000000000000000000000000000006000830152600482019050919050565b60006134bf602083613d44565b91507f4f776e61626c653a2063616c6c6572206973206e6f7420746865206f776e65726000830152602082019050919050565b60006134ff600483613d55565b91507f54555344000000000000000000000000000000000000000000000000000000006000830152600482019050919050565b600061353f600383613d55565b91507f44414900000000000000000000000000000000000000000000000000000000006000830152600382019050919050565b600061357f602883613d44565b91507f536f75726365206d75737420626520746865206f7261636c65206f662074686560008301527f20726571756573740000000000000000000000000000000000000000000000006020830152604082019050919050565b60006135e5600483613d55565b91507f55534443000000000000000000000000000000000000000000000000000000006000830152600482019050919050565b61362181613db4565b82525050565b61363081613de2565b82525050565b61363f81613de2565b82525050565b61365661365182613de2565b613f95565b82525050565b60006136688285613248565b6014820191506136788284613645565b6020820191508190509392505050565b600061369482846132f5565b915081905092915050565b60006136aa82613432565b9150819050919050565b60006136bf82613472565b9150819050919050565b60006136d4826134f2565b9150819050919050565b60006136e982613532565b9150819050919050565b60006136fe826135d8565b9150819050919050565b600060208201905061371d6000830184613117565b92915050565b60006040820190506137386000830185613117565b6137456020830184613117565b9392505050565b600060e082019050613761600083018a613117565b81810360208301526137738189613126565b905081810360408301526137878188613184565b9050818103606083015261379b8187613184565b90506137aa6080830186613117565b81810360a08301526137bc818561320f565b90506137cb60c0830184613618565b98975050505050505050565b60006040820190506137ec6000830185613117565b6137f96020830184613636565b9392505050565b60006080820190506138156000830187613117565b6138226020830186613636565b61382f6040830185613117565b61383c606083018461327d565b95945050505050565b600060808201905061385a6000830187613117565b6138676020830186613636565b6138746040830185613117565b6138816060830184613618565b95945050505050565b6000610100820190506138a0600083018b613117565b6138ad602083018a613636565b6138ba60408301896131f1565b6138c76060830188613117565b6138d46080830187613200565b6138e160a0830186613636565b6138ee60c0830185613636565b81810360e0830152613900818461320f565b90509998505050505050505050565b60006060820190506139246000830186613117565b6139316020830185613636565b8181036040830152613943818461320f565b9050949350505050565b600060208201905061396260008301846131e2565b92915050565b600060408201905061397d60008301856131e2565b61398a602083018461329b565b9392505050565b60006040820190506139a660008301856131e2565b6139b360208301846132aa565b9392505050565b60006040820190506139cf60008301856131e2565b6139dc60208301846132b9565b9392505050565b60006040820190506139f860008301856131e2565b613a0560208301846132c8565b9392505050565b6000604082019050613a2160008301856131e2565b613a2e60208301846132d7565b9392505050565b6000604082019050613a4a60008301856131e2565b613a5760208301846132e6565b9392505050565b6000602082019050613a73600083018461325f565b92915050565b6000602082019050613a8e600083018461326e565b92915050565b60006020820190508181036000830152613aad81613326565b9050919050565b60006020820190508181036000830152613acd8161338c565b9050919050565b60006020820190508181036000830152613aed816133cc565b9050919050565b60006020820190508181036000830152613b0d816134b2565b9050919050565b60006020820190508181036000830152613b2d81613572565b9050919050565b600060a082019050613b496000830188613636565b613b56602083018761328c565b8181036040830152613b688186613126565b9050613b7760608301856130f9565b613b846080830184613636565b9695505050505050565b600061014082019050613ba4600083018d613636565b613bb1602083018c613636565b613bbe604083018b613636565b613bcb606083018a613636565b613bd86080830189613636565b613be560a0830188613636565b613bf260c0830187613636565b613bff60e0830186613636565b613c0d610100830185613636565b613c1b610120830184613636565b9b9a5050505050505050505050565b6000604051905081810181811067ffffffffffffffff82111715613c4d57600080fd5b8060405250919050565b600067ffffffffffffffff821115613c6e57600080fd5b602082029050602081019050919050565b600067ffffffffffffffff821115613c9657600080fd5b601f19601f8301169050602081019050919050565b6000819050602082019050919050565b6000819050602082019050919050565b600081519050919050565b600081519050919050565b600081519050919050565b600081519050919050565b6000602082019050919050565b6000602082019050919050565b600082825260208201905092915050565b600082825260208201905092915050565b600082825260208201905092915050565b600082825260208201905092915050565b600081905092915050565b6000613d6b82613dc2565b9050919050565b60008115159050919050565b6000819050919050565b60007fffffffff0000000000000000000000000000000000000000000000000000000082169050919050565b600061ffff82169050919050565b600073ffffffffffffffffffffffffffffffffffffffff82169050919050565b6000819050919050565b600064ffffffffff82169050919050565b6000613e0882613f0b565b9050919050565b6000613e1a82613e21565b9050919050565b6000613e2c82613dc2565b9050919050565b6000613e3e82613e45565b9050919050565b6000613e5082613dc2565b9050919050565b6000613e6282613e69565b9050919050565b6000613e7482613dc2565b9050919050565b6000613e8682613db4565b9050919050565b6000613e9882613de2565b9050919050565b6000613eaa82613de2565b9050919050565b6000613ebc82613de2565b9050919050565b6000613ece82613de2565b9050919050565b6000613ee082613de2565b9050919050565b6000613ef282613de2565b9050919050565b6000613f0482613de2565b9050919050565b6000613f1682613f1d565b9050919050565b6000613f2882613dc2565b9050919050565b82818337600083830152505050565b60005b83811015613f5c578082015181840152602081019050613f41565b83811115613f6b576000848401525b50505050565b6000613f7c82613f83565b9050919050565b6000613f8e82613fb0565b9050919050565b6000819050919050565b6000601f19601f8301169050919050565b60008160601b9050919050565b613fc681613d60565b8114613fd157600080fd5b50565b613fdd81613d72565b8114613fe857600080fd5b50565b613ff481613d7e565b8114613fff57600080fd5b50565b61400b81613de2565b811461401657600080fd5b50565b61402281613dec565b811461402d57600080fd5b5056fea26469706673582212208e4e4df73e9b923ec77a3d3d5d5a8567ead7bc6807c0f2d7c2507a7fd23f0d6d64736f6c634300060c0033",
  "linkReferences": {},
  "deployedLinkReferences": {}
}