{
  "_format": "hh-sol-artifact-1",
  "contractName": "StableRatioSwap",
  "sourceName": "contracts/StableRatioSwap.sol",
  "abi": [
    {
      "inputs": [],
      "stateMutability": "nonpayable",
      "type": "constructor"
    },
    {
      "inputs": [
        {
          "internalType": "address",
          "name": "_userAddress",
          "type": "address"
        },
        {
          "internalType": "uint256",
          "name": "amount",
          "type": "uint256"
        }
      ],
      "name": "createUser",
      "outputs": [],
      "stateMutability": "nonpayable",
      "type": "function"
    },
    {
      "inputs": [
        {
          "internalType": "address",
          "name": "userAddress",
          "type": "address"
        },
        {
          "internalType": "uint256",
          "name": "amount",
          "type": "uint256"
        }
      ],
      "name": "deposit",
      "outputs": [],
      "stateMutability": "nonpayable",
      "type": "function"
    },
    {
      "inputs": [],
      "name": "getAllStablecoinDeposits",
      "outputs": [],
      "stateMutability": "nonpayable",
      "type": "function"
    },
    {
      "inputs": [],
      "name": "getAllUsers",
      "outputs": [
        {
          "internalType": "address[]",
          "name": "",
          "type": "address[]"
        }
      ],
      "stateMutability": "view",
      "type": "function"
    },
    {
      "inputs": [],
      "name": "optToggle",
      "outputs": [],
      "stateMutability": "nonpayable",
      "type": "function"
    },
    {
      "inputs": [],
      "name": "owner",
      "outputs": [
        {
          "internalType": "address",
          "name": "",
          "type": "address"
        }
      ],
      "stateMutability": "view",
      "type": "function"
    },
    {
      "inputs": [
        {
          "internalType": "uint256",
          "name": "",
          "type": "uint256"
        }
      ],
      "name": "userAddresses",
      "outputs": [
        {
          "internalType": "address",
          "name": "",
          "type": "address"
        }
      ],
      "stateMutability": "view",
      "type": "function"
    }
  ],
  "bytecode": "0x608060405234801561001057600080fd5b50336000806101000a81548173ffffffffffffffffffffffffffffffffffffffff021916908373ffffffffffffffffffffffffffffffffffffffff1602179055506109dd806100606000396000f3fe608060405234801561001057600080fd5b506004361061007d5760003560e01c80635e6bb0ae1161005b5780635e6bb0ae146100d85780638da5cb5b146100e257806393dfc8eb14610100578063e2842d791461011c5761007d565b80632783879f1461008257806347e7ef241461008c578063502c9bd5146100a8575b600080fd5b61008a61013a565b005b6100a660048036038101906100a19190610628565b61013c565b005b6100c260048036038101906100bd919061068d565b61022e565b6040516100cf919061080f565b60405180910390f35b6100e061026a565b005b6100ea610316565b6040516100f7919061080f565b60405180910390f35b61011a60048036038101906101159190610628565b61033a565b005b61012461055b565b604051610131919061082a565b60405180910390f35b565b600060023360405160200161015191906107d2565b60405160208183030381529060405260405161016d91906107f8565b602060405180830381855afa15801561018a573d6000803e3d6000fd5b5050506040513d601f19601f820116820180604052508101906101ad9190610664565b60601c905060006002336040516020016101c791906107d2565b6040516020818303038152906040526040516101e391906107f8565b602060405180830381855afa158015610200573d6000803e3d6000fd5b5050506040513d601f19601f820116820180604052508101906102239190610664565b60601c905050505050565b6001818154811061023b57fe5b906000526020600020016000915054906101000a900473ffffffffffffffffffffffffffffffffffffffff1681565b600260003373ffffffffffffffffffffffffffffffffffffffff1673ffffffffffffffffffffffffffffffffffffffff16815260200190815260200160002060020160009054906101000a900460ff1615600260003373ffffffffffffffffffffffffffffffffffffffff1673ffffffffffffffffffffffffffffffffffffffff16815260200190815260200160002060020160006101000a81548160ff021916908315150217905550565b60008054906101000a900473ffffffffffffffffffffffffffffffffffffffff1681565b600073ffffffffffffffffffffffffffffffffffffffff16600260003373ffffffffffffffffffffffffffffffffffffffff1673ffffffffffffffffffffffffffffffffffffffff16815260200190815260200160002060000160009054906101000a900473ffffffffffffffffffffffffffffffffffffffff1673ffffffffffffffffffffffffffffffffffffffff16146105575781600260003373ffffffffffffffffffffffffffffffffffffffff1673ffffffffffffffffffffffffffffffffffffffff16815260200190815260200160002060000160006101000a81548173ffffffffffffffffffffffffffffffffffffffff021916908373ffffffffffffffffffffffffffffffffffffffff16021790555080600260003373ffffffffffffffffffffffffffffffffffffffff1673ffffffffffffffffffffffffffffffffffffffff168152602001908152602001600020600101819055506000600260003373ffffffffffffffffffffffffffffffffffffffff1673ffffffffffffffffffffffffffffffffffffffff16815260200190815260200160002060020160006101000a81548160ff0219169083151502179055506001339080600181540180825580915050600190039060005260206000200160009091909190916101000a81548173ffffffffffffffffffffffffffffffffffffffff021916908373ffffffffffffffffffffffffffffffffffffffff1602179055505b5050565b606060018054806020026020016040519081016040528092919081815260200182805480156105df57602002820191906000526020600020905b8160009054906101000a900473ffffffffffffffffffffffffffffffffffffffff1673ffffffffffffffffffffffffffffffffffffffff1681526020019060010190808311610595575b5050505050905090565b6000813590506105f881610962565b92915050565b60008151905061060d81610979565b92915050565b60008135905061062281610990565b92915050565b6000806040838503121561063b57600080fd5b6000610649858286016105e9565b925050602061065a85828601610613565b9150509250929050565b60006020828403121561067657600080fd5b6000610684848285016105fe565b91505092915050565b60006020828403121561069f57600080fd5b60006106ad84828501610613565b91505092915050565b60006106c283836106e5565b60208301905092915050565b6106df6106da826108b8565b610931565b82525050565b6106ee816108a6565b82525050565b6106fd816108a6565b82525050565b600061070e8261085c565b610718818561087f565b93506107238361084c565b8060005b8381101561075457815161073b88826106b6565b975061074683610872565b925050600181019050610727565b5085935050505092915050565b600061076c82610867565b6107768185610890565b93506107868185602086016108fe565b80840191505092915050565b600061079f600f8361089b565b91507f626c6f636b2e74696d657374616d7000000000000000000000000000000000006000830152600f82019050919050565b60006107de82846106ce565b6014820191506107ed82610792565b915081905092915050565b60006108048284610761565b915081905092915050565b600060208201905061082460008301846106f4565b92915050565b600060208201905081810360008301526108448184610703565b905092915050565b6000819050602082019050919050565b600081519050919050565b600081519050919050565b6000602082019050919050565b600082825260208201905092915050565b600081905092915050565b600081905092915050565b60006108b1826108d4565b9050919050565b60006108c3826108d4565b9050919050565b6000819050919050565b600073ffffffffffffffffffffffffffffffffffffffff82169050919050565b6000819050919050565b60005b8381101561091c578082015181840152602081019050610901565b8381111561092b576000848401525b50505050565b600061093c82610943565b9050919050565b600061094e82610955565b9050919050565b60008160601b9050919050565b61096b816108a6565b811461097657600080fd5b50565b610982816108ca565b811461098d57600080fd5b50565b610999816108f4565b81146109a457600080fd5b5056fea26469706673582212201b561f71018df55c85b9184599aaf72c711249ccb3b529363520ab2425b0f24b64736f6c634300060c0033",
  "linkReferences": {},
  "deployedLinkReferences": {}
}